{
  "contractName": "AccessControl",
  "abi": [
    {
      "inputs": [],
      "payable": false,
      "stateMutability": "nonpayable",
      "type": "constructor"
    },
    {
      "anonymous": false,
      "inputs": [
        {
          "indexed": true,
          "internalType": "address",
          "name": "operator",
          "type": "address"
        },
        {
          "indexed": false,
          "internalType": "uint8",
          "name": "role",
          "type": "uint8"
        }
      ],
      "name": "RoleAdded",
      "type": "event"
    },
    {
      "anonymous": false,
      "inputs": [
        {
          "indexed": true,
          "internalType": "address",
          "name": "operator",
          "type": "address"
        },
        {
          "indexed": false,
          "internalType": "uint8",
          "name": "role",
          "type": "uint8"
        }
      ],
      "name": "RoleRemoved",
      "type": "event"
    },
    {
      "constant": true,
      "inputs": [],
      "name": "ROLE_CF_ARTISTS",
      "outputs": [
        {
          "internalType": "uint8",
          "name": "",
          "type": "uint8"
        }
      ],
      "payable": false,
      "stateMutability": "view",
      "type": "function"
    },
    {
      "constant": true,
      "inputs": [],
      "name": "ROLE_CF_OFFER",
      "outputs": [
        {
          "internalType": "uint8",
          "name": "",
          "type": "uint8"
        }
      ],
      "payable": false,
      "stateMutability": "view",
      "type": "function"
    },
    {
      "constant": true,
      "inputs": [],
      "name": "ROLE_CRYPTO_FACES",
      "outputs": [
        {
          "internalType": "uint8",
          "name": "",
          "type": "uint8"
        }
      ],
      "payable": false,
      "stateMutability": "view",
      "type": "function"
    },
    {
      "constant": true,
      "inputs": [],
      "name": "owner",
      "outputs": [
        {
          "internalType": "address",
          "name": "",
          "type": "address"
        }
      ],
      "payable": false,
      "stateMutability": "view",
      "type": "function"
    },
    {
      "constant": false,
      "inputs": [
        {
          "internalType": "address",
          "name": "_operator",
          "type": "address"
        },
        {
          "internalType": "uint8",
          "name": "_role",
          "type": "uint8"
        }
      ],
      "name": "addAddressToAccessControl",
      "outputs": [],
      "payable": false,
      "stateMutability": "nonpayable",
      "type": "function"
    },
    {
      "constant": false,
      "inputs": [
        {
          "internalType": "address",
          "name": "_operator",
          "type": "address"
        },
        {
          "internalType": "uint8",
          "name": "_role",
          "type": "uint8"
        }
      ],
      "name": "removeAddressFromAccessControl",
      "outputs": [],
      "payable": false,
      "stateMutability": "nonpayable",
      "type": "function"
    },
    {
      "constant": true,
      "inputs": [
        {
          "internalType": "address",
          "name": "_operator",
          "type": "address"
        },
        {
          "internalType": "uint8",
          "name": "_role",
          "type": "uint8"
        }
      ],
      "name": "hasRole",
      "outputs": [
        {
          "internalType": "bool",
          "name": "",
          "type": "bool"
        }
      ],
      "payable": false,
      "stateMutability": "view",
      "type": "function"
    }
  ],
  "bytecode": "0x608060405234801561001057600080fd5b50336000806101000a81548173ffffffffffffffffffffffffffffffffffffffff021916908373ffffffffffffffffffffffffffffffffffffffff160217905550610776806100606000396000f3fe608060405234801561001057600080fd5b506004361061007d5760003560e01c806395a8c58d1161005b57806395a8c58d14610141578063975347b8146101aa5780639cfccf3f146101fb578063f717dfcd1461021f5761007d565b806343923258146100825780634acfa95c146100d35780638da5cb5b146100f7575b600080fd5b6100d16004803603604081101561009857600080fd5b81019080803573ffffffffffffffffffffffffffffffffffffffff169060200190929190803560ff169060200190929190505050610243565b005b6100db610331565b604051808260ff1660ff16815260200191505060405180910390f35b6100ff610336565b604051808273ffffffffffffffffffffffffffffffffffffffff1673ffffffffffffffffffffffffffffffffffffffff16815260200191505060405180910390f35b6101906004803603604081101561015757600080fd5b81019080803573ffffffffffffffffffffffffffffffffffffffff169060200190929190803560ff16906020019092919050505061035b565b604051808215151515815260200191505060405180910390f35b6101f9600480360360408110156101c057600080fd5b81019080803573ffffffffffffffffffffffffffffffffffffffff169060200190929190803560ff169060200190929190505050610390565b005b61020361047e565b604051808260ff1660ff16815260200191505060405180910390f35b610227610483565b604051808260ff1660ff16815260200191505060405180910390f35b6000809054906101000a900473ffffffffffffffffffffffffffffffffffffffff1673ffffffffffffffffffffffffffffffffffffffff163373ffffffffffffffffffffffffffffffffffffffff1614806102a557506102a433600161035b565b5b6102ae57600080fd5b6102d982600160008460ff1660ff16815260200190815260200160002061048890919063ffffffff16565b8173ffffffffffffffffffffffffffffffffffffffff167f0ed8a6a6a166243876472f7a8610b62c1a76c67911642d39ff34ead38105534f82604051808260ff1660ff16815260200191505060405180910390a25050565b600181565b6000809054906101000a900473ffffffffffffffffffffffffffffffffffffffff1681565b600061038883600160008560ff1660ff16815260200190815260200160002061056390919063ffffffff16565b905092915050565b6000809054906101000a900473ffffffffffffffffffffffffffffffffffffffff1673ffffffffffffffffffffffffffffffffffffffff163373ffffffffffffffffffffffffffffffffffffffff1614806103f257506103f133600161035b565b5b6103fb57600080fd5b61042682600160008460ff1660ff16815260200190815260200160002061064190919063ffffffff16565b8173ffffffffffffffffffffffffffffffffffffffff167f3824b64a1e23d936b458f4e31445c664d2bc9c14e842407917cbc100b0236a2f82604051808260ff1660ff16815260200191505060405180910390a25050565b600281565b600381565b6104928282610563565b15610505576040517f08c379a000000000000000000000000000000000000000000000000000000000815260040180806020018281038252601f8152602001807f526f6c65733a206163636f756e7420616c72656164792068617320726f6c650081525060200191505060405180910390fd5b60018260000160008373ffffffffffffffffffffffffffffffffffffffff1673ffffffffffffffffffffffffffffffffffffffff16815260200190815260200160002060006101000a81548160ff0219169083151502179055505050565b60008073ffffffffffffffffffffffffffffffffffffffff168273ffffffffffffffffffffffffffffffffffffffff1614156105ea576040517f08c379a00000000000000000000000000000000000000000000000000000000081526004018080602001828103825260228152602001806107206022913960400191505060405180910390fd5b8260000160008373ffffffffffffffffffffffffffffffffffffffff1673ffffffffffffffffffffffffffffffffffffffff16815260200190815260200160002060009054906101000a900460ff16905092915050565b61064b8282610563565b6106a0576040517f08c379a00000000000000000000000000000000000000000000000000000000081526004018080602001828103825260218152602001806106ff6021913960400191505060405180910390fd5b60008260000160008373ffffffffffffffffffffffffffffffffffffffff1673ffffffffffffffffffffffffffffffffffffffff16815260200190815260200160002060006101000a81548160ff021916908315150217905550505056fe526f6c65733a206163636f756e7420646f6573206e6f74206861766520726f6c65526f6c65733a206163636f756e7420697320746865207a65726f2061646472657373a265627a7a7231582026652a70270dcc1ee76723ac42b67a0a9dee59cb41e91fbdaa8b0b1502a53ef264736f6c634300050c0032",
  "source": "pragma solidity ^0.5.12;\n\nimport \"openzeppelin-solidity/contracts/access/Roles.sol\";\n\n\n/**\n * @title Based on OpenZeppelin Whitelist & RBCA contracts, and based on KnownOrigin Access Control.\n * @dev The AccessControl contract provides different access for addresses, and provides basic authorization control functions.\n */\ncontract AccessControl {\n\n    using Roles for Roles.Role;\n\n    uint8 public constant ROLE_CRYPTO_FACES = 1;\n    uint8 public constant ROLE_CF_ARTISTS = 2;\n    uint8 public constant ROLE_CF_OFFER = 3;\n\n    event RoleAdded(\n        address indexed operator,\n        uint8 role\n    );\n\n    event RoleRemoved(\n        address indexed operator,\n        uint8 role\n    );\n\n    address public owner;\n\n    mapping(uint8 => Roles.Role) private roles;\n\n    modifier onlyIfCryptoFaces() {\n        require(msg.sender == owner || hasRole(msg.sender, ROLE_CRYPTO_FACES));\n        _;\n    }\n\n    modifier onlyIfCryptoFacesArtists() {\n        require(msg.sender == owner || hasRole(msg.sender, ROLE_CRYPTO_FACES) || hasRole(msg.sender, ROLE_CF_ARTISTS));\n        _;\n    }\n\n    modifier onlyIfCryptoFacesOffer() {\n        require(msg.sender == owner || hasRole(msg.sender, ROLE_CRYPTO_FACES) || hasRole(msg.sender, ROLE_CF_OFFER));\n        _;\n    }\n\n    /*\n     * Constructor\n     */\n    constructor() public {\n        owner = msg.sender;\n    }\n\n    ////////////////////////////////////\n    // Whitelist/RBCA Derived Methods //\n    ////////////////////////////////////\n\n    function addAddressToAccessControl(address _operator, uint8 _role) public onlyIfCryptoFaces {\n        roles[_role].add(_operator);\n        emit RoleAdded(_operator, _role);\n    }\n\n    function removeAddressFromAccessControl(address _operator, uint8 _role) public onlyIfCryptoFaces {\n        roles[_role].remove(_operator);\n        emit RoleRemoved(_operator, _role);\n    }\n\n    /*function checkRole(address _operator, uint8 _role) public view {\n        roles[_role].check(_operator);\n    }*/\n\n    function hasRole(address _operator, uint8 _role) public view returns (bool) {\n        return roles[_role].has(_operator);\n    }\n}",
  "sourcePath": "/home/iskander/Projects/cryptofaces/contracts/AccessControl.sol",
  "compiler": {
    "name": "solc",
    "version": "0.5.12+commit.7709ece9.Emscripten.clang"
  },
  "schemaVersion": "3.0.20",
  "updatedAt": "2020-01-30T17:18:38.914Z",
  "devdoc": {
    "details": "The AccessControl contract provides different access for addresses, and provides basic authorization control functions.",
    "methods": {},
    "title": "Based on OpenZeppelin Whitelist & RBCA contracts, and based on KnownOrigin Access Control."
  },
  "userdoc": {
    "methods": {
      "addAddressToAccessControl(address,uint8)": {
        "notice": "/////////////////////////////////"
      }
    }
  }
}