{
  "contractName": "CryptoFaces",
  "abi": [
    {
      "inputs": [],
      "payable": true,
      "stateMutability": "payable",
      "type": "constructor"
    },
    {
      "anonymous": false,
      "inputs": [
        {
          "indexed": true,
          "internalType": "address",
          "name": "owner",
          "type": "address"
        },
        {
          "indexed": true,
          "internalType": "address",
          "name": "approved",
          "type": "address"
        },
        {
          "indexed": true,
          "internalType": "uint256",
          "name": "tokenId",
          "type": "uint256"
        }
      ],
      "name": "Approval",
      "type": "event"
    },
    {
      "anonymous": false,
      "inputs": [
        {
          "indexed": true,
          "internalType": "address",
          "name": "owner",
          "type": "address"
        },
        {
          "indexed": true,
          "internalType": "address",
          "name": "operator",
          "type": "address"
        },
        {
          "indexed": false,
          "internalType": "bool",
          "name": "approved",
          "type": "bool"
        }
      ],
      "name": "ApprovalForAll",
      "type": "event"
    },
    {
      "anonymous": false,
      "inputs": [
        {
          "indexed": true,
          "internalType": "uint256",
          "name": "_tokenId",
          "type": "uint256"
        },
        {
          "indexed": true,
          "internalType": "uint256",
          "name": "_tokenURI",
          "type": "uint256"
        },
        {
          "indexed": true,
          "internalType": "address",
          "name": "_buyer",
          "type": "address"
        }
      ],
      "name": "Minted",
      "type": "event"
    },
    {
      "anonymous": false,
      "inputs": [
        {
          "indexed": false,
          "internalType": "address",
          "name": "account",
          "type": "address"
        }
      ],
      "name": "Paused",
      "type": "event"
    },
    {
      "anonymous": false,
      "inputs": [
        {
          "indexed": true,
          "internalType": "address",
          "name": "account",
          "type": "address"
        }
      ],
      "name": "PauserAdded",
      "type": "event"
    },
    {
      "anonymous": false,
      "inputs": [
        {
          "indexed": true,
          "internalType": "address",
          "name": "account",
          "type": "address"
        }
      ],
      "name": "PauserRemoved",
      "type": "event"
    },
    {
      "anonymous": false,
      "inputs": [
        {
          "indexed": true,
          "internalType": "address",
          "name": "operator",
          "type": "address"
        },
        {
          "indexed": false,
          "internalType": "uint8",
          "name": "role",
          "type": "uint8"
        }
      ],
      "name": "RoleAdded",
      "type": "event"
    },
    {
      "anonymous": false,
      "inputs": [
        {
          "indexed": true,
          "internalType": "address",
          "name": "operator",
          "type": "address"
        },
        {
          "indexed": false,
          "internalType": "uint8",
          "name": "role",
          "type": "uint8"
        }
      ],
      "name": "RoleRemoved",
      "type": "event"
    },
    {
      "anonymous": false,
      "inputs": [
        {
          "indexed": true,
          "internalType": "address",
          "name": "from",
          "type": "address"
        },
        {
          "indexed": true,
          "internalType": "address",
          "name": "to",
          "type": "address"
        },
        {
          "indexed": true,
          "internalType": "uint256",
          "name": "tokenId",
          "type": "uint256"
        }
      ],
      "name": "Transfer",
      "type": "event"
    },
    {
      "anonymous": false,
      "inputs": [
        {
          "indexed": false,
          "internalType": "address",
          "name": "account",
          "type": "address"
        }
      ],
      "name": "Unpaused",
      "type": "event"
    },
    {
      "constant": true,
      "inputs": [],
      "name": "ROLE_CF_ARTISTS",
      "outputs": [
        {
          "internalType": "uint8",
          "name": "",
          "type": "uint8"
        }
      ],
      "payable": false,
      "stateMutability": "view",
      "type": "function"
    },
    {
      "constant": true,
      "inputs": [],
      "name": "ROLE_CF_OFFER",
      "outputs": [
        {
          "internalType": "uint8",
          "name": "",
          "type": "uint8"
        }
      ],
      "payable": false,
      "stateMutability": "view",
      "type": "function"
    },
    {
      "constant": true,
      "inputs": [],
      "name": "ROLE_CRYPTO_FACES",
      "outputs": [
        {
          "internalType": "uint8",
          "name": "",
          "type": "uint8"
        }
      ],
      "payable": false,
      "stateMutability": "view",
      "type": "function"
    },
    {
      "constant": false,
      "inputs": [
        {
          "internalType": "address",
          "name": "_operator",
          "type": "address"
        },
        {
          "internalType": "uint8",
          "name": "_role",
          "type": "uint8"
        }
      ],
      "name": "addAddressToAccessControl",
      "outputs": [],
      "payable": false,
      "stateMutability": "nonpayable",
      "type": "function"
    },
    {
      "constant": false,
      "inputs": [
        {
          "internalType": "address",
          "name": "account",
          "type": "address"
        }
      ],
      "name": "addPauser",
      "outputs": [],
      "payable": false,
      "stateMutability": "nonpayable",
      "type": "function"
    },
    {
      "constant": false,
      "inputs": [
        {
          "internalType": "address",
          "name": "to",
          "type": "address"
        },
        {
          "internalType": "uint256",
          "name": "tokenId",
          "type": "uint256"
        }
      ],
      "name": "approve",
      "outputs": [],
      "payable": false,
      "stateMutability": "nonpayable",
      "type": "function"
    },
    {
      "constant": true,
      "inputs": [
        {
          "internalType": "address",
          "name": "owner",
          "type": "address"
        }
      ],
      "name": "balanceOf",
      "outputs": [
        {
          "internalType": "uint256",
          "name": "",
          "type": "uint256"
        }
      ],
      "payable": false,
      "stateMutability": "view",
      "type": "function"
    },
    {
      "constant": true,
      "inputs": [
        {
          "internalType": "uint256",
          "name": "tokenId",
          "type": "uint256"
        }
      ],
      "name": "getApproved",
      "outputs": [
        {
          "internalType": "address",
          "name": "",
          "type": "address"
        }
      ],
      "payable": false,
      "stateMutability": "view",
      "type": "function"
    },
    {
      "constant": true,
      "inputs": [
        {
          "internalType": "address",
          "name": "_operator",
          "type": "address"
        },
        {
          "internalType": "uint8",
          "name": "_role",
          "type": "uint8"
        }
      ],
      "name": "hasRole",
      "outputs": [
        {
          "internalType": "bool",
          "name": "",
          "type": "bool"
        }
      ],
      "payable": false,
      "stateMutability": "view",
      "type": "function"
    },
    {
      "constant": true,
      "inputs": [
        {
          "internalType": "address",
          "name": "owner",
          "type": "address"
        },
        {
          "internalType": "address",
          "name": "operator",
          "type": "address"
        }
      ],
      "name": "isApprovedForAll",
      "outputs": [
        {
          "internalType": "bool",
          "name": "",
          "type": "bool"
        }
      ],
      "payable": false,
      "stateMutability": "view",
      "type": "function"
    },
    {
      "constant": true,
      "inputs": [
        {
          "internalType": "address",
          "name": "account",
          "type": "address"
        }
      ],
      "name": "isPauser",
      "outputs": [
        {
          "internalType": "bool",
          "name": "",
          "type": "bool"
        }
      ],
      "payable": false,
      "stateMutability": "view",
      "type": "function"
    },
    {
      "constant": true,
      "inputs": [],
      "name": "name",
      "outputs": [
        {
          "internalType": "string",
          "name": "",
          "type": "string"
        }
      ],
      "payable": false,
      "stateMutability": "view",
      "type": "function"
    },
    {
      "constant": true,
      "inputs": [],
      "name": "owner",
      "outputs": [
        {
          "internalType": "address",
          "name": "",
          "type": "address"
        }
      ],
      "payable": false,
      "stateMutability": "view",
      "type": "function"
    },
    {
      "constant": true,
      "inputs": [
        {
          "internalType": "uint256",
          "name": "tokenId",
          "type": "uint256"
        }
      ],
      "name": "ownerOf",
      "outputs": [
        {
          "internalType": "address",
          "name": "",
          "type": "address"
        }
      ],
      "payable": false,
      "stateMutability": "view",
      "type": "function"
    },
    {
      "constant": false,
      "inputs": [],
      "name": "pause",
      "outputs": [],
      "payable": false,
      "stateMutability": "nonpayable",
      "type": "function"
    },
    {
      "constant": true,
      "inputs": [],
      "name": "paused",
      "outputs": [
        {
          "internalType": "bool",
          "name": "",
          "type": "bool"
        }
      ],
      "payable": false,
      "stateMutability": "view",
      "type": "function"
    },
    {
      "constant": false,
      "inputs": [
        {
          "internalType": "address",
          "name": "_operator",
          "type": "address"
        },
        {
          "internalType": "uint8",
          "name": "_role",
          "type": "uint8"
        }
      ],
      "name": "removeAddressFromAccessControl",
      "outputs": [],
      "payable": false,
      "stateMutability": "nonpayable",
      "type": "function"
    },
    {
      "constant": false,
      "inputs": [],
      "name": "renouncePauser",
      "outputs": [],
      "payable": false,
      "stateMutability": "nonpayable",
      "type": "function"
    },
    {
      "constant": false,
      "inputs": [
        {
          "internalType": "address",
          "name": "from",
          "type": "address"
        },
        {
          "internalType": "address",
          "name": "to",
          "type": "address"
        },
        {
          "internalType": "uint256",
          "name": "tokenId",
          "type": "uint256"
        }
      ],
      "name": "safeTransferFrom",
      "outputs": [],
      "payable": false,
      "stateMutability": "nonpayable",
      "type": "function"
    },
    {
      "constant": false,
      "inputs": [
        {
          "internalType": "address",
          "name": "from",
          "type": "address"
        },
        {
          "internalType": "address",
          "name": "to",
          "type": "address"
        },
        {
          "internalType": "uint256",
          "name": "tokenId",
          "type": "uint256"
        },
        {
          "internalType": "bytes",
          "name": "_data",
          "type": "bytes"
        }
      ],
      "name": "safeTransferFrom",
      "outputs": [],
      "payable": false,
      "stateMutability": "nonpayable",
      "type": "function"
    },
    {
      "constant": false,
      "inputs": [
        {
          "internalType": "address",
          "name": "to",
          "type": "address"
        },
        {
          "internalType": "bool",
          "name": "approved",
          "type": "bool"
        }
      ],
      "name": "setApprovalForAll",
      "outputs": [],
      "payable": false,
      "stateMutability": "nonpayable",
      "type": "function"
    },
    {
      "constant": true,
      "inputs": [
        {
          "internalType": "bytes4",
          "name": "interfaceId",
          "type": "bytes4"
        }
      ],
      "name": "supportsInterface",
      "outputs": [
        {
          "internalType": "bool",
          "name": "",
          "type": "bool"
        }
      ],
      "payable": false,
      "stateMutability": "view",
      "type": "function"
    },
    {
      "constant": true,
      "inputs": [],
      "name": "symbol",
      "outputs": [
        {
          "internalType": "string",
          "name": "",
          "type": "string"
        }
      ],
      "payable": false,
      "stateMutability": "view",
      "type": "function"
    },
    {
      "constant": true,
      "inputs": [
        {
          "internalType": "uint256",
          "name": "index",
          "type": "uint256"
        }
      ],
      "name": "tokenByIndex",
      "outputs": [
        {
          "internalType": "uint256",
          "name": "",
          "type": "uint256"
        }
      ],
      "payable": false,
      "stateMutability": "view",
      "type": "function"
    },
    {
      "constant": true,
      "inputs": [
        {
          "internalType": "address",
          "name": "owner",
          "type": "address"
        },
        {
          "internalType": "uint256",
          "name": "index",
          "type": "uint256"
        }
      ],
      "name": "tokenOfOwnerByIndex",
      "outputs": [
        {
          "internalType": "uint256",
          "name": "",
          "type": "uint256"
        }
      ],
      "payable": false,
      "stateMutability": "view",
      "type": "function"
    },
    {
      "constant": true,
      "inputs": [
        {
          "internalType": "uint256",
          "name": "tokenId",
          "type": "uint256"
        }
      ],
      "name": "tokenURI",
      "outputs": [
        {
          "internalType": "string",
          "name": "",
          "type": "string"
        }
      ],
      "payable": false,
      "stateMutability": "view",
      "type": "function"
    },
    {
      "constant": true,
      "inputs": [],
      "name": "totalSupply",
      "outputs": [
        {
          "internalType": "uint256",
          "name": "",
          "type": "uint256"
        }
      ],
      "payable": false,
      "stateMutability": "view",
      "type": "function"
    },
    {
      "constant": false,
      "inputs": [
        {
          "internalType": "address",
          "name": "from",
          "type": "address"
        },
        {
          "internalType": "address",
          "name": "to",
          "type": "address"
        },
        {
          "internalType": "uint256",
          "name": "tokenId",
          "type": "uint256"
        }
      ],
      "name": "transferFrom",
      "outputs": [],
      "payable": false,
      "stateMutability": "nonpayable",
      "type": "function"
    },
    {
      "constant": false,
      "inputs": [],
      "name": "unpause",
      "outputs": [],
      "payable": false,
      "stateMutability": "nonpayable",
      "type": "function"
    },
    {
      "constant": true,
      "inputs": [
        {
          "internalType": "address",
          "name": "_owner",
          "type": "address"
        }
      ],
      "name": "tokensOf",
      "outputs": [
        {
          "internalType": "uint256[]",
          "name": "_tokenIds",
          "type": "uint256[]"
        }
      ],
      "payable": false,
      "stateMutability": "view",
      "type": "function"
    },
    {
      "constant": false,
      "inputs": [
        {
          "internalType": "address",
          "name": "_to",
          "type": "address"
        },
        {
          "internalType": "uint256",
          "name": "_tokenURI",
          "type": "uint256"
        }
      ],
      "name": "mint",
      "outputs": [],
      "payable": false,
      "stateMutability": "nonpayable",
      "type": "function"
    }
  ],
  "bytecode": "0x60806040526040518060400160405280601c81526020017f68747470733a2f2f697066732e696e667572612e696f2f697066732f00000000815250601090805190602001906200005192919062000515565b50620186a16011556040518060400160405280600b81526020017f43727970746f46616365730000000000000000000000000000000000000000008152506040518060400160405280600281526020017f43460000000000000000000000000000000000000000000000000000000000008152508181620000df6301ffc9a760e01b620001df60201b60201c565b620000f76380ac58cd60e01b620001df60201b60201c565b6200010f63780e9d6360e01b620001df60201b60201c565b81600990805190602001906200012792919062000515565b5080600a90805190602001906200014092919062000515565b5062000159635b5e139f60e01b620001df60201b60201c565b5050505033600c60006101000a81548173ffffffffffffffffffffffffffffffffffffffff021916908373ffffffffffffffffffffffffffffffffffffffff160217905550620001be620001b2620002e860201b60201c565b620002f060201b60201c565b6000600f60006101000a81548160ff021916908315150217905550620005c4565b63ffffffff60e01b817bffffffffffffffffffffffffffffffffffffffffffffffffffffffff191614156200027c576040517f08c379a000000000000000000000000000000000000000000000000000000000815260040180806020018281038252601c8152602001807f4552433136353a20696e76616c696420696e746572666163652069640000000081525060200191505060405180910390fd5b6001600080837bffffffffffffffffffffffffffffffffffffffffffffffffffffffff19167bffffffffffffffffffffffffffffffffffffffffffffffffffffffff1916815260200190815260200160002060006101000a81548160ff02191690831515021790555050565b600033905090565b6200030b81600e6200035160201b620022af1790919060201c565b8073ffffffffffffffffffffffffffffffffffffffff167f6719d08c1888103bea251a4ed56406bd0c3e69723c8a1686e017e7bbe159b6f860405160405180910390a250565b6200036382826200043560201b60201c565b15620003d7576040517f08c379a000000000000000000000000000000000000000000000000000000000815260040180806020018281038252601f8152602001807f526f6c65733a206163636f756e7420616c72656164792068617320726f6c650081525060200191505060405180910390fd5b60018260000160008373ffffffffffffffffffffffffffffffffffffffff1673ffffffffffffffffffffffffffffffffffffffff16815260200190815260200160002060006101000a81548160ff0219169083151502179055505050565b60008073ffffffffffffffffffffffffffffffffffffffff168273ffffffffffffffffffffffffffffffffffffffff161415620004be576040517f08c379a000000000000000000000000000000000000000000000000000000000815260040180806020018281038252602281526020018062003b086022913960400191505060405180910390fd5b8260000160008373ffffffffffffffffffffffffffffffffffffffff1673ffffffffffffffffffffffffffffffffffffffff16815260200190815260200160002060009054906101000a900460ff16905092915050565b828054600181600116156101000203166002900490600052602060002090601f016020900481019282601f106200055857805160ff191683800117855562000589565b8280016001018555821562000589579182015b82811115620005885782518255916020019190600101906200056b565b5b5090506200059891906200059c565b5090565b620005c191905b80821115620005bd576000816000905550600101620005a3565b5090565b90565b61353480620005d46000396000f3fe608060405234801561001057600080fd5b50600436106101e55760003560e01c80635c975abb1161010f57806395d89b41116100a2578063b88d4fde11610071578063b88d4fde14610a29578063c87b56dd14610b2e578063e985e9c514610bd5578063f717dfcd14610c51576101e5565b806395d89b41146108e1578063975347b8146109645780639cfccf3f146109b5578063a22cb465146109d9576101e5565b806382dc1ec4116100de57806382dc1ec4146107e05780638456cb59146108245780638da5cb5b1461082e57806395a8c58d14610878576101e5565b80635c975abb146106ee5780636352211e146107105780636ef8d66d1461077e57806370a0823114610788576101e5565b80633f4ba83a1161018757806346fbf68e1161015657806346fbf68e146105935780634acfa95c146105ef5780634f6ccce7146106135780635a3f267214610655576101e5565b80633f4ba83a1461047c57806340c10f191461048657806342842e0e146104d45780634392325814610542576101e5565b8063095ea7b3116101c3578063095ea7b31461034057806318160ddd1461038e57806323b872dd146103ac5780632f745c591461041a576101e5565b806301ffc9a7146101ea57806306fdde031461024f578063081812fc146102d2575b600080fd5b6102356004803603602081101561020057600080fd5b8101908080357bffffffffffffffffffffffffffffffffffffffffffffffffffffffff19169060200190929190505050610c75565b604051808215151515815260200191505060405180910390f35b610257610cdc565b6040518080602001828103825283818151815260200191508051906020019080838360005b8381101561029757808201518184015260208101905061027c565b50505050905090810190601f1680156102c45780820380516001836020036101000a031916815260200191505b509250505060405180910390f35b6102fe600480360360208110156102e857600080fd5b8101908080359060200190929190505050610d7e565b604051808273ffffffffffffffffffffffffffffffffffffffff1673ffffffffffffffffffffffffffffffffffffffff16815260200191505060405180910390f35b61038c6004803603604081101561035657600080fd5b81019080803573ffffffffffffffffffffffffffffffffffffffff16906020019092919080359060200190929190505050610e19565b005b610396611000565b6040518082815260200191505060405180910390f35b610418600480360360608110156103c257600080fd5b81019080803573ffffffffffffffffffffffffffffffffffffffff169060200190929190803573ffffffffffffffffffffffffffffffffffffffff1690602001909291908035906020019092919050505061100d565b005b6104666004803603604081101561043057600080fd5b81019080803573ffffffffffffffffffffffffffffffffffffffff16906020019092919080359060200190929190505050611083565b6040518082815260200191505060405180910390f35b610484611142565b005b6104d26004803603604081101561049c57600080fd5b81019080803573ffffffffffffffffffffffffffffffffffffffff169060200190929190803590602001909291905050506112b0565b005b610540600480360360608110156104ea57600080fd5b81019080803573ffffffffffffffffffffffffffffffffffffffff169060200190929190803573ffffffffffffffffffffffffffffffffffffffff16906020019092919080359060200190929190505050611424565b005b6105916004803603604081101561055857600080fd5b81019080803573ffffffffffffffffffffffffffffffffffffffff169060200190929190803560ff169060200190929190505050611444565b005b6105d5600480360360208110156105a957600080fd5b81019080803573ffffffffffffffffffffffffffffffffffffffff169060200190929190505050611533565b604051808215151515815260200191505060405180910390f35b6105f7611550565b604051808260ff1660ff16815260200191505060405180910390f35b61063f6004803603602081101561062957600080fd5b8101908080359060200190929190505050611555565b6040518082815260200191505060405180910390f35b6106976004803603602081101561066b57600080fd5b81019080803573ffffffffffffffffffffffffffffffffffffffff1690602001909291905050506115d5565b6040518080602001828103825283818151815260200191508051906020019060200280838360005b838110156106da5780820151818401526020810190506106bf565b505050509050019250505060405180910390f35b6106f6611701565b604051808215151515815260200191505060405180910390f35b61073c6004803603602081101561072657600080fd5b8101908080359060200190929190505050611718565b604051808273ffffffffffffffffffffffffffffffffffffffff1673ffffffffffffffffffffffffffffffffffffffff16815260200191505060405180910390f35b6107866117e0565b005b6107ca6004803603602081101561079e57600080fd5b81019080803573ffffffffffffffffffffffffffffffffffffffff1690602001909291905050506117f2565b6040518082815260200191505060405180910390f35b610822600480360360208110156107f657600080fd5b81019080803573ffffffffffffffffffffffffffffffffffffffff1690602001909291905050506118c7565b005b61082c611938565b005b610836611aa7565b604051808273ffffffffffffffffffffffffffffffffffffffff1673ffffffffffffffffffffffffffffffffffffffff16815260200191505060405180910390f35b6108c76004803603604081101561088e57600080fd5b81019080803573ffffffffffffffffffffffffffffffffffffffff169060200190929190803560ff169060200190929190505050611acd565b604051808215151515815260200191505060405180910390f35b6108e9611b02565b6040518080602001828103825283818151815260200191508051906020019080838360005b8381101561092957808201518184015260208101905061090e565b50505050905090810190601f1680156109565780820380516001836020036101000a031916815260200191505b509250505060405180910390f35b6109b36004803603604081101561097a57600080fd5b81019080803573ffffffffffffffffffffffffffffffffffffffff169060200190929190803560ff169060200190929190505050611ba4565b005b6109bd611c93565b604051808260ff1660ff16815260200191505060405180910390f35b610a27600480360360408110156109ef57600080fd5b81019080803573ffffffffffffffffffffffffffffffffffffffff169060200190929190803515159060200190929190505050611c98565b005b610b2c60048036036080811015610a3f57600080fd5b81019080803573ffffffffffffffffffffffffffffffffffffffff169060200190929190803573ffffffffffffffffffffffffffffffffffffffff1690602001909291908035906020019092919080359060200190640100000000811115610aa657600080fd5b820183602082011115610ab857600080fd5b80359060200191846001830284011164010000000083111715610ada57600080fd5b91908080601f016020809104026020016040519081016040528093929190818152602001838380828437600081840152601f19601f820116905080830192505050505050509192919290505050611e50565b005b610b5a60048036036020811015610b4457600080fd5b8101908080359060200190929190505050611ec8565b6040518080602001828103825283818151815260200191508051906020019080838360005b83811015610b9a578082015181840152602081019050610b7f565b50505050905090810190601f168015610bc75780820380516001836020036101000a031916815260200191505b509250505060405180910390f35b610c3760048036036040811015610beb57600080fd5b81019080803573ffffffffffffffffffffffffffffffffffffffff169060200190929190803573ffffffffffffffffffffffffffffffffffffffff169060200190929190505050611fdb565b604051808215151515815260200191505060405180910390f35b610c5961206f565b604051808260ff1660ff16815260200191505060405180910390f35b6000806000837bffffffffffffffffffffffffffffffffffffffffffffffffffffffff19167bffffffffffffffffffffffffffffffffffffffffffffffffffffffff1916815260200190815260200160002060009054906101000a900460ff169050919050565b606060098054600181600116156101000203166002900480601f016020809104026020016040519081016040528092919081815260200182805460018160011615610100020316600290048015610d745780601f10610d4957610100808354040283529160200191610d74565b820191906000526020600020905b815481529060010190602001808311610d5757829003601f168201915b5050505050905090565b6000610d8982612074565b610dde576040517f08c379a000000000000000000000000000000000000000000000000000000000815260040180806020018281038252602c8152602001806133dc602c913960400191505060405180910390fd5b6002600083815260200190815260200160002060009054906101000a900473ffffffffffffffffffffffffffffffffffffffff169050919050565b6000610e2482611718565b90508073ffffffffffffffffffffffffffffffffffffffff168373ffffffffffffffffffffffffffffffffffffffff161415610eab576040517f08c379a00000000000000000000000000000000000000000000000000000000081526004018080602001828103825260218152602001806134826021913960400191505060405180910390fd5b8073ffffffffffffffffffffffffffffffffffffffff16610eca6120e6565b73ffffffffffffffffffffffffffffffffffffffff161480610ef95750610ef881610ef36120e6565b611fdb565b5b610f4e576040517f08c379a00000000000000000000000000000000000000000000000000000000081526004018080602001828103825260388152602001806133306038913960400191505060405180910390fd5b826002600084815260200190815260200160002060006101000a81548173ffffffffffffffffffffffffffffffffffffffff021916908373ffffffffffffffffffffffffffffffffffffffff160217905550818373ffffffffffffffffffffffffffffffffffffffff168273ffffffffffffffffffffffffffffffffffffffff167f8c5be1e5ebec7d5bd14f71427d1e84f3dd0314c0f7b2291e5b200ac8c7c3b92560405160405180910390a4505050565b6000600780549050905090565b61101e6110186120e6565b826120ee565b611073576040517f08c379a00000000000000000000000000000000000000000000000000000000081526004018080602001828103825260318152602001806134a36031913960400191505060405180910390fd5b61107e8383836121e2565b505050565b600061108e836117f2565b82106110e5576040517f08c379a000000000000000000000000000000000000000000000000000000000815260040180806020018281038252602b815260200180613253602b913960400191505060405180910390fd5b600560008473ffffffffffffffffffffffffffffffffffffffff1673ffffffffffffffffffffffffffffffffffffffff168152602001908152602001600020828154811061112f57fe5b9060005260206000200154905092915050565b61115261114d6120e6565b611533565b6111a7576040517f08c379a00000000000000000000000000000000000000000000000000000000081526004018080602001828103825260308152602001806132b06030913960400191505060405180910390fd5b600f60009054906101000a900460ff16611229576040517f08c379a00000000000000000000000000000000000000000000000000000000081526004018080602001828103825260148152602001807f5061757361626c653a206e6f742070617573656400000000000000000000000081525060200191505060405180910390fd5b6000600f60006101000a81548160ff0219169083151502179055507f5db9ee0a495bf2e6ff9c91a7834c1ba4fdd244a5e8aa4e537bd38aeae4b073aa61126d6120e6565b604051808273ffffffffffffffffffffffffffffffffffffffff1673ffffffffffffffffffffffffffffffffffffffff16815260200191505060405180910390a1565b600c60009054906101000a900473ffffffffffffffffffffffffffffffffffffffff1673ffffffffffffffffffffffffffffffffffffffff163373ffffffffffffffffffffffffffffffffffffffff1614806113135750611312336001611acd565b5b806113255750611324336002611acd565b5b61132e57600080fd5b6013600082815260200190815260200160002060009054906101000a900460ff161561135957600080fd5b61136582601154612206565b60016013600083815260200190815260200160002060006101000a81548160ff02191690831515021790555060128190806001815401808255809150509060018203906000526020600020016000909192909190915055508173ffffffffffffffffffffffffffffffffffffffff16816011547f259eb7b480b3d449f506927269e4665c83c69e4cd797143eaa8f84632dc7a02b60405160405180910390a461141a600160115461222790919063ffffffff16565b6011819055505050565b61143f83838360405180602001604052806000815250611e50565b505050565b600c60009054906101000a900473ffffffffffffffffffffffffffffffffffffffff1673ffffffffffffffffffffffffffffffffffffffff163373ffffffffffffffffffffffffffffffffffffffff1614806114a757506114a6336001611acd565b5b6114b057600080fd5b6114db82600d60008460ff1660ff1681526020019081526020016000206122af90919063ffffffff16565b8173ffffffffffffffffffffffffffffffffffffffff167f0ed8a6a6a166243876472f7a8610b62c1a76c67911642d39ff34ead38105534f82604051808260ff1660ff16815260200191505060405180910390a25050565b600061154982600e61238a90919063ffffffff16565b9050919050565b600181565b600061155f611000565b82106115b6576040517f08c379a000000000000000000000000000000000000000000000000000000000815260040180806020018281038252602c8152602001806134d4602c913960400191505060405180910390fd5b600782815481106115c357fe5b90600052602060002001549050919050565b6060600c60009054906101000a900473ffffffffffffffffffffffffffffffffffffffff1673ffffffffffffffffffffffffffffffffffffffff163373ffffffffffffffffffffffffffffffffffffffff16148061163a5750611639336001611acd565b5b61164357600080fd5b600073ffffffffffffffffffffffffffffffffffffffff168273ffffffffffffffffffffffffffffffffffffffff16141561167d57600080fd5b6116a8600c60009054906101000a900473ffffffffffffffffffffffffffffffffffffffff16612468565b8054806020026020016040519081016040528092919081815260200182805480156116f257602002820191906000526020600020905b8154815260200190600101908083116116de575b50505050509050809050919050565b6000600f60009054906101000a900460ff16905090565b6000806001600084815260200190815260200160002060009054906101000a900473ffffffffffffffffffffffffffffffffffffffff169050600073ffffffffffffffffffffffffffffffffffffffff168173ffffffffffffffffffffffffffffffffffffffff1614156117d7576040517f08c379a00000000000000000000000000000000000000000000000000000000081526004018080602001828103825260298152602001806133926029913960400191505060405180910390fd5b80915050919050565b6117f06117eb6120e6565b6124b0565b565b60008073ffffffffffffffffffffffffffffffffffffffff168273ffffffffffffffffffffffffffffffffffffffff161415611879576040517f08c379a000000000000000000000000000000000000000000000000000000000815260040180806020018281038252602a815260200180613368602a913960400191505060405180910390fd5b6118c0600360008473ffffffffffffffffffffffffffffffffffffffff1673ffffffffffffffffffffffffffffffffffffffff16815260200190815260200160002061250a565b9050919050565b6118d76118d26120e6565b611533565b61192c576040517f08c379a00000000000000000000000000000000000000000000000000000000081526004018080602001828103825260308152602001806132b06030913960400191505060405180910390fd5b61193581612518565b50565b6119486119436120e6565b611533565b61199d576040517f08c379a00000000000000000000000000000000000000000000000000000000081526004018080602001828103825260308152602001806132b06030913960400191505060405180910390fd5b600f60009054906101000a900460ff1615611a20576040517f08c379a00000000000000000000000000000000000000000000000000000000081526004018080602001828103825260108152602001807f5061757361626c653a207061757365640000000000000000000000000000000081525060200191505060405180910390fd5b6001600f60006101000a81548160ff0219169083151502179055507f62e78cea01bee320cd4e420270b5ea74000d11b0c9f74754ebdbfc544b05a258611a646120e6565b604051808273ffffffffffffffffffffffffffffffffffffffff1673ffffffffffffffffffffffffffffffffffffffff16815260200191505060405180910390a1565b600c60009054906101000a900473ffffffffffffffffffffffffffffffffffffffff1681565b6000611afa83600d60008560ff1660ff16815260200190815260200160002061238a90919063ffffffff16565b905092915050565b6060600a8054600181600116156101000203166002900480601f016020809104026020016040519081016040528092919081815260200182805460018160011615610100020316600290048015611b9a5780601f10611b6f57610100808354040283529160200191611b9a565b820191906000526020600020905b815481529060010190602001808311611b7d57829003601f168201915b5050505050905090565b600c60009054906101000a900473ffffffffffffffffffffffffffffffffffffffff1673ffffffffffffffffffffffffffffffffffffffff163373ffffffffffffffffffffffffffffffffffffffff161480611c075750611c06336001611acd565b5b611c1057600080fd5b611c3b82600d60008460ff1660ff16815260200190815260200160002061257290919063ffffffff16565b8173ffffffffffffffffffffffffffffffffffffffff167f3824b64a1e23d936b458f4e31445c664d2bc9c14e842407917cbc100b0236a2f82604051808260ff1660ff16815260200191505060405180910390a25050565b600281565b611ca06120e6565b73ffffffffffffffffffffffffffffffffffffffff168273ffffffffffffffffffffffffffffffffffffffff161415611d41576040517f08c379a00000000000000000000000000000000000000000000000000000000081526004018080602001828103825260198152602001807f4552433732313a20617070726f766520746f2063616c6c65720000000000000081525060200191505060405180910390fd5b8060046000611d4e6120e6565b73ffffffffffffffffffffffffffffffffffffffff1673ffffffffffffffffffffffffffffffffffffffff16815260200190815260200160002060008473ffffffffffffffffffffffffffffffffffffffff1673ffffffffffffffffffffffffffffffffffffffff16815260200190815260200160002060006101000a81548160ff0219169083151502179055508173ffffffffffffffffffffffffffffffffffffffff16611dfb6120e6565b73ffffffffffffffffffffffffffffffffffffffff167f17307eab39ab6107e8899845ad3d59bd9653f200f220920489ca2b5937696c3183604051808215151515815260200191505060405180910390a35050565b611e61611e5b6120e6565b836120ee565b611eb6576040517f08c379a00000000000000000000000000000000000000000000000000000000081526004018080602001828103825260318152602001806134a36031913960400191505060405180910390fd5b611ec28484848461262f565b50505050565b6060611ed382612074565b611f28576040517f08c379a000000000000000000000000000000000000000000000000000000000815260040180806020018281038252602f815260200180613453602f913960400191505060405180910390fd5b600b60008381526020019081526020016000208054600181600116156101000203166002900480601f016020809104026020016040519081016040528092919081815260200182805460018160011615610100020316600290048015611fcf5780601f10611fa457610100808354040283529160200191611fcf565b820191906000526020600020905b815481529060010190602001808311611fb257829003601f168201915b50505050509050919050565b6000600460008473ffffffffffffffffffffffffffffffffffffffff1673ffffffffffffffffffffffffffffffffffffffff16815260200190815260200160002060008373ffffffffffffffffffffffffffffffffffffffff1673ffffffffffffffffffffffffffffffffffffffff16815260200190815260200160002060009054906101000a900460ff16905092915050565b600381565b6000806001600084815260200190815260200160002060009054906101000a900473ffffffffffffffffffffffffffffffffffffffff169050600073ffffffffffffffffffffffffffffffffffffffff168173ffffffffffffffffffffffffffffffffffffffff161415915050919050565b600033905090565b60006120f982612074565b61214e576040517f08c379a000000000000000000000000000000000000000000000000000000000815260040180806020018281038252602c815260200180613304602c913960400191505060405180910390fd5b600061215983611718565b90508073ffffffffffffffffffffffffffffffffffffffff168473ffffffffffffffffffffffffffffffffffffffff1614806121c857508373ffffffffffffffffffffffffffffffffffffffff166121b084610d7e565b73ffffffffffffffffffffffffffffffffffffffff16145b806121d957506121d88185611fdb565b5b91505092915050565b6121ed8383836126a1565b6121f783826128fc565b6122018282612a9a565b505050565b6122108282612b61565b61221a8282612a9a565b61222381612d79565b5050565b6000808284019050838110156122a5576040517f08c379a000000000000000000000000000000000000000000000000000000000815260040180806020018281038252601b8152602001807f536166654d6174683a206164646974696f6e206f766572666c6f77000000000081525060200191505060405180910390fd5b8091505092915050565b6122b9828261238a565b1561232c576040517f08c379a000000000000000000000000000000000000000000000000000000000815260040180806020018281038252601f8152602001807f526f6c65733a206163636f756e7420616c72656164792068617320726f6c650081525060200191505060405180910390fd5b60018260000160008373ffffffffffffffffffffffffffffffffffffffff1673ffffffffffffffffffffffffffffffffffffffff16815260200190815260200160002060006101000a81548160ff0219169083151502179055505050565b60008073ffffffffffffffffffffffffffffffffffffffff168273ffffffffffffffffffffffffffffffffffffffff161415612411576040517f08c379a00000000000000000000000000000000000000000000000000000000081526004018080602001828103825260228152602001806134086022913960400191505060405180910390fd5b8260000160008373ffffffffffffffffffffffffffffffffffffffff1673ffffffffffffffffffffffffffffffffffffffff16815260200190815260200160002060009054906101000a900460ff16905092915050565b6000600560008373ffffffffffffffffffffffffffffffffffffffff1673ffffffffffffffffffffffffffffffffffffffff1681526020019081526020016000209050919050565b6124c481600e61257290919063ffffffff16565b8073ffffffffffffffffffffffffffffffffffffffff167fcd265ebaf09df2871cc7bd4133404a235ba12eff2041bb89d9c714a2621c7c7e60405160405180910390a250565b600081600001549050919050565b61252c81600e6122af90919063ffffffff16565b8073ffffffffffffffffffffffffffffffffffffffff167f6719d08c1888103bea251a4ed56406bd0c3e69723c8a1686e017e7bbe159b6f860405160405180910390a250565b61257c828261238a565b6125d1576040517f08c379a00000000000000000000000000000000000000000000000000000000081526004018080602001828103825260218152602001806133bb6021913960400191505060405180910390fd5b60008260000160008373ffffffffffffffffffffffffffffffffffffffff1673ffffffffffffffffffffffffffffffffffffffff16815260200190815260200160002060006101000a81548160ff0219169083151502179055505050565b61263a8484846121e2565b61264684848484612dc5565b61269b576040517f08c379a000000000000000000000000000000000000000000000000000000000815260040180806020018281038252603281526020018061327e6032913960400191505060405180910390fd5b50505050565b8273ffffffffffffffffffffffffffffffffffffffff166126c182611718565b73ffffffffffffffffffffffffffffffffffffffff161461272d576040517f08c379a000000000000000000000000000000000000000000000000000000000815260040180806020018281038252602981526020018061342a6029913960400191505060405180910390fd5b600073ffffffffffffffffffffffffffffffffffffffff168273ffffffffffffffffffffffffffffffffffffffff1614156127b3576040517f08c379a00000000000000000000000000000000000000000000000000000000081526004018080602001828103825260248152602001806132e06024913960400191505060405180910390fd5b6127bc81612fb5565b612803600360008573ffffffffffffffffffffffffffffffffffffffff1673ffffffffffffffffffffffffffffffffffffffff168152602001908152602001600020613073565b61284a600360008473ffffffffffffffffffffffffffffffffffffffff1673ffffffffffffffffffffffffffffffffffffffff168152602001908152602001600020613096565b816001600083815260200190815260200160002060006101000a81548173ffffffffffffffffffffffffffffffffffffffff021916908373ffffffffffffffffffffffffffffffffffffffff160217905550808273ffffffffffffffffffffffffffffffffffffffff168473ffffffffffffffffffffffffffffffffffffffff167fddf252ad1be2c89b69c2b068fc378daa952ba7f163c4a11628f55a4df523b3ef60405160405180910390a4505050565b60006129546001600560008673ffffffffffffffffffffffffffffffffffffffff1673ffffffffffffffffffffffffffffffffffffffff168152602001908152602001600020805490506130ac90919063ffffffff16565b9050600060066000848152602001908152602001600020549050818114612a41576000600560008673ffffffffffffffffffffffffffffffffffffffff1673ffffffffffffffffffffffffffffffffffffffff16815260200190815260200160002083815481106129c157fe5b9060005260206000200154905080600560008773ffffffffffffffffffffffffffffffffffffffff1673ffffffffffffffffffffffffffffffffffffffff1681526020019081526020016000208381548110612a1957fe5b9060005260206000200181905550816006600083815260200190815260200160002081905550505b600560008573ffffffffffffffffffffffffffffffffffffffff1673ffffffffffffffffffffffffffffffffffffffff168152602001908152602001600020805480919060019003612a939190613201565b5050505050565b600560008373ffffffffffffffffffffffffffffffffffffffff1673ffffffffffffffffffffffffffffffffffffffff168152602001908152602001600020805490506006600083815260200190815260200160002081905550600560008373ffffffffffffffffffffffffffffffffffffffff1673ffffffffffffffffffffffffffffffffffffffff1681526020019081526020016000208190806001815401808255809150509060018203906000526020600020016000909192909190915055505050565b600073ffffffffffffffffffffffffffffffffffffffff168273ffffffffffffffffffffffffffffffffffffffff161415612c04576040517f08c379a00000000000000000000000000000000000000000000000000000000081526004018080602001828103825260208152602001807f4552433732313a206d696e7420746f20746865207a65726f206164647265737381525060200191505060405180910390fd5b612c0d81612074565b15612c80576040517f08c379a000000000000000000000000000000000000000000000000000000000815260040180806020018281038252601c8152602001807f4552433732313a20746f6b656e20616c7265616479206d696e7465640000000081525060200191505060405180910390fd5b816001600083815260200190815260200160002060006101000a81548173ffffffffffffffffffffffffffffffffffffffff021916908373ffffffffffffffffffffffffffffffffffffffff160217905550612d19600360008473ffffffffffffffffffffffffffffffffffffffff1673ffffffffffffffffffffffffffffffffffffffff168152602001908152602001600020613096565b808273ffffffffffffffffffffffffffffffffffffffff16600073ffffffffffffffffffffffffffffffffffffffff167fddf252ad1be2c89b69c2b068fc378daa952ba7f163c4a11628f55a4df523b3ef60405160405180910390a45050565b6007805490506008600083815260200190815260200160002081905550600781908060018154018082558091505090600182039060005260206000200160009091929091909150555050565b6000612de68473ffffffffffffffffffffffffffffffffffffffff166130f6565b612df35760019050612fad565b60008473ffffffffffffffffffffffffffffffffffffffff1663150b7a02612e196120e6565b8887876040518563ffffffff1660e01b8152600401808573ffffffffffffffffffffffffffffffffffffffff1673ffffffffffffffffffffffffffffffffffffffff1681526020018473ffffffffffffffffffffffffffffffffffffffff1673ffffffffffffffffffffffffffffffffffffffff16815260200183815260200180602001828103825283818151815260200191508051906020019080838360005b83811015612ed5578082015181840152602081019050612eba565b50505050905090810190601f168015612f025780820380516001836020036101000a031916815260200191505b5095505050505050602060405180830381600087803b158015612f2457600080fd5b505af1158015612f38573d6000803e3d6000fd5b505050506040513d6020811015612f4e57600080fd5b8101908080519060200190929190505050905063150b7a0260e01b7bffffffffffffffffffffffffffffffffffffffffffffffffffffffff1916817bffffffffffffffffffffffffffffffffffffffffffffffffffffffff1916149150505b949350505050565b600073ffffffffffffffffffffffffffffffffffffffff166002600083815260200190815260200160002060009054906101000a900473ffffffffffffffffffffffffffffffffffffffff1673ffffffffffffffffffffffffffffffffffffffff16146130705760006002600083815260200190815260200160002060006101000a81548173ffffffffffffffffffffffffffffffffffffffff021916908373ffffffffffffffffffffffffffffffffffffffff1602179055505b50565b61308b600182600001546130ac90919063ffffffff16565b816000018190555050565b6001816000016000828254019250508190555050565b60006130ee83836040518060400160405280601e81526020017f536166654d6174683a207375627472616374696f6e206f766572666c6f770000815250613141565b905092915050565b60008060007fc5d2460186f7233c927e7db2dcc703c0e500b653ca82273b7bfad8045d85a47060001b9050833f91506000801b82141580156131385750808214155b92505050919050565b60008383111582906131ee576040517f08c379a00000000000000000000000000000000000000000000000000000000081526004018080602001828103825283818151815260200191508051906020019080838360005b838110156131b3578082015181840152602081019050613198565b50505050905090810190601f1680156131e05780820380516001836020036101000a031916815260200191505b509250505060405180910390fd5b5060008385039050809150509392505050565b81548183558181111561322857818360005260206000209182019101613227919061322d565b5b505050565b61324f91905b8082111561324b576000816000905550600101613233565b5090565b9056fe455243373231456e756d657261626c653a206f776e657220696e646578206f7574206f6620626f756e64734552433732313a207472616e7366657220746f206e6f6e20455243373231526563656976657220696d706c656d656e746572506175736572526f6c653a2063616c6c657220646f6573206e6f742068617665207468652050617573657220726f6c654552433732313a207472616e7366657220746f20746865207a65726f20616464726573734552433732313a206f70657261746f7220717565727920666f72206e6f6e6578697374656e7420746f6b656e4552433732313a20617070726f76652063616c6c6572206973206e6f74206f776e6572206e6f7220617070726f76656420666f7220616c6c4552433732313a2062616c616e636520717565727920666f7220746865207a65726f20616464726573734552433732313a206f776e657220717565727920666f72206e6f6e6578697374656e7420746f6b656e526f6c65733a206163636f756e7420646f6573206e6f74206861766520726f6c654552433732313a20617070726f76656420717565727920666f72206e6f6e6578697374656e7420746f6b656e526f6c65733a206163636f756e7420697320746865207a65726f20616464726573734552433732313a207472616e73666572206f6620746f6b656e2074686174206973206e6f74206f776e4552433732314d657461646174613a2055524920717565727920666f72206e6f6e6578697374656e7420746f6b656e4552433732313a20617070726f76616c20746f2063757272656e74206f776e65724552433732313a207472616e736665722063616c6c6572206973206e6f74206f776e6572206e6f7220617070726f766564455243373231456e756d657261626c653a20676c6f62616c20696e646578206f7574206f6620626f756e6473a265627a7a72315820c03d210b7e57238666830243934dec8e65e83a80e5ca2d35b8adf60cb2d10bb664736f6c634300050c0032526f6c65733a206163636f756e7420697320746865207a65726f2061646472657373",
  "source": "pragma solidity 0.5.12;\n\n// allows for multi-address access controls to different functions\nimport \"./AccessControl.sol\";\n\n// Prevents stuck ether\n//import \"openzeppelin-solidity/contracts/ownership/HasNoEther.sol\";\n\n// For safe maths operations\nimport \"openzeppelin-solidity/contracts/math/SafeMath.sol\";\n\n// Pause purchasing only in case of emergency/migration\nimport \"openzeppelin-solidity/contracts/lifecycle/Pausable.sol\";\n\n// ERC721\nimport \"openzeppelin-solidity/contracts/token/ERC721/ERC721Full.sol\";\n\n// Utils only\nimport \"./Strings.sol\";\nimport \"openzeppelin-solidity/contracts/drafts/Counters.sol\";\nimport \"openzeppelin-solidity/contracts/utils/Address.sol\";\n\n/**\n * @title CF-V1\n * @author IskanderAndrews\n * Creature - a contract for CF NFTs.\n */\n\ncontract CryptoFaces is ERC721Full, AccessControl, Pausable {\n    using SafeMath for uint256;\n    using Address for address;\n    using Counters for uint256;\n\n    /*\n     * Properties\n     */\n    string internal tokenBaseURI = \"https://ipfs.infura.io/ipfs/\";\n\n    // To begin from index 100001\n    uint256 private tokenId = 100001;\n\n    // All tokens of owner\n    uint256[] facesURI;\n\n    // Faces Exits\n    mapping(uint256 => bool) faceExists;\n\n    /*\n     * Events\n     */\n\n    // Emitted on every mint\n    event Minted(\n        uint256 indexed _tokenId,\n        uint256 indexed _tokenURI,\n        address indexed _buyer\n    );\n\n    /*\n     * Modifiers\n     */\n\n    /*\n     * Constructor\n     */\n    constructor() public payable ERC721Full(\"CryptoFaces\", \"CF\") {\n\n    }\n\n\n\n    /**\n     * @dev Gets the list of token IDs of the requested owner, inherited from ERC721 Enumerable\n     * @param _owner address owning the tokens\n     * @return uint256[] List of token IDs owned by the requested address\n     */\n    function tokensOf(address _owner) public onlyIfCryptoFaces view returns (uint256[] memory _tokenIds) {\n        require(_owner != address(0));\n\n        _tokenIds = super._tokensOfOwner(owner);\n\n        return _tokenIds;\n    }\n\n    /**\n     * @dev Internal function to mint a new token.\n     * @dev Private (CF Artists only)\n     * @dev Payment not needed for this method\n     * Reverts if the given token ID already exists, and if the face already exists\n     * @param _tokenURI The Face Hash the will be minted with the token\n     */\n    function mint(address _to ,uint256 _tokenURI) public onlyIfCryptoFacesArtists {\n        require(!faceExists[_tokenURI]);\n\n        super._mint(_to, tokenId);\n        //super._setTokenURI(tokenId, _tokenURI);\n\n        faceExists[_tokenURI] = true;\n        facesURI.push(_tokenURI);\n\n        emit Minted(tokenId, _tokenURI, _to);\n\n        tokenId = tokenId.add(1);\n    }\n}\n",
  "sourcePath": "/home/iskander/Projects/cryptofaces/contracts/CryptoFaces.sol",
  "compiler": {
    "name": "solc",
    "version": "0.5.12+commit.7709ece9.Emscripten.clang"
  },
  "schemaVersion": "3.0.20",
  "updatedAt": "2020-01-31T17:46:29.159Z",
  "networkType": "ethereum",
  "devdoc": {
    "author": "IskanderAndrews Creature - a contract for CF NFTs.",
    "methods": {
      "approve(address,uint256)": {
        "details": "Approves another address to transfer the given token ID The zero address indicates there is no approved address. There can only be one approved address per token at a given time. Can only be called by the token owner or an approved operator.",
        "params": {
          "to": "address to be approved for the given token ID",
          "tokenId": "uint256 ID of the token to be approved"
        }
      },
      "balanceOf(address)": {
        "details": "Gets the balance of the specified address.",
        "params": {
          "owner": "address to query the balance of"
        },
        "return": "uint256 representing the amount owned by the passed address"
      },
      "getApproved(uint256)": {
        "details": "Gets the approved address for a token ID, or zero if no address set Reverts if the token ID does not exist.",
        "params": {
          "tokenId": "uint256 ID of the token to query the approval of"
        },
        "return": "address currently approved for the given token ID"
      },
      "isApprovedForAll(address,address)": {
        "details": "Tells whether an operator is approved by a given owner.",
        "params": {
          "operator": "operator address which you want to query the approval of",
          "owner": "owner address which you want to query the approval of"
        },
        "return": "bool whether the given operator is approved by the given owner"
      },
      "mint(address,uint256)": {
        "details": "Internal function to mint a new token.Private (CF Artists only)Payment not needed for this method Reverts if the given token ID already exists, and if the face already exists",
        "params": {
          "_tokenURI": "The Face Hash the will be minted with the token"
        }
      },
      "name()": {
        "details": "Gets the token name.",
        "return": "string representing the token name"
      },
      "ownerOf(uint256)": {
        "details": "Gets the owner of the specified token ID.",
        "params": {
          "tokenId": "uint256 ID of the token to query the owner of"
        },
        "return": "address currently marked as the owner of the given token ID"
      },
      "pause()": {
        "details": "Called by a pauser to pause, triggers stopped state."
      },
      "paused()": {
        "details": "Returns true if the contract is paused, and false otherwise."
      },
      "safeTransferFrom(address,address,uint256)": {
        "details": "Safely transfers the ownership of a given token ID to another address If the target address is a contract, it must implement {IERC721Receiver-onERC721Received}, which is called upon a safe transfer, and return the magic value `bytes4(keccak256(\"onERC721Received(address,address,uint256,bytes)\"))`; otherwise, the transfer is reverted. Requires the msg.sender to be the owner, approved, or operator",
        "params": {
          "from": "current owner of the token",
          "to": "address to receive the ownership of the given token ID",
          "tokenId": "uint256 ID of the token to be transferred"
        }
      },
      "safeTransferFrom(address,address,uint256,bytes)": {
        "details": "Safely transfers the ownership of a given token ID to another address If the target address is a contract, it must implement {IERC721Receiver-onERC721Received}, which is called upon a safe transfer, and return the magic value `bytes4(keccak256(\"onERC721Received(address,address,uint256,bytes)\"))`; otherwise, the transfer is reverted. Requires the _msgSender() to be the owner, approved, or operator",
        "params": {
          "_data": "bytes data to send along with a safe transfer check",
          "from": "current owner of the token",
          "to": "address to receive the ownership of the given token ID",
          "tokenId": "uint256 ID of the token to be transferred"
        }
      },
      "setApprovalForAll(address,bool)": {
        "details": "Sets or unsets the approval of a given operator An operator is allowed to transfer all tokens of the sender on their behalf.",
        "params": {
          "approved": "representing the status of the approval to be set",
          "to": "operator address to set the approval"
        }
      },
      "supportsInterface(bytes4)": {
        "details": "See {IERC165-supportsInterface}.     * Time complexity O(1), guaranteed to always use less than 30 000 gas."
      },
      "symbol()": {
        "details": "Gets the token symbol.",
        "return": "string representing the token symbol"
      },
      "tokenByIndex(uint256)": {
        "details": "Gets the token ID at a given index of all the tokens in this contract Reverts if the index is greater or equal to the total number of tokens.",
        "params": {
          "index": "uint256 representing the index to be accessed of the tokens list"
        },
        "return": "uint256 token ID at the given index of the tokens list"
      },
      "tokenOfOwnerByIndex(address,uint256)": {
        "details": "Gets the token ID at a given index of the tokens list of the requested owner.",
        "params": {
          "index": "uint256 representing the index to be accessed of the requested tokens list",
          "owner": "address owning the tokens list to be accessed"
        },
        "return": "uint256 token ID at the given index of the tokens list owned by the requested address"
      },
      "tokenURI(uint256)": {
        "details": "Returns an URI for a given token ID. Throws if the token ID does not exist. May return an empty string.",
        "params": {
          "tokenId": "uint256 ID of the token to query"
        }
      },
      "tokensOf(address)": {
        "details": "Gets the list of token IDs of the requested owner, inherited from ERC721 Enumerable",
        "params": {
          "_owner": "address owning the tokens"
        },
        "return": "uint256[] List of token IDs owned by the requested address"
      },
      "totalSupply()": {
        "details": "Gets the total amount of tokens stored by the contract.",
        "return": "uint256 representing the total amount of tokens"
      },
      "transferFrom(address,address,uint256)": {
        "details": "Transfers the ownership of a given token ID to another address. Usage of this method is discouraged, use {safeTransferFrom} whenever possible. Requires the msg.sender to be the owner, approved, or operator.",
        "params": {
          "from": "current owner of the token",
          "to": "address to receive the ownership of the given token ID",
          "tokenId": "uint256 ID of the token to be transferred"
        }
      },
      "unpause()": {
        "details": "Called by a pauser to unpause, returns to normal state."
      }
    },
    "title": "CF-V1"
  },
  "userdoc": {
    "methods": {
      "addAddressToAccessControl(address,uint8)": {
        "notice": "/////////////////////////////////"
      }
    }
  }
}