{
  "contractName": "CryptoFaces",
  "abi": [
    {
      "inputs": [],
      "payable": true,
      "stateMutability": "payable",
      "type": "constructor"
    },
    {
      "anonymous": false,
      "inputs": [
        {
          "indexed": true,
          "internalType": "address",
          "name": "owner",
          "type": "address"
        },
        {
          "indexed": true,
          "internalType": "address",
          "name": "approved",
          "type": "address"
        },
        {
          "indexed": true,
          "internalType": "uint256",
          "name": "tokenId",
          "type": "uint256"
        }
      ],
      "name": "Approval",
      "type": "event"
    },
    {
      "anonymous": false,
      "inputs": [
        {
          "indexed": true,
          "internalType": "address",
          "name": "owner",
          "type": "address"
        },
        {
          "indexed": true,
          "internalType": "address",
          "name": "operator",
          "type": "address"
        },
        {
          "indexed": false,
          "internalType": "bool",
          "name": "approved",
          "type": "bool"
        }
      ],
      "name": "ApprovalForAll",
      "type": "event"
    },
    {
      "anonymous": false,
      "inputs": [
        {
          "indexed": true,
          "internalType": "address",
          "name": "account",
          "type": "address"
        }
      ],
      "name": "MinterAdded",
      "type": "event"
    },
    {
      "anonymous": false,
      "inputs": [
        {
          "indexed": true,
          "internalType": "address",
          "name": "account",
          "type": "address"
        }
      ],
      "name": "MinterRemoved",
      "type": "event"
    },
    {
      "anonymous": false,
      "inputs": [
        {
          "indexed": false,
          "internalType": "address",
          "name": "account",
          "type": "address"
        }
      ],
      "name": "Paused",
      "type": "event"
    },
    {
      "anonymous": false,
      "inputs": [
        {
          "indexed": true,
          "internalType": "address",
          "name": "account",
          "type": "address"
        }
      ],
      "name": "PauserAdded",
      "type": "event"
    },
    {
      "anonymous": false,
      "inputs": [
        {
          "indexed": true,
          "internalType": "address",
          "name": "account",
          "type": "address"
        }
      ],
      "name": "PauserRemoved",
      "type": "event"
    },
    {
      "anonymous": false,
      "inputs": [
        {
          "indexed": true,
          "internalType": "uint256",
          "name": "_tokenId",
          "type": "uint256"
        },
        {
          "indexed": true,
          "internalType": "address",
          "name": "_buyer",
          "type": "address"
        },
        {
          "indexed": true,
          "internalType": "uint256",
          "name": "_priceInWei",
          "type": "uint256"
        }
      ],
      "name": "Purchase",
      "type": "event"
    },
    {
      "anonymous": false,
      "inputs": [
        {
          "indexed": true,
          "internalType": "address",
          "name": "operator",
          "type": "address"
        },
        {
          "indexed": false,
          "internalType": "uint8",
          "name": "role",
          "type": "uint8"
        }
      ],
      "name": "RoleAdded",
      "type": "event"
    },
    {
      "anonymous": false,
      "inputs": [
        {
          "indexed": true,
          "internalType": "address",
          "name": "operator",
          "type": "address"
        },
        {
          "indexed": false,
          "internalType": "uint8",
          "name": "role",
          "type": "uint8"
        }
      ],
      "name": "RoleRemoved",
      "type": "event"
    },
    {
      "anonymous": false,
      "inputs": [
        {
          "indexed": true,
          "internalType": "address",
          "name": "from",
          "type": "address"
        },
        {
          "indexed": true,
          "internalType": "address",
          "name": "to",
          "type": "address"
        },
        {
          "indexed": true,
          "internalType": "uint256",
          "name": "tokenId",
          "type": "uint256"
        }
      ],
      "name": "Transfer",
      "type": "event"
    },
    {
      "anonymous": false,
      "inputs": [
        {
          "indexed": false,
          "internalType": "address",
          "name": "account",
          "type": "address"
        }
      ],
      "name": "Unpaused",
      "type": "event"
    },
    {
      "constant": true,
      "inputs": [],
      "name": "ROLE_CF_ARTISTS",
      "outputs": [
        {
          "internalType": "uint8",
          "name": "",
          "type": "uint8"
        }
      ],
      "payable": false,
      "stateMutability": "view",
      "type": "function"
    },
    {
      "constant": true,
      "inputs": [],
      "name": "ROLE_CF_OFFER",
      "outputs": [
        {
          "internalType": "uint8",
          "name": "",
          "type": "uint8"
        }
      ],
      "payable": false,
      "stateMutability": "view",
      "type": "function"
    },
    {
      "constant": true,
      "inputs": [],
      "name": "ROLE_CRYPTO_FACES",
      "outputs": [
        {
          "internalType": "uint8",
          "name": "",
          "type": "uint8"
        }
      ],
      "payable": false,
      "stateMutability": "view",
      "type": "function"
    },
    {
      "constant": false,
      "inputs": [
        {
          "internalType": "address",
          "name": "_operator",
          "type": "address"
        },
        {
          "internalType": "uint8",
          "name": "_role",
          "type": "uint8"
        }
      ],
      "name": "addAddressToAccessControl",
      "outputs": [],
      "payable": false,
      "stateMutability": "nonpayable",
      "type": "function"
    },
    {
      "constant": false,
      "inputs": [
        {
          "internalType": "address",
          "name": "account",
          "type": "address"
        }
      ],
      "name": "addMinter",
      "outputs": [],
      "payable": false,
      "stateMutability": "nonpayable",
      "type": "function"
    },
    {
      "constant": false,
      "inputs": [
        {
          "internalType": "address",
          "name": "account",
          "type": "address"
        }
      ],
      "name": "addPauser",
      "outputs": [],
      "payable": false,
      "stateMutability": "nonpayable",
      "type": "function"
    },
    {
      "constant": false,
      "inputs": [
        {
          "internalType": "address",
          "name": "to",
          "type": "address"
        },
        {
          "internalType": "uint256",
          "name": "tokenId",
          "type": "uint256"
        }
      ],
      "name": "approve",
      "outputs": [],
      "payable": false,
      "stateMutability": "nonpayable",
      "type": "function"
    },
    {
      "constant": true,
      "inputs": [
        {
          "internalType": "address",
          "name": "owner",
          "type": "address"
        }
      ],
      "name": "balanceOf",
      "outputs": [
        {
          "internalType": "uint256",
          "name": "",
          "type": "uint256"
        }
      ],
      "payable": false,
      "stateMutability": "view",
      "type": "function"
    },
    {
      "constant": true,
      "inputs": [
        {
          "internalType": "uint256",
          "name": "tokenId",
          "type": "uint256"
        }
      ],
      "name": "getApproved",
      "outputs": [
        {
          "internalType": "address",
          "name": "",
          "type": "address"
        }
      ],
      "payable": false,
      "stateMutability": "view",
      "type": "function"
    },
    {
      "constant": true,
      "inputs": [
        {
          "internalType": "address",
          "name": "_operator",
          "type": "address"
        },
        {
          "internalType": "uint8",
          "name": "_role",
          "type": "uint8"
        }
      ],
      "name": "hasRole",
      "outputs": [
        {
          "internalType": "bool",
          "name": "",
          "type": "bool"
        }
      ],
      "payable": false,
      "stateMutability": "view",
      "type": "function"
    },
    {
      "constant": true,
      "inputs": [
        {
          "internalType": "address",
          "name": "owner",
          "type": "address"
        },
        {
          "internalType": "address",
          "name": "operator",
          "type": "address"
        }
      ],
      "name": "isApprovedForAll",
      "outputs": [
        {
          "internalType": "bool",
          "name": "",
          "type": "bool"
        }
      ],
      "payable": false,
      "stateMutability": "view",
      "type": "function"
    },
    {
      "constant": true,
      "inputs": [
        {
          "internalType": "address",
          "name": "account",
          "type": "address"
        }
      ],
      "name": "isMinter",
      "outputs": [
        {
          "internalType": "bool",
          "name": "",
          "type": "bool"
        }
      ],
      "payable": false,
      "stateMutability": "view",
      "type": "function"
    },
    {
      "constant": true,
      "inputs": [
        {
          "internalType": "address",
          "name": "account",
          "type": "address"
        }
      ],
      "name": "isPauser",
      "outputs": [
        {
          "internalType": "bool",
          "name": "",
          "type": "bool"
        }
      ],
      "payable": false,
      "stateMutability": "view",
      "type": "function"
    },
    {
      "constant": false,
      "inputs": [
        {
          "internalType": "address",
          "name": "to",
          "type": "address"
        },
        {
          "internalType": "uint256",
          "name": "tokenId",
          "type": "uint256"
        },
        {
          "internalType": "string",
          "name": "tokenURI",
          "type": "string"
        }
      ],
      "name": "mintWithTokenURI",
      "outputs": [
        {
          "internalType": "bool",
          "name": "",
          "type": "bool"
        }
      ],
      "payable": false,
      "stateMutability": "nonpayable",
      "type": "function"
    },
    {
      "constant": true,
      "inputs": [],
      "name": "name",
      "outputs": [
        {
          "internalType": "string",
          "name": "",
          "type": "string"
        }
      ],
      "payable": false,
      "stateMutability": "view",
      "type": "function"
    },
    {
      "constant": true,
      "inputs": [],
      "name": "owner",
      "outputs": [
        {
          "internalType": "address",
          "name": "",
          "type": "address"
        }
      ],
      "payable": false,
      "stateMutability": "view",
      "type": "function"
    },
    {
      "constant": true,
      "inputs": [
        {
          "internalType": "uint256",
          "name": "tokenId",
          "type": "uint256"
        }
      ],
      "name": "ownerOf",
      "outputs": [
        {
          "internalType": "address",
          "name": "",
          "type": "address"
        }
      ],
      "payable": false,
      "stateMutability": "view",
      "type": "function"
    },
    {
      "constant": false,
      "inputs": [],
      "name": "pause",
      "outputs": [],
      "payable": false,
      "stateMutability": "nonpayable",
      "type": "function"
    },
    {
      "constant": true,
      "inputs": [],
      "name": "paused",
      "outputs": [
        {
          "internalType": "bool",
          "name": "",
          "type": "bool"
        }
      ],
      "payable": false,
      "stateMutability": "view",
      "type": "function"
    },
    {
      "constant": false,
      "inputs": [
        {
          "internalType": "address",
          "name": "_operator",
          "type": "address"
        },
        {
          "internalType": "uint8",
          "name": "_role",
          "type": "uint8"
        }
      ],
      "name": "removeAddressFromAccessControl",
      "outputs": [],
      "payable": false,
      "stateMutability": "nonpayable",
      "type": "function"
    },
    {
      "constant": false,
      "inputs": [],
      "name": "renounceMinter",
      "outputs": [],
      "payable": false,
      "stateMutability": "nonpayable",
      "type": "function"
    },
    {
      "constant": false,
      "inputs": [],
      "name": "renouncePauser",
      "outputs": [],
      "payable": false,
      "stateMutability": "nonpayable",
      "type": "function"
    },
    {
      "constant": false,
      "inputs": [
        {
          "internalType": "address",
          "name": "from",
          "type": "address"
        },
        {
          "internalType": "address",
          "name": "to",
          "type": "address"
        },
        {
          "internalType": "uint256",
          "name": "tokenId",
          "type": "uint256"
        }
      ],
      "name": "safeTransferFrom",
      "outputs": [],
      "payable": false,
      "stateMutability": "nonpayable",
      "type": "function"
    },
    {
      "constant": false,
      "inputs": [
        {
          "internalType": "address",
          "name": "from",
          "type": "address"
        },
        {
          "internalType": "address",
          "name": "to",
          "type": "address"
        },
        {
          "internalType": "uint256",
          "name": "tokenId",
          "type": "uint256"
        },
        {
          "internalType": "bytes",
          "name": "_data",
          "type": "bytes"
        }
      ],
      "name": "safeTransferFrom",
      "outputs": [],
      "payable": false,
      "stateMutability": "nonpayable",
      "type": "function"
    },
    {
      "constant": false,
      "inputs": [
        {
          "internalType": "address",
          "name": "to",
          "type": "address"
        },
        {
          "internalType": "bool",
          "name": "approved",
          "type": "bool"
        }
      ],
      "name": "setApprovalForAll",
      "outputs": [],
      "payable": false,
      "stateMutability": "nonpayable",
      "type": "function"
    },
    {
      "constant": true,
      "inputs": [
        {
          "internalType": "bytes4",
          "name": "interfaceId",
          "type": "bytes4"
        }
      ],
      "name": "supportsInterface",
      "outputs": [
        {
          "internalType": "bool",
          "name": "",
          "type": "bool"
        }
      ],
      "payable": false,
      "stateMutability": "view",
      "type": "function"
    },
    {
      "constant": true,
      "inputs": [],
      "name": "symbol",
      "outputs": [
        {
          "internalType": "string",
          "name": "",
          "type": "string"
        }
      ],
      "payable": false,
      "stateMutability": "view",
      "type": "function"
    },
    {
      "constant": true,
      "inputs": [
        {
          "internalType": "uint256",
          "name": "index",
          "type": "uint256"
        }
      ],
      "name": "tokenByIndex",
      "outputs": [
        {
          "internalType": "uint256",
          "name": "",
          "type": "uint256"
        }
      ],
      "payable": false,
      "stateMutability": "view",
      "type": "function"
    },
    {
      "constant": true,
      "inputs": [
        {
          "internalType": "address",
          "name": "owner",
          "type": "address"
        },
        {
          "internalType": "uint256",
          "name": "index",
          "type": "uint256"
        }
      ],
      "name": "tokenOfOwnerByIndex",
      "outputs": [
        {
          "internalType": "uint256",
          "name": "",
          "type": "uint256"
        }
      ],
      "payable": false,
      "stateMutability": "view",
      "type": "function"
    },
    {
      "constant": true,
      "inputs": [
        {
          "internalType": "uint256",
          "name": "tokenId",
          "type": "uint256"
        }
      ],
      "name": "tokenURI",
      "outputs": [
        {
          "internalType": "string",
          "name": "",
          "type": "string"
        }
      ],
      "payable": false,
      "stateMutability": "view",
      "type": "function"
    },
    {
      "constant": true,
      "inputs": [],
      "name": "totalPurchaseValueInWei",
      "outputs": [
        {
          "internalType": "uint256",
          "name": "",
          "type": "uint256"
        }
      ],
      "payable": false,
      "stateMutability": "view",
      "type": "function"
    },
    {
      "constant": true,
      "inputs": [],
      "name": "totalSupply",
      "outputs": [
        {
          "internalType": "uint256",
          "name": "",
          "type": "uint256"
        }
      ],
      "payable": false,
      "stateMutability": "view",
      "type": "function"
    },
    {
      "constant": false,
      "inputs": [
        {
          "internalType": "address",
          "name": "from",
          "type": "address"
        },
        {
          "internalType": "address",
          "name": "to",
          "type": "address"
        },
        {
          "internalType": "uint256",
          "name": "tokenId",
          "type": "uint256"
        }
      ],
      "name": "transferFrom",
      "outputs": [],
      "payable": false,
      "stateMutability": "nonpayable",
      "type": "function"
    },
    {
      "constant": false,
      "inputs": [],
      "name": "unpause",
      "outputs": [],
      "payable": false,
      "stateMutability": "nonpayable",
      "type": "function"
    },
    {
      "constant": false,
      "inputs": [
        {
          "internalType": "string",
          "name": "_tokenURI",
          "type": "string"
        },
        {
          "internalType": "uint256",
          "name": "_priceInWei",
          "type": "uint256"
        }
      ],
      "name": "mint",
      "outputs": [],
      "payable": false,
      "stateMutability": "nonpayable",
      "type": "function"
    },
    {
      "constant": false,
      "inputs": [
        {
          "internalType": "address payable",
          "name": "_to",
          "type": "address"
        },
        {
          "internalType": "string",
          "name": "_tokenURI",
          "type": "string"
        },
        {
          "internalType": "uint256",
          "name": "_priceInWei",
          "type": "uint256"
        }
      ],
      "name": "mintTo",
      "outputs": [],
      "payable": false,
      "stateMutability": "nonpayable",
      "type": "function"
    },
    {
      "constant": false,
      "inputs": [
        {
          "internalType": "uint256",
          "name": "_tokenId",
          "type": "uint256"
        }
      ],
      "name": "purchase",
      "outputs": [
        {
          "internalType": "uint256",
          "name": "",
          "type": "uint256"
        }
      ],
      "payable": true,
      "stateMutability": "payable",
      "type": "function"
    },
    {
      "constant": false,
      "inputs": [
        {
          "internalType": "address",
          "name": "_to",
          "type": "address"
        },
        {
          "internalType": "uint256",
          "name": "_tokenId",
          "type": "uint256"
        }
      ],
      "name": "purchaseTo",
      "outputs": [
        {
          "internalType": "uint256",
          "name": "",
          "type": "uint256"
        }
      ],
      "payable": true,
      "stateMutability": "payable",
      "type": "function"
    },
    {
      "constant": true,
      "inputs": [
        {
          "internalType": "uint256",
          "name": "_tokenId",
          "type": "uint256"
        }
      ],
      "name": "exists",
      "outputs": [
        {
          "internalType": "bool",
          "name": "isExist",
          "type": "bool"
        }
      ],
      "payable": false,
      "stateMutability": "view",
      "type": "function"
    },
    {
      "constant": true,
      "inputs": [
        {
          "internalType": "address",
          "name": "_owner",
          "type": "address"
        }
      ],
      "name": "tokensOf",
      "outputs": [
        {
          "internalType": "uint256[]",
          "name": "_tokenIds",
          "type": "uint256[]"
        }
      ],
      "payable": false,
      "stateMutability": "view",
      "type": "function"
    },
    {
      "constant": false,
      "inputs": [
        {
          "internalType": "uint256",
          "name": "_tokenId",
          "type": "uint256"
        }
      ],
      "name": "burn",
      "outputs": [],
      "payable": false,
      "stateMutability": "nonpayable",
      "type": "function"
    }
  ],
  "bytecode": "0x60806040526040518060400160405280601c81526020017f68747470733a2f2f697066732e696e667572612e696f2f697066732f00000000815250601190805190602001906200005192919062000596565b50620186a16012556040518060400160405280600b81526020017f43727970746f46616365730000000000000000000000000000000000000000008152506040518060400160405280600281526020017f43460000000000000000000000000000000000000000000000000000000000008152508181620000df6301ffc9a760e01b620001ff60201b60201c565b620000f76380ac58cd60e01b620001ff60201b60201c565b6200010f63780e9d6360e01b620001ff60201b60201c565b81600990805190602001906200012792919062000596565b5080600a90805190602001906200014092919062000596565b5062000159635b5e139f60e01b620001ff60201b60201c565b505050506200017d620001716200030860201b60201c565b6200031060201b60201c565b33600d60006101000a81548173ffffffffffffffffffffffffffffffffffffffff021916908373ffffffffffffffffffffffffffffffffffffffff160217905550620001de620001d26200030860201b60201c565b6200037160201b60201c565b6000601060006101000a81548160ff02191690831515021790555062000645565b63ffffffff60e01b817bffffffffffffffffffffffffffffffffffffffffffffffffffffffff191614156200029c576040517f08c379a000000000000000000000000000000000000000000000000000000000815260040180806020018281038252601c8152602001807f4552433136353a20696e76616c696420696e746572666163652069640000000081525060200191505060405180910390fd5b6001600080837bffffffffffffffffffffffffffffffffffffffffffffffffffffffff19167bffffffffffffffffffffffffffffffffffffffffffffffffffffffff1916815260200190815260200160002060006101000a81548160ff02191690831515021790555050565b600033905090565b6200032b81600c620003d260201b620031721790919060201c565b8073ffffffffffffffffffffffffffffffffffffffff167f6ae172837ea30b801fbfcdd4108aa1d5bf8ff775444fd70256b44e6bf3dfc3f660405160405180910390a250565b6200038c81600f620003d260201b620031721790919060201c565b8073ffffffffffffffffffffffffffffffffffffffff167f6719d08c1888103bea251a4ed56406bd0c3e69723c8a1686e017e7bbe159b6f860405160405180910390a250565b620003e48282620004b660201b60201c565b1562000458576040517f08c379a000000000000000000000000000000000000000000000000000000000815260040180806020018281038252601f8152602001807f526f6c65733a206163636f756e7420616c72656164792068617320726f6c650081525060200191505060405180910390fd5b60018260000160008373ffffffffffffffffffffffffffffffffffffffff1673ffffffffffffffffffffffffffffffffffffffff16815260200190815260200160002060006101000a81548160ff0219169083151502179055505050565b60008073ffffffffffffffffffffffffffffffffffffffff168273ffffffffffffffffffffffffffffffffffffffff1614156200053f576040517f08c379a000000000000000000000000000000000000000000000000000000000815260040180806020018281038252602281526020018062004ede6022913960400191505060405180910390fd5b8260000160008373ffffffffffffffffffffffffffffffffffffffff1673ffffffffffffffffffffffffffffffffffffffff16815260200190815260200160002060009054906101000a900460ff16905092915050565b828054600181600116156101000203166002900490600052602060002090601f016020900481019282601f10620005d957805160ff19168380011785556200060a565b828001600101855582156200060a579182015b8281111562000609578251825591602001919060010190620005ec565b5b5090506200061991906200061d565b5090565b6200064291905b808211156200063e57600081600090555060010162000624565b5090565b90565b61488980620006556000396000f3fe6080604052600436106102465760003560e01c80635c975abb11610139578063975347b8116100b6578063aa271e1a1161007a578063aa271e1a14610fdf578063b88d4fde14611048578063c87b56dd1461115a578063e985e9c51461120e578063efef39a114611297578063f717dfcd146112d957610246565b8063975347b814610e8b578063983b2d5614610ee95780639865027514610f3a5780639cfccf3f14610f51578063a22cb46514610f8257610246565b80638456cb59116100fd5780638456cb5914610cb5578063891407c014610ccc5780638da5cb5b14610d2e57806395a8c58d14610d8557806395d89b4114610dfb57610246565b80635c975abb14610b3e5780636352211e14610b6d5780636ef8d66d14610be857806370a0823114610bff57806382dc1ec414610c6457610246565b80633f4ba83a116101c75780634acfa95c1161018b5780634acfa95c146108bb5780634f558e79146108ec5780634f6ccce71461093f57806350bb4e7f1461098e5780635a3f267214610a9857610246565b80633f4ba83a1461072757806342842e0e1461073e57806342966c68146107b957806343923258146107f457806346fbf68e1461085257610246565b806318160ddd1161020e57806318160ddd146104f557806323b872dd1461052057806324e263a91461059b5780632bbd84e81461068d5780632f745c59146106b857610246565b806301ffc9a71461024b578063056b01ce146102bd57806306fdde031461038f578063081812fc1461041f578063095ea7b31461049a575b600080fd5b34801561025757600080fd5b506102a36004803603602081101561026e57600080fd5b8101908080357bffffffffffffffffffffffffffffffffffffffffffffffffffffffff1916906020019092919050505061130a565b604051808215151515815260200191505060405180910390f35b3480156102c957600080fd5b5061038d600480360360408110156102e057600080fd5b81019080803590602001906401000000008111156102fd57600080fd5b82018360208201111561030f57600080fd5b8035906020019184600183028401116401000000008311171561033157600080fd5b91908080601f016020809104026020016040519081016040528093929190818152602001838380828437600081840152601f19601f82011690508083019250505050505050919291929080359060200190929190505050611371565b005b34801561039b57600080fd5b506103a46116b1565b6040518080602001828103825283818151815260200191508051906020019080838360005b838110156103e45780820151818401526020810190506103c9565b50505050905090810190601f1680156104115780820380516001836020036101000a031916815260200191505b509250505060405180910390f35b34801561042b57600080fd5b506104586004803603602081101561044257600080fd5b8101908080359060200190929190505050611753565b604051808273ffffffffffffffffffffffffffffffffffffffff1673ffffffffffffffffffffffffffffffffffffffff16815260200191505060405180910390f35b3480156104a657600080fd5b506104f3600480360360408110156104bd57600080fd5b81019080803573ffffffffffffffffffffffffffffffffffffffff169060200190929190803590602001909291905050506117ee565b005b34801561050157600080fd5b5061050a6119d5565b6040518082815260200191505060405180910390f35b34801561052c57600080fd5b506105996004803603606081101561054357600080fd5b81019080803573ffffffffffffffffffffffffffffffffffffffff169060200190929190803573ffffffffffffffffffffffffffffffffffffffff169060200190929190803590602001909291905050506119e2565b005b3480156105a757600080fd5b5061068b600480360360608110156105be57600080fd5b81019080803573ffffffffffffffffffffffffffffffffffffffff169060200190929190803590602001906401000000008111156105fb57600080fd5b82018360208201111561060d57600080fd5b8035906020019184600183028401116401000000008311171561062f57600080fd5b91908080601f016020809104026020016040519081016040528093929190818152602001838380828437600081840152601f19601f82011690508083019250505050505050919291929080359060200190929190505050611a58565b005b34801561069957600080fd5b506106a2611d8b565b6040518082815260200191505060405180910390f35b3480156106c457600080fd5b50610711600480360360408110156106db57600080fd5b81019080803573ffffffffffffffffffffffffffffffffffffffff16906020019092919080359060200190929190505050611d91565b6040518082815260200191505060405180910390f35b34801561073357600080fd5b5061073c611e50565b005b34801561074a57600080fd5b506107b76004803603606081101561076157600080fd5b81019080803573ffffffffffffffffffffffffffffffffffffffff169060200190929190803573ffffffffffffffffffffffffffffffffffffffff16906020019092919080359060200190929190505050611fbe565b005b3480156107c557600080fd5b506107f2600480360360208110156107dc57600080fd5b8101908080359060200190929190505050611fde565b005b34801561080057600080fd5b506108506004803603604081101561081757600080fd5b81019080803573ffffffffffffffffffffffffffffffffffffffff169060200190929190803560ff16906020019092919050505061205f565b005b34801561085e57600080fd5b506108a16004803603602081101561087557600080fd5b81019080803573ffffffffffffffffffffffffffffffffffffffff16906020019092919050505061214e565b604051808215151515815260200191505060405180910390f35b3480156108c757600080fd5b506108d061216b565b604051808260ff1660ff16815260200191505060405180910390f35b3480156108f857600080fd5b506109256004803603602081101561090f57600080fd5b8101908080359060200190929190505050612170565b604051808215151515815260200191505060405180910390f35b34801561094b57600080fd5b506109786004803603602081101561096257600080fd5b8101908080359060200190929190505050612185565b6040518082815260200191505060405180910390f35b34801561099a57600080fd5b50610a7e600480360360608110156109b157600080fd5b81019080803573ffffffffffffffffffffffffffffffffffffffff16906020019092919080359060200190929190803590602001906401000000008111156109f857600080fd5b820183602082011115610a0a57600080fd5b80359060200191846001830284011164010000000083111715610a2c57600080fd5b91908080601f016020809104026020016040519081016040528093929190818152602001838380828437600081840152601f19601f820116905080830192505050505050509192919290505050612205565b604051808215151515815260200191505060405180910390f35b348015610aa457600080fd5b50610ae760048036036020811015610abb57600080fd5b81019080803573ffffffffffffffffffffffffffffffffffffffff16906020019092919050505061228b565b6040518080602001828103825283818151815260200191508051906020019060200280838360005b83811015610b2a578082015181840152602081019050610b0f565b505050509050019250505060405180910390f35b348015610b4a57600080fd5b50610b536123b7565b604051808215151515815260200191505060405180910390f35b348015610b7957600080fd5b50610ba660048036036020811015610b9057600080fd5b81019080803590602001909291905050506123ce565b604051808273ffffffffffffffffffffffffffffffffffffffff1673ffffffffffffffffffffffffffffffffffffffff16815260200191505060405180910390f35b348015610bf457600080fd5b50610bfd612496565b005b348015610c0b57600080fd5b50610c4e60048036036020811015610c2257600080fd5b81019080803573ffffffffffffffffffffffffffffffffffffffff1690602001909291905050506124a8565b6040518082815260200191505060405180910390f35b348015610c7057600080fd5b50610cb360048036036020811015610c8757600080fd5b81019080803573ffffffffffffffffffffffffffffffffffffffff16906020019092919050505061257d565b005b348015610cc157600080fd5b50610cca6125ee565b005b610d1860048036036040811015610ce257600080fd5b81019080803573ffffffffffffffffffffffffffffffffffffffff1690602001909291908035906020019092919050505061275d565b6040518082815260200191505060405180910390f35b348015610d3a57600080fd5b50610d436128d8565b604051808273ffffffffffffffffffffffffffffffffffffffff1673ffffffffffffffffffffffffffffffffffffffff16815260200191505060405180910390f35b348015610d9157600080fd5b50610de160048036036040811015610da857600080fd5b81019080803573ffffffffffffffffffffffffffffffffffffffff169060200190929190803560ff1690602001909291905050506128fe565b604051808215151515815260200191505060405180910390f35b348015610e0757600080fd5b50610e10612933565b6040518080602001828103825283818151815260200191508051906020019080838360005b83811015610e50578082015181840152602081019050610e35565b50505050905090810190601f168015610e7d5780820380516001836020036101000a031916815260200191505b509250505060405180910390f35b348015610e9757600080fd5b50610ee760048036036040811015610eae57600080fd5b81019080803573ffffffffffffffffffffffffffffffffffffffff169060200190929190803560ff1690602001909291905050506129d5565b005b348015610ef557600080fd5b50610f3860048036036020811015610f0c57600080fd5b81019080803573ffffffffffffffffffffffffffffffffffffffff169060200190929190505050612ac4565b005b348015610f4657600080fd5b50610f4f612b35565b005b348015610f5d57600080fd5b50610f66612b47565b604051808260ff1660ff16815260200191505060405180910390f35b348015610f8e57600080fd5b50610fdd60048036036040811015610fa557600080fd5b81019080803573ffffffffffffffffffffffffffffffffffffffff169060200190929190803515159060200190929190505050612b4c565b005b348015610feb57600080fd5b5061102e6004803603602081101561100257600080fd5b81019080803573ffffffffffffffffffffffffffffffffffffffff169060200190929190505050612d04565b604051808215151515815260200191505060405180910390f35b34801561105457600080fd5b506111586004803603608081101561106b57600080fd5b81019080803573ffffffffffffffffffffffffffffffffffffffff169060200190929190803573ffffffffffffffffffffffffffffffffffffffff16906020019092919080359060200190929190803590602001906401000000008111156110d257600080fd5b8201836020820111156110e457600080fd5b8035906020019184600183028401116401000000008311171561110657600080fd5b91908080601f016020809104026020016040519081016040528093929190818152602001838380828437600081840152601f19601f820116905080830192505050505050509192919290505050612d21565b005b34801561116657600080fd5b506111936004803603602081101561117d57600080fd5b8101908080359060200190929190505050612d99565b6040518080602001828103825283818151815260200191508051906020019080838360005b838110156111d35780820151818401526020810190506111b8565b50505050905090810190601f1680156112005780820380516001836020036101000a031916815260200191505b509250505060405180910390f35b34801561121a57600080fd5b5061127d6004803603604081101561123157600080fd5b81019080803573ffffffffffffffffffffffffffffffffffffffff169060200190929190803573ffffffffffffffffffffffffffffffffffffffff169060200190929190505050612eac565b604051808215151515815260200191505060405180910390f35b6112c3600480360360208110156112ad57600080fd5b8101908080359060200190929190505050612f40565b6040518082815260200191505060405180910390f35b3480156112e557600080fd5b506112ee612f53565b604051808260ff1660ff16815260200191505060405180910390f35b6000806000837bffffffffffffffffffffffffffffffffffffffffffffffffffffffff19167bffffffffffffffffffffffffffffffffffffffffffffffffffffffff1916815260200190815260200160002060009054906101000a900460ff169050919050565b600d60009054906101000a900473ffffffffffffffffffffffffffffffffffffffff1673ffffffffffffffffffffffffffffffffffffffff163373ffffffffffffffffffffffffffffffffffffffff1614806113d457506113d33360016128fe565b5b806113e657506113e53360026128fe565b5b6113ef57600080fd5b6014826040518082805190602001908083835b602083106114255780518252602082019150602081019050602083039250611402565b6001836020036101000a038019825116818451168082178552505050505050905001915050908152602001604051809103902060009054906101000a900460ff161561147057600080fd5b61148461147b612f58565b60125484612205565b5060016014836040518082805190602001908083835b602083106114bd578051825260208201915060208101905060208303925061149a565b6001836020036101000a038019825116818451168082178552505050505050905001915050908152602001604051809103902060006101000a81548160ff02191690831515021790555060138290806001815401808255809150509060018203906000526020600020016000909192909190915090805190602001906115449291906143cf565b50506040518060c001604052806012548152602001611561612f58565b73ffffffffffffffffffffffffffffffffffffffff168152602001828152602001838152602001611590612f58565b73ffffffffffffffffffffffffffffffffffffffff16815260200160008152506016600060125481526020019081526020016000206000820151816000015560208201518160010160006101000a81548173ffffffffffffffffffffffffffffffffffffffff021916908373ffffffffffffffffffffffffffffffffffffffff16021790555060408201518160020155606082015181600301908051906020019061163c92919061444f565b5060808201518160040160006101000a81548173ffffffffffffffffffffffffffffffffffffffff021916908373ffffffffffffffffffffffffffffffffffffffff16021790555060a082015181600501559050506116a76001601254612f6090919063ffffffff16565b6012819055505050565b606060098054600181600116156101000203166002900480601f0160208091040260200160405190810160405280929190818152602001828054600181600116156101000203166002900480156117495780601f1061171e57610100808354040283529160200191611749565b820191906000526020600020905b81548152906001019060200180831161172c57829003601f168201915b5050505050905090565b600061175e82612fe8565b6117b3576040517f08c379a000000000000000000000000000000000000000000000000000000000815260040180806020018281038252602c8152602001806146da602c913960400191505060405180910390fd5b6002600083815260200190815260200160002060009054906101000a900473ffffffffffffffffffffffffffffffffffffffff169050919050565b60006117f9826123ce565b90508073ffffffffffffffffffffffffffffffffffffffff168373ffffffffffffffffffffffffffffffffffffffff161415611880576040517f08c379a00000000000000000000000000000000000000000000000000000000081526004018080602001828103825260218152602001806147ac6021913960400191505060405180910390fd5b8073ffffffffffffffffffffffffffffffffffffffff1661189f612f58565b73ffffffffffffffffffffffffffffffffffffffff1614806118ce57506118cd816118c8612f58565b612eac565b5b611923576040517f08c379a00000000000000000000000000000000000000000000000000000000081526004018080602001828103825260388152602001806145fe6038913960400191505060405180910390fd5b826002600084815260200190815260200160002060006101000a81548173ffffffffffffffffffffffffffffffffffffffff021916908373ffffffffffffffffffffffffffffffffffffffff160217905550818373ffffffffffffffffffffffffffffffffffffffff168273ffffffffffffffffffffffffffffffffffffffff167f8c5be1e5ebec7d5bd14f71427d1e84f3dd0314c0f7b2291e5b200ac8c7c3b92560405160405180910390a4505050565b6000600780549050905090565b6119f36119ed612f58565b8261305a565b611a48576040517f08c379a00000000000000000000000000000000000000000000000000000000081526004018080602001828103825260318152602001806147cd6031913960400191505060405180910390fd5b611a5383838361314e565b505050565b600d60009054906101000a900473ffffffffffffffffffffffffffffffffffffffff1673ffffffffffffffffffffffffffffffffffffffff163373ffffffffffffffffffffffffffffffffffffffff161480611abb5750611aba3360016128fe565b5b80611acd5750611acc3360026128fe565b5b611ad657600080fd5b6014826040518082805190602001908083835b60208310611b0c5780518252602082019150602081019050602083039250611ae9565b6001836020036101000a038019825116818451168082178552505050505050905001915050908152602001604051809103902060009054906101000a900460ff1615611b5757600080fd5b611b648360125484612205565b5060016014836040518082805190602001908083835b60208310611b9d5780518252602082019150602081019050602083039250611b7a565b6001836020036101000a038019825116818451168082178552505050505050905001915050908152602001604051809103902060006101000a81548160ff0219169083151502179055506013829080600181540180825580915050906001820390600052602060002001600090919290919091509080519060200190611c249291906143cf565b50506040518060c001604052806012548152602001611c41612f58565b73ffffffffffffffffffffffffffffffffffffffff1681526020018281526020018381526020018473ffffffffffffffffffffffffffffffffffffffff16815260200160008152506016600060125481526020019081526020016000206000820151816000015560208201518160010160006101000a81548173ffffffffffffffffffffffffffffffffffffffff021916908373ffffffffffffffffffffffffffffffffffffffff160217905550604082015181600201556060820151816003019080519060200190611d1592919061444f565b5060808201518160040160006101000a81548173ffffffffffffffffffffffffffffffffffffffff021916908373ffffffffffffffffffffffffffffffffffffffff16021790555060a08201518160050155905050611d806001601254612f6090919063ffffffff16565b601281905550505050565b60155481565b6000611d9c836124a8565b8210611df3576040517f08c379a000000000000000000000000000000000000000000000000000000000815260040180806020018281038252602b815260200180614521602b913960400191505060405180910390fd5b600560008473ffffffffffffffffffffffffffffffffffffffff1673ffffffffffffffffffffffffffffffffffffffff1681526020019081526020016000208281548110611e3d57fe5b9060005260206000200154905092915050565b611e60611e5b612f58565b61214e565b611eb5576040517f08c379a000000000000000000000000000000000000000000000000000000000815260040180806020018281038252603081526020018061457e6030913960400191505060405180910390fd5b601060009054906101000a900460ff16611f37576040517f08c379a00000000000000000000000000000000000000000000000000000000081526004018080602001828103825260148152602001807f5061757361626c653a206e6f742070617573656400000000000000000000000081525060200191505060405180910390fd5b6000601060006101000a81548160ff0219169083151502179055507f5db9ee0a495bf2e6ff9c91a7834c1ba4fdd244a5e8aa4e537bd38aeae4b073aa611f7b612f58565b604051808273ffffffffffffffffffffffffffffffffffffffff1673ffffffffffffffffffffffffffffffffffffffff16815260200191505060405180910390a1565b611fd983838360405180602001604052806000815250612d21565b505050565b600d60009054906101000a900473ffffffffffffffffffffffffffffffffffffffff1673ffffffffffffffffffffffffffffffffffffffff163373ffffffffffffffffffffffffffffffffffffffff16148061204157506120403360016128fe565b5b8061205357506120523360026128fe565b5b61205c57600080fd5b50565b600d60009054906101000a900473ffffffffffffffffffffffffffffffffffffffff1673ffffffffffffffffffffffffffffffffffffffff163373ffffffffffffffffffffffffffffffffffffffff1614806120c257506120c13360016128fe565b5b6120cb57600080fd5b6120f682600e60008460ff1660ff16815260200190815260200160002061317290919063ffffffff16565b8173ffffffffffffffffffffffffffffffffffffffff167f0ed8a6a6a166243876472f7a8610b62c1a76c67911642d39ff34ead38105534f82604051808260ff1660ff16815260200191505060405180910390a25050565b600061216482600f61324d90919063ffffffff16565b9050919050565b600181565b600061217b82612fe8565b9050809050919050565b600061218f6119d5565b82106121e6576040517f08c379a000000000000000000000000000000000000000000000000000000000815260040180806020018281038252602c8152602001806147fe602c913960400191505060405180910390fd5b600782815481106121f357fe5b90600052602060002001549050919050565b6000612217612212612f58565b612d04565b61226c576040517f08c379a00000000000000000000000000000000000000000000000000000000081526004018080602001828103825260308152602001806146896030913960400191505060405180910390fd5b612276848461332b565b612280838361334c565b600190509392505050565b6060600d60009054906101000a900473ffffffffffffffffffffffffffffffffffffffff1673ffffffffffffffffffffffffffffffffffffffff163373ffffffffffffffffffffffffffffffffffffffff1614806122f057506122ef3360016128fe565b5b6122f957600080fd5b600073ffffffffffffffffffffffffffffffffffffffff168273ffffffffffffffffffffffffffffffffffffffff16141561233357600080fd5b61235e600d60009054906101000a900473ffffffffffffffffffffffffffffffffffffffff166133d6565b8054806020026020016040519081016040528092919081815260200182805480156123a857602002820191906000526020600020905b815481526020019060010190808311612394575b50505050509050809050919050565b6000601060009054906101000a900460ff16905090565b6000806001600084815260200190815260200160002060009054906101000a900473ffffffffffffffffffffffffffffffffffffffff169050600073ffffffffffffffffffffffffffffffffffffffff168173ffffffffffffffffffffffffffffffffffffffff16141561248d576040517f08c379a00000000000000000000000000000000000000000000000000000000081526004018080602001828103825260298152602001806146606029913960400191505060405180910390fd5b80915050919050565b6124a66124a1612f58565b61341e565b565b60008073ffffffffffffffffffffffffffffffffffffffff168273ffffffffffffffffffffffffffffffffffffffff16141561252f576040517f08c379a000000000000000000000000000000000000000000000000000000000815260040180806020018281038252602a815260200180614636602a913960400191505060405180910390fd5b612576600360008473ffffffffffffffffffffffffffffffffffffffff1673ffffffffffffffffffffffffffffffffffffffff168152602001908152602001600020613478565b9050919050565b61258d612588612f58565b61214e565b6125e2576040517f08c379a000000000000000000000000000000000000000000000000000000000815260040180806020018281038252603081526020018061457e6030913960400191505060405180910390fd5b6125eb81613486565b50565b6125fe6125f9612f58565b61214e565b612653576040517f08c379a000000000000000000000000000000000000000000000000000000000815260040180806020018281038252603081526020018061457e6030913960400191505060405180910390fd5b601060009054906101000a900460ff16156126d6576040517f08c379a00000000000000000000000000000000000000000000000000000000081526004018080602001828103825260108152602001807f5061757361626c653a207061757365640000000000000000000000000000000081525060200191505060405180910390fd5b6001601060006101000a81548160ff0219169083151502179055507f62e78cea01bee320cd4e420270b5ea74000d11b0c9f74754ebdbfc544b05a25861271a612f58565b604051808273ffffffffffffffffffffffffffffffffffffffff1673ffffffffffffffffffffffffffffffffffffffff16815260200191505060405180910390a1565b6000601060009054906101000a900460ff16156127e2576040517f08c379a00000000000000000000000000000000000000000000000000000000081526004018080602001828103825260108152602001807f5061757361626c653a207061757365640000000000000000000000000000000081525060200191505060405180910390fd5b60006016600084815260200190815260200160002090508060020154341015612856576040517f08c379a000000000000000000000000000000000000000000000000000000000815260040180806020018281038252602b81526020018061482a602b913960400191505060405180910390fd5b6128898382600201548360040160009054906101000a900473ffffffffffffffffffffffffffffffffffffffff166134e0565b348473ffffffffffffffffffffffffffffffffffffffff16847f9b9322562a425e363b0c2f80fc966e9c4f48ac3b5c2d1527d75829c8f505ec9660405160405180910390a48291505092915050565b600d60009054906101000a900473ffffffffffffffffffffffffffffffffffffffff1681565b600061292b83600e60008560ff1660ff16815260200190815260200160002061324d90919063ffffffff16565b905092915050565b6060600a8054600181600116156101000203166002900480601f0160208091040260200160405190810160405280929190818152602001828054600181600116156101000203166002900480156129cb5780601f106129a0576101008083540402835291602001916129cb565b820191906000526020600020905b8154815290600101906020018083116129ae57829003601f168201915b5050505050905090565b600d60009054906101000a900473ffffffffffffffffffffffffffffffffffffffff1673ffffffffffffffffffffffffffffffffffffffff163373ffffffffffffffffffffffffffffffffffffffff161480612a385750612a373360016128fe565b5b612a4157600080fd5b612a6c82600e60008460ff1660ff16815260200190815260200160002061357c90919063ffffffff16565b8173ffffffffffffffffffffffffffffffffffffffff167f3824b64a1e23d936b458f4e31445c664d2bc9c14e842407917cbc100b0236a2f82604051808260ff1660ff16815260200191505060405180910390a25050565b612ad4612acf612f58565b612d04565b612b29576040517f08c379a00000000000000000000000000000000000000000000000000000000081526004018080602001828103825260308152602001806146896030913960400191505060405180910390fd5b612b3281613639565b50565b612b45612b40612f58565b613693565b565b600281565b612b54612f58565b73ffffffffffffffffffffffffffffffffffffffff168273ffffffffffffffffffffffffffffffffffffffff161415612bf5576040517f08c379a00000000000000000000000000000000000000000000000000000000081526004018080602001828103825260198152602001807f4552433732313a20617070726f766520746f2063616c6c65720000000000000081525060200191505060405180910390fd5b8060046000612c02612f58565b73ffffffffffffffffffffffffffffffffffffffff1673ffffffffffffffffffffffffffffffffffffffff16815260200190815260200160002060008473ffffffffffffffffffffffffffffffffffffffff1673ffffffffffffffffffffffffffffffffffffffff16815260200190815260200160002060006101000a81548160ff0219169083151502179055508173ffffffffffffffffffffffffffffffffffffffff16612caf612f58565b73ffffffffffffffffffffffffffffffffffffffff167f17307eab39ab6107e8899845ad3d59bd9653f200f220920489ca2b5937696c3183604051808215151515815260200191505060405180910390a35050565b6000612d1a82600c61324d90919063ffffffff16565b9050919050565b612d32612d2c612f58565b8361305a565b612d87576040517f08c379a00000000000000000000000000000000000000000000000000000000081526004018080602001828103825260318152602001806147cd6031913960400191505060405180910390fd5b612d93848484846136ed565b50505050565b6060612da482612fe8565b612df9576040517f08c379a000000000000000000000000000000000000000000000000000000000815260040180806020018281038252602f81526020018061477d602f913960400191505060405180910390fd5b600b60008381526020019081526020016000208054600181600116156101000203166002900480601f016020809104026020016040519081016040528092919081815260200182805460018160011615610100020316600290048015612ea05780601f10612e7557610100808354040283529160200191612ea0565b820191906000526020600020905b815481529060010190602001808311612e8357829003601f168201915b50505050509050919050565b6000600460008473ffffffffffffffffffffffffffffffffffffffff1673ffffffffffffffffffffffffffffffffffffffff16815260200190815260200160002060008373ffffffffffffffffffffffffffffffffffffffff1673ffffffffffffffffffffffffffffffffffffffff16815260200190815260200160002060009054906101000a900460ff16905092915050565b6000612f4c338361275d565b9050919050565b600381565b600033905090565b600080828401905083811015612fde576040517f08c379a000000000000000000000000000000000000000000000000000000000815260040180806020018281038252601b8152602001807f536166654d6174683a206164646974696f6e206f766572666c6f77000000000081525060200191505060405180910390fd5b8091505092915050565b6000806001600084815260200190815260200160002060009054906101000a900473ffffffffffffffffffffffffffffffffffffffff169050600073ffffffffffffffffffffffffffffffffffffffff168173ffffffffffffffffffffffffffffffffffffffff161415915050919050565b600061306582612fe8565b6130ba576040517f08c379a000000000000000000000000000000000000000000000000000000000815260040180806020018281038252602c8152602001806145d2602c913960400191505060405180910390fd5b60006130c5836123ce565b90508073ffffffffffffffffffffffffffffffffffffffff168473ffffffffffffffffffffffffffffffffffffffff16148061313457508373ffffffffffffffffffffffffffffffffffffffff1661311c84611753565b73ffffffffffffffffffffffffffffffffffffffff16145b8061314557506131448185612eac565b5b91505092915050565b61315983838361375f565b61316383826139ba565b61316d8282613b58565b505050565b61317c828261324d565b156131ef576040517f08c379a000000000000000000000000000000000000000000000000000000000815260040180806020018281038252601f8152602001807f526f6c65733a206163636f756e7420616c72656164792068617320726f6c650081525060200191505060405180910390fd5b60018260000160008373ffffffffffffffffffffffffffffffffffffffff1673ffffffffffffffffffffffffffffffffffffffff16815260200190815260200160002060006101000a81548160ff0219169083151502179055505050565b60008073ffffffffffffffffffffffffffffffffffffffff168273ffffffffffffffffffffffffffffffffffffffff1614156132d4576040517f08c379a00000000000000000000000000000000000000000000000000000000081526004018080602001828103825260228152602001806147326022913960400191505060405180910390fd5b8260000160008373ffffffffffffffffffffffffffffffffffffffff1673ffffffffffffffffffffffffffffffffffffffff16815260200190815260200160002060009054906101000a900460ff16905092915050565b6133358282613c1f565b61333f8282613b58565b61334881613e37565b5050565b61335582612fe8565b6133aa576040517f08c379a000000000000000000000000000000000000000000000000000000000815260040180806020018281038252602c815260200180614706602c913960400191505060405180910390fd5b80600b600084815260200190815260200160002090805190602001906133d19291906143cf565b505050565b6000600560008373ffffffffffffffffffffffffffffffffffffffff1673ffffffffffffffffffffffffffffffffffffffff1681526020019081526020016000209050919050565b61343281600f61357c90919063ffffffff16565b8073ffffffffffffffffffffffffffffffffffffffff167fcd265ebaf09df2871cc7bd4133404a235ba12eff2041bb89d9c714a2621c7c7e60405160405180910390a250565b600081600001549050919050565b61349a81600f61317290919063ffffffff16565b8073ffffffffffffffffffffffffffffffffffffffff167f6719d08c1888103bea251a4ed56406bd0c3e69723c8a1686e017e7bbe159b6f860405160405180910390a250565b60006134f6606484613e8390919063ffffffff16565b90506000811115613549578173ffffffffffffffffffffffffffffffffffffffff166108fc829081150290604051600060405180830381858888f19350505050158015613547573d6000803e3d6000fd5b505b61355b82613555612f58565b86611fbe565b61357034601554612f6090919063ffffffff16565b60158190555050505050565b613586828261324d565b6135db576040517f08c379a00000000000000000000000000000000000000000000000000000000081526004018080602001828103825260218152602001806146b96021913960400191505060405180910390fd5b60008260000160008373ffffffffffffffffffffffffffffffffffffffff1673ffffffffffffffffffffffffffffffffffffffff16815260200190815260200160002060006101000a81548160ff0219169083151502179055505050565b61364d81600c61317290919063ffffffff16565b8073ffffffffffffffffffffffffffffffffffffffff167f6ae172837ea30b801fbfcdd4108aa1d5bf8ff775444fd70256b44e6bf3dfc3f660405160405180910390a250565b6136a781600c61357c90919063ffffffff16565b8073ffffffffffffffffffffffffffffffffffffffff167fe94479a9f7e1952cc78f2d6baab678adc1b772d936c6583def489e524cb6669260405160405180910390a250565b6136f884848461314e565b61370484848484613ecd565b613759576040517f08c379a000000000000000000000000000000000000000000000000000000000815260040180806020018281038252603281526020018061454c6032913960400191505060405180910390fd5b50505050565b8273ffffffffffffffffffffffffffffffffffffffff1661377f826123ce565b73ffffffffffffffffffffffffffffffffffffffff16146137eb576040517f08c379a00000000000000000000000000000000000000000000000000000000081526004018080602001828103825260298152602001806147546029913960400191505060405180910390fd5b600073ffffffffffffffffffffffffffffffffffffffff168273ffffffffffffffffffffffffffffffffffffffff161415613871576040517f08c379a00000000000000000000000000000000000000000000000000000000081526004018080602001828103825260248152602001806145ae6024913960400191505060405180910390fd5b61387a816140bd565b6138c1600360008573ffffffffffffffffffffffffffffffffffffffff1673ffffffffffffffffffffffffffffffffffffffff16815260200190815260200160002061417b565b613908600360008473ffffffffffffffffffffffffffffffffffffffff1673ffffffffffffffffffffffffffffffffffffffff16815260200190815260200160002061419e565b816001600083815260200190815260200160002060006101000a81548173ffffffffffffffffffffffffffffffffffffffff021916908373ffffffffffffffffffffffffffffffffffffffff160217905550808273ffffffffffffffffffffffffffffffffffffffff168473ffffffffffffffffffffffffffffffffffffffff167fddf252ad1be2c89b69c2b068fc378daa952ba7f163c4a11628f55a4df523b3ef60405160405180910390a4505050565b6000613a126001600560008673ffffffffffffffffffffffffffffffffffffffff1673ffffffffffffffffffffffffffffffffffffffff168152602001908152602001600020805490506141b490919063ffffffff16565b9050600060066000848152602001908152602001600020549050818114613aff576000600560008673ffffffffffffffffffffffffffffffffffffffff1673ffffffffffffffffffffffffffffffffffffffff1681526020019081526020016000208381548110613a7f57fe5b9060005260206000200154905080600560008773ffffffffffffffffffffffffffffffffffffffff1673ffffffffffffffffffffffffffffffffffffffff1681526020019081526020016000208381548110613ad757fe5b9060005260206000200181905550816006600083815260200190815260200160002081905550505b600560008573ffffffffffffffffffffffffffffffffffffffff1673ffffffffffffffffffffffffffffffffffffffff168152602001908152602001600020805480919060019003613b5191906144cf565b5050505050565b600560008373ffffffffffffffffffffffffffffffffffffffff1673ffffffffffffffffffffffffffffffffffffffff168152602001908152602001600020805490506006600083815260200190815260200160002081905550600560008373ffffffffffffffffffffffffffffffffffffffff1673ffffffffffffffffffffffffffffffffffffffff1681526020019081526020016000208190806001815401808255809150509060018203906000526020600020016000909192909190915055505050565b600073ffffffffffffffffffffffffffffffffffffffff168273ffffffffffffffffffffffffffffffffffffffff161415613cc2576040517f08c379a00000000000000000000000000000000000000000000000000000000081526004018080602001828103825260208152602001807f4552433732313a206d696e7420746f20746865207a65726f206164647265737381525060200191505060405180910390fd5b613ccb81612fe8565b15613d3e576040517f08c379a000000000000000000000000000000000000000000000000000000000815260040180806020018281038252601c8152602001807f4552433732313a20746f6b656e20616c7265616479206d696e7465640000000081525060200191505060405180910390fd5b816001600083815260200190815260200160002060006101000a81548173ffffffffffffffffffffffffffffffffffffffff021916908373ffffffffffffffffffffffffffffffffffffffff160217905550613dd7600360008473ffffffffffffffffffffffffffffffffffffffff1673ffffffffffffffffffffffffffffffffffffffff16815260200190815260200160002061419e565b808273ffffffffffffffffffffffffffffffffffffffff16600073ffffffffffffffffffffffffffffffffffffffff167fddf252ad1be2c89b69c2b068fc378daa952ba7f163c4a11628f55a4df523b3ef60405160405180910390a45050565b6007805490506008600083815260200190815260200160002081905550600781908060018154018082558091505090600182039060005260206000200160009091929091909150555050565b6000613ec583836040518060400160405280601a81526020017f536166654d6174683a206469766973696f6e206279207a65726f0000000000008152506141fe565b905092915050565b6000613eee8473ffffffffffffffffffffffffffffffffffffffff166142c4565b613efb57600190506140b5565b60008473ffffffffffffffffffffffffffffffffffffffff1663150b7a02613f21612f58565b8887876040518563ffffffff1660e01b8152600401808573ffffffffffffffffffffffffffffffffffffffff1673ffffffffffffffffffffffffffffffffffffffff1681526020018473ffffffffffffffffffffffffffffffffffffffff1673ffffffffffffffffffffffffffffffffffffffff16815260200183815260200180602001828103825283818151815260200191508051906020019080838360005b83811015613fdd578082015181840152602081019050613fc2565b50505050905090810190601f16801561400a5780820380516001836020036101000a031916815260200191505b5095505050505050602060405180830381600087803b15801561402c57600080fd5b505af1158015614040573d6000803e3d6000fd5b505050506040513d602081101561405657600080fd5b8101908080519060200190929190505050905063150b7a0260e01b7bffffffffffffffffffffffffffffffffffffffffffffffffffffffff1916817bffffffffffffffffffffffffffffffffffffffffffffffffffffffff1916149150505b949350505050565b600073ffffffffffffffffffffffffffffffffffffffff166002600083815260200190815260200160002060009054906101000a900473ffffffffffffffffffffffffffffffffffffffff1673ffffffffffffffffffffffffffffffffffffffff16146141785760006002600083815260200190815260200160002060006101000a81548173ffffffffffffffffffffffffffffffffffffffff021916908373ffffffffffffffffffffffffffffffffffffffff1602179055505b50565b614193600182600001546141b490919063ffffffff16565b816000018190555050565b6001816000016000828254019250508190555050565b60006141f683836040518060400160405280601e81526020017f536166654d6174683a207375627472616374696f6e206f766572666c6f77000081525061430f565b905092915050565b600080831182906142aa576040517f08c379a00000000000000000000000000000000000000000000000000000000081526004018080602001828103825283818151815260200191508051906020019080838360005b8381101561426f578082015181840152602081019050614254565b50505050905090810190601f16801561429c5780820380516001836020036101000a031916815260200191505b509250505060405180910390fd5b5060008385816142b657fe5b049050809150509392505050565b60008060007fc5d2460186f7233c927e7db2dcc703c0e500b653ca82273b7bfad8045d85a47060001b9050833f91506000801b82141580156143065750808214155b92505050919050565b60008383111582906143bc576040517f08c379a00000000000000000000000000000000000000000000000000000000081526004018080602001828103825283818151815260200191508051906020019080838360005b83811015614381578082015181840152602081019050614366565b50505050905090810190601f1680156143ae5780820380516001836020036101000a031916815260200191505b509250505060405180910390fd5b5060008385039050809150509392505050565b828054600181600116156101000203166002900490600052602060002090601f016020900481019282601f1061441057805160ff191683800117855561443e565b8280016001018555821561443e579182015b8281111561443d578251825591602001919060010190614422565b5b50905061444b91906144fb565b5090565b828054600181600116156101000203166002900490600052602060002090601f016020900481019282601f1061449057805160ff19168380011785556144be565b828001600101855582156144be579182015b828111156144bd5782518255916020019190600101906144a2565b5b5090506144cb91906144fb565b5090565b8154818355818111156144f6578183600052602060002091820191016144f591906144fb565b5b505050565b61451d91905b80821115614519576000816000905550600101614501565b5090565b9056fe455243373231456e756d657261626c653a206f776e657220696e646578206f7574206f6620626f756e64734552433732313a207472616e7366657220746f206e6f6e20455243373231526563656976657220696d706c656d656e746572506175736572526f6c653a2063616c6c657220646f6573206e6f742068617665207468652050617573657220726f6c654552433732313a207472616e7366657220746f20746865207a65726f20616464726573734552433732313a206f70657261746f7220717565727920666f72206e6f6e6578697374656e7420746f6b656e4552433732313a20617070726f76652063616c6c6572206973206e6f74206f776e6572206e6f7220617070726f76656420666f7220616c6c4552433732313a2062616c616e636520717565727920666f7220746865207a65726f20616464726573734552433732313a206f776e657220717565727920666f72206e6f6e6578697374656e7420746f6b656e4d696e746572526f6c653a2063616c6c657220646f6573206e6f74206861766520746865204d696e74657220726f6c65526f6c65733a206163636f756e7420646f6573206e6f74206861766520726f6c654552433732313a20617070726f76656420717565727920666f72206e6f6e6578697374656e7420746f6b656e4552433732314d657461646174613a2055524920736574206f66206e6f6e6578697374656e7420746f6b656e526f6c65733a206163636f756e7420697320746865207a65726f20616464726573734552433732313a207472616e73666572206f6620746f6b656e2074686174206973206e6f74206f776e4552433732314d657461646174613a2055524920717565727920666f72206e6f6e6578697374656e7420746f6b656e4552433732313a20617070726f76616c20746f2063757272656e74206f776e65724552433732313a207472616e736665722063616c6c6572206973206e6f74206f776e6572206e6f7220617070726f766564455243373231456e756d657261626c653a20676c6f62616c20696e646578206f7574206f6620626f756e647356616c7565206d7573742062652067726561746572207468616e207072696365206f662065646974696f6ea265627a7a72315820025c7c1efb825f2abe17e1f593c50a74e039a73daf3e5fe0dd814eefa037472f64736f6c634300050c0032526f6c65733a206163636f756e7420697320746865207a65726f2061646472657373",
  "source": "pragma solidity 0.5.12;\n\n// allows for multi-address access controls to different functions\nimport \"./AccessControl.sol\";\n\n// Prevents stuck ether\n//import \"openzeppelin-solidity/contracts/ownership/HasNoEther.sol\";\n\n// For safe maths operations\nimport \"openzeppelin-solidity/contracts/math/SafeMath.sol\";\n\n// Pause purchasing only in case of emergency/migration\nimport \"openzeppelin-solidity/contracts/lifecycle/Pausable.sol\";\n\n// ERC721, ERC721 Enumerable, ERC721 Metadata\nimport \"openzeppelin-solidity/contracts/token/ERC721/ERC721Full.sol\";\n\n// ERC721 MetadataMintable\nimport \"openzeppelin-solidity/contracts/token/ERC721/ERC721MetadataMintable.sol\";\n\n// ERC721 MetadataMintable\nimport \"openzeppelin-solidity/contracts/token/ERC721/ERC721Burnable.sol\";\n\n// Utils only\nimport \"./Strings.sol\";\nimport \"openzeppelin-solidity/contracts/drafts/Counters.sol\";\nimport \"openzeppelin-solidity/contracts/utils/Address.sol\";\n\n/**\n * @title CF-V1\n * @author IskanderAndrews\n * Creature - a contract for CF NFTs.\n */\n\ncontract CryptoFaces is\nERC721Full,\nERC721MetadataMintable,\nAccessControl,\nPausable {\n\n    /*************\n     * Libraries *\n     *************/\n    using SafeMath for uint256;\n    using Address for address;\n    using Counters for uint256;\n\n    /**************\n     * Properties *\n     **************/\n    // Base URI link for Faces Hashes (URI)\n    string internal tokenBaseURI = \"https://ipfs.infura.io/ipfs/\";\n\n    // To begin from index 100001\n    uint256 private tokenId = 100001;\n\n    // All faces URIs\n    string[] tokenURIs;\n\n    // Faces Exits\n    mapping(string => bool) tokenURIExists;\n\n    // Total wei been processed through the contract\n    uint256 public totalPurchaseValueInWei;\n\n    // Object for token details\n    struct TokenDetails {\n        // Identifiers\n        uint256 tokenId;    // the range e.g. 10000\n        address artistAccount;    // artists account\n        // Config\n        uint256 priceInWei;       // base price for edition, could be overridden by external contracts\n        string tokenURI;          // IPFS hash - see base URI\n        address payable currentOwner;      // Will changed after any purchase happen\n        // Counters\n        uint256 totalPurchases;      // Total purchases\n    }\n\n    // _tokenId : TokenDetails\n    mapping(uint256 => TokenDetails) internal tokenIdToTokenDetails;\n\n    /**********\n     * Events *\n     **********/\n    // Emitted on purchases from within this contract\n    event Purchase(\n        uint256 indexed _tokenId,\n        address indexed _buyer,\n        uint256 indexed _priceInWei\n    );\n\n    /*************\n     * Modifiers *\n     *************/\n    modifier onlyValidTokenId(uint256 _tokenId) {\n        require(exists(_tokenId), \"Token ID does not exist\");\n        _;\n    }\n\n    /***************\n     * Constructor *\n     ***************/\n    constructor() public payable ERC721Full(\"CryptoFaces\", \"CF\") { }\n\n    /********************\n     * Basic Operations *\n     ********************/\n\n    /**\n     * @dev Internal function to mint a new token to the creator (caller)\n     * @dev Private (CF Artists only)\n     * @dev Payment not needed for this method\n     * Reverts if the given token ID already exists, and if the face already exists\n     * @param _tokenURI The Face Hash the will be minted with the token\n     * @param _priceInWei The initial price to the nft\n     */\n    function mint(string memory _tokenURI, uint256 _priceInWei) public\n    onlyIfCryptoFacesArtists {\n        // Checks that tokenURI is unique\n        require(!tokenURIExists[_tokenURI]);\n\n        // Mint token form parent \"ERC721MetadataMintable\"\n        mintWithTokenURI(_msgSender(), tokenId, _tokenURI);\n\n        // Update the new minted token data\n        tokenURIExists[_tokenURI] = true;\n        tokenURIs.push(_tokenURI);\n        tokenIdToTokenDetails[tokenId] = TokenDetails({\n            tokenId: tokenId,\n            artistAccount: _msgSender(),\n            priceInWei: _priceInWei,\n            tokenURI: _tokenURI,\n            currentOwner: _msgSender(),\n            totalPurchases: 0\n            });\n\n        tokenId = tokenId.add(1);\n    }\n\n    // TODO: Test mintTo\n    /**\n     * @dev Internal function to mint a new token to specific address\n     * @dev Private (CF Artists only)\n     * @dev Payment not needed for this method\n     * Reverts if the given token ID already exists, and if the face already exists\n     * @param _to The account address of the received address\n     * @param _tokenURI The Face Hash the will be minted with the token\n     * @param _priceInWei The initial price to the nft\n     */\n    function mintTo(address payable _to ,string memory _tokenURI, uint256 _priceInWei) public\n    onlyIfCryptoFacesArtists {\n        // Checks that tokenURI is unique\n        require(!tokenURIExists[_tokenURI]);\n\n        // Mint token form parent \"ERC721MetadataMintable\"\n        mintWithTokenURI(_to, tokenId, _tokenURI);\n\n        // Update the new minted token data\n        tokenURIExists[_tokenURI] = true;\n        tokenURIs.push(_tokenURI);\n        tokenIdToTokenDetails[tokenId] = TokenDetails({\n               tokenId: tokenId,\n               artistAccount: _msgSender(),\n               priceInWei: _priceInWei,\n               tokenURI: _tokenURI,\n               currentOwner: _to,\n               totalPurchases: 0\n            });\n\n        tokenId = tokenId.add(1);\n    }\n\n    // TODO: Test purchase\n    /**\n     * @dev Public entry point for purchasing a Token\n     * @dev Reverts if payment not provided in full\n     * @dev Reverts if token is sold out\n     * @dev Reverts if token is not active or available\n     */\n    function purchase(uint256 _tokenId) public payable\n    returns (uint256) {\n        return purchaseTo(msg.sender, _tokenId);\n    }\n\n    // TODO: Test purchaseTo\n    /**\n     * @dev Public entry point for purchasing an edition on behalf of someone else\n     * @dev Reverts if edition is invalid\n     * @dev Reverts if payment not provided in full\n     * @dev Reverts if edition is sold out\n     * @dev Reverts if edition is not active or available\n     */\n    function purchaseTo(address _to, uint256 _tokenId) public payable\n    whenNotPaused\n    returns (uint256) {\n\n        TokenDetails storage _tokenDetails = tokenIdToTokenDetails[_tokenId];\n        require(msg.value >= _tokenDetails.priceInWei, \"Value must be greater than price of edition\");\n\n        // Splice funds and handle commissions\n        _handleTransfer(_tokenId, _tokenDetails.priceInWei, _tokenDetails.currentOwner);\n\n        // Broadcast purchase\n        emit Purchase(_tokenId, _to, msg.value);\n\n        return _tokenId;\n    }\n\n    function _handleTransfer(uint256 _tokenId, uint256 _priceInWei, address payable _currentOwner) internal {\n\n        // Extract the artists commission and send it\n        uint256 artistPayment = _priceInWei.div(100);\n        if (artistPayment > 0) {\n            _currentOwner.transfer(artistPayment);\n        }\n\n        // Transfer the ownership of the token to the buyer\n        safeTransferFrom(_currentOwner, _msgSender(), _tokenId);\n\n        // Record wei sale value\n        totalPurchaseValueInWei = totalPurchaseValueInWei.add(msg.value);\n    }\n\n    /***************\n     * Token Query *\n     ***************/\n    /**\n     * @dev Returns whether the specified token exists.\n     * @param _tokenId uint256 ID of the token to query the existence of\n     * @return bool whether the token exists\n     */\n    function exists(uint256 _tokenId) public view returns (bool isExist) {\n        isExist = super._exists(_tokenId);\n        return isExist;\n    }\n\n    /**\n     * @dev Gets the list of token IDs of the requested owner, inherited from ERC721 Enumerable\n     * @param _owner address owning the tokens\n     * @return uint256[] List of token IDs owned by the requested address\n     */\n    function tokensOf(address _owner) public onlyIfCryptoFaces view returns (uint256[] memory _tokenIds) {\n        require(_owner != address(0));\n\n        _tokenIds = super._tokensOfOwner(owner);\n\n        return _tokenIds;\n    }\n\n    function burn(uint256 _tokenId) public onlyIfCryptoFacesArtists {\n\n    }\n}\n",
  "sourcePath": "/home/iskander/Projects/cryptofaces/contracts/CryptoFaces.sol",
  "compiler": {
    "name": "solc",
    "version": "0.5.12+commit.7709ece9.Emscripten.clang"
  },
  "schemaVersion": "3.0.20",
  "updatedAt": "2020-02-01T15:12:56.564Z",
  "devdoc": {
    "author": "IskanderAndrews Creature - a contract for CF NFTs.",
    "methods": {
      "approve(address,uint256)": {
        "details": "Approves another address to transfer the given token ID The zero address indicates there is no approved address. There can only be one approved address per token at a given time. Can only be called by the token owner or an approved operator.",
        "params": {
          "to": "address to be approved for the given token ID",
          "tokenId": "uint256 ID of the token to be approved"
        }
      },
      "balanceOf(address)": {
        "details": "Gets the balance of the specified address.",
        "params": {
          "owner": "address to query the balance of"
        },
        "return": "uint256 representing the amount owned by the passed address"
      },
      "exists(uint256)": {
        "details": "Returns whether the specified token exists.",
        "params": {
          "_tokenId": "uint256 ID of the token to query the existence of"
        },
        "return": "bool whether the token exists"
      },
      "getApproved(uint256)": {
        "details": "Gets the approved address for a token ID, or zero if no address set Reverts if the token ID does not exist.",
        "params": {
          "tokenId": "uint256 ID of the token to query the approval of"
        },
        "return": "address currently approved for the given token ID"
      },
      "isApprovedForAll(address,address)": {
        "details": "Tells whether an operator is approved by a given owner.",
        "params": {
          "operator": "operator address which you want to query the approval of",
          "owner": "owner address which you want to query the approval of"
        },
        "return": "bool whether the given operator is approved by the given owner"
      },
      "mint(string,uint256)": {
        "details": "Internal function to mint a new token to the creator (caller)Private (CF Artists only)Payment not needed for this method Reverts if the given token ID already exists, and if the face already exists",
        "params": {
          "_priceInWei": "The initial price to the nft",
          "_tokenURI": "The Face Hash the will be minted with the token"
        }
      },
      "mintTo(address,string,uint256)": {
        "details": "Internal function to mint a new token to specific addressPrivate (CF Artists only)Payment not needed for this method Reverts if the given token ID already exists, and if the face already exists",
        "params": {
          "_priceInWei": "The initial price to the nft",
          "_to": "The account address of the received address",
          "_tokenURI": "The Face Hash the will be minted with the token"
        }
      },
      "mintWithTokenURI(address,uint256,string)": {
        "details": "Function to mint tokens.",
        "params": {
          "to": "The address that will receive the minted tokens.",
          "tokenId": "The token id to mint.",
          "tokenURI": "The token URI of the minted token."
        },
        "return": "A boolean that indicates if the operation was successful."
      },
      "name()": {
        "details": "Gets the token name.",
        "return": "string representing the token name"
      },
      "ownerOf(uint256)": {
        "details": "Gets the owner of the specified token ID.",
        "params": {
          "tokenId": "uint256 ID of the token to query the owner of"
        },
        "return": "address currently marked as the owner of the given token ID"
      },
      "pause()": {
        "details": "Called by a pauser to pause, triggers stopped state."
      },
      "paused()": {
        "details": "Returns true if the contract is paused, and false otherwise."
      },
      "purchase(uint256)": {
        "details": "Public entry point for purchasing a TokenReverts if payment not provided in fullReverts if token is sold outReverts if token is not active or available"
      },
      "purchaseTo(address,uint256)": {
        "details": "Public entry point for purchasing an edition on behalf of someone elseReverts if edition is invalidReverts if payment not provided in fullReverts if edition is sold outReverts if edition is not active or available"
      },
      "safeTransferFrom(address,address,uint256)": {
        "details": "Safely transfers the ownership of a given token ID to another address If the target address is a contract, it must implement {IERC721Receiver-onERC721Received}, which is called upon a safe transfer, and return the magic value `bytes4(keccak256(\"onERC721Received(address,address,uint256,bytes)\"))`; otherwise, the transfer is reverted. Requires the msg.sender to be the owner, approved, or operator",
        "params": {
          "from": "current owner of the token",
          "to": "address to receive the ownership of the given token ID",
          "tokenId": "uint256 ID of the token to be transferred"
        }
      },
      "safeTransferFrom(address,address,uint256,bytes)": {
        "details": "Safely transfers the ownership of a given token ID to another address If the target address is a contract, it must implement {IERC721Receiver-onERC721Received}, which is called upon a safe transfer, and return the magic value `bytes4(keccak256(\"onERC721Received(address,address,uint256,bytes)\"))`; otherwise, the transfer is reverted. Requires the _msgSender() to be the owner, approved, or operator",
        "params": {
          "_data": "bytes data to send along with a safe transfer check",
          "from": "current owner of the token",
          "to": "address to receive the ownership of the given token ID",
          "tokenId": "uint256 ID of the token to be transferred"
        }
      },
      "setApprovalForAll(address,bool)": {
        "details": "Sets or unsets the approval of a given operator An operator is allowed to transfer all tokens of the sender on their behalf.",
        "params": {
          "approved": "representing the status of the approval to be set",
          "to": "operator address to set the approval"
        }
      },
      "supportsInterface(bytes4)": {
        "details": "See {IERC165-supportsInterface}.     * Time complexity O(1), guaranteed to always use less than 30 000 gas."
      },
      "symbol()": {
        "details": "Gets the token symbol.",
        "return": "string representing the token symbol"
      },
      "tokenByIndex(uint256)": {
        "details": "Gets the token ID at a given index of all the tokens in this contract Reverts if the index is greater or equal to the total number of tokens.",
        "params": {
          "index": "uint256 representing the index to be accessed of the tokens list"
        },
        "return": "uint256 token ID at the given index of the tokens list"
      },
      "tokenOfOwnerByIndex(address,uint256)": {
        "details": "Gets the token ID at a given index of the tokens list of the requested owner.",
        "params": {
          "index": "uint256 representing the index to be accessed of the requested tokens list",
          "owner": "address owning the tokens list to be accessed"
        },
        "return": "uint256 token ID at the given index of the tokens list owned by the requested address"
      },
      "tokenURI(uint256)": {
        "details": "Returns an URI for a given token ID. Throws if the token ID does not exist. May return an empty string.",
        "params": {
          "tokenId": "uint256 ID of the token to query"
        }
      },
      "tokensOf(address)": {
        "details": "Gets the list of token IDs of the requested owner, inherited from ERC721 Enumerable",
        "params": {
          "_owner": "address owning the tokens"
        },
        "return": "uint256[] List of token IDs owned by the requested address"
      },
      "totalSupply()": {
        "details": "Gets the total amount of tokens stored by the contract.",
        "return": "uint256 representing the total amount of tokens"
      },
      "transferFrom(address,address,uint256)": {
        "details": "Transfers the ownership of a given token ID to another address. Usage of this method is discouraged, use {safeTransferFrom} whenever possible. Requires the msg.sender to be the owner, approved, or operator.",
        "params": {
          "from": "current owner of the token",
          "to": "address to receive the ownership of the given token ID",
          "tokenId": "uint256 ID of the token to be transferred"
        }
      },
      "unpause()": {
        "details": "Called by a pauser to unpause, returns to normal state."
      }
    },
    "title": "CF-V1"
  },
  "userdoc": {
    "methods": {
      "addAddressToAccessControl(address,uint8)": {
        "notice": "/////////////////////////////////"
      },
      "constructor": "************* Constructor ***************"
    }
  }
}