{
  "contractName": "CryptoFacesMarketPlace",
  "abi": [
    {
      "inputs": [],
      "payable": false,
      "stateMutability": "nonpayable",
      "type": "constructor"
    },
    {
      "anonymous": false,
      "inputs": [
        {
          "indexed": true,
          "internalType": "address",
          "name": "owner",
          "type": "address"
        },
        {
          "indexed": true,
          "internalType": "address",
          "name": "approved",
          "type": "address"
        },
        {
          "indexed": true,
          "internalType": "uint256",
          "name": "tokenId",
          "type": "uint256"
        }
      ],
      "name": "Approval",
      "type": "event"
    },
    {
      "anonymous": false,
      "inputs": [
        {
          "indexed": true,
          "internalType": "address",
          "name": "owner",
          "type": "address"
        },
        {
          "indexed": true,
          "internalType": "address",
          "name": "operator",
          "type": "address"
        },
        {
          "indexed": false,
          "internalType": "bool",
          "name": "approved",
          "type": "bool"
        }
      ],
      "name": "ApprovalForAll",
      "type": "event"
    },
    {
      "anonymous": false,
      "inputs": [
        {
          "indexed": true,
          "internalType": "uint256[]",
          "name": "tokenId",
          "type": "uint256[]"
        },
        {
          "indexed": true,
          "internalType": "uint256",
          "name": "valueInWei",
          "type": "uint256"
        },
        {
          "indexed": true,
          "internalType": "address",
          "name": "seller",
          "type": "address"
        }
      ],
      "name": "BundleOffered",
      "type": "event"
    },
    {
      "anonymous": false,
      "inputs": [
        {
          "indexed": true,
          "internalType": "address",
          "name": "artist",
          "type": "address"
        },
        {
          "indexed": true,
          "internalType": "uint256",
          "name": "tokenId",
          "type": "uint256"
        }
      ],
      "name": "Minted",
      "type": "event"
    },
    {
      "anonymous": false,
      "inputs": [
        {
          "indexed": true,
          "internalType": "address",
          "name": "artist",
          "type": "address"
        },
        {
          "indexed": true,
          "internalType": "address",
          "name": "to",
          "type": "address"
        },
        {
          "indexed": true,
          "internalType": "uint256",
          "name": "tokenId",
          "type": "uint256"
        }
      ],
      "name": "MintedTo",
      "type": "event"
    },
    {
      "anonymous": false,
      "inputs": [
        {
          "indexed": true,
          "internalType": "address",
          "name": "account",
          "type": "address"
        }
      ],
      "name": "MinterAdded",
      "type": "event"
    },
    {
      "anonymous": false,
      "inputs": [
        {
          "indexed": true,
          "internalType": "address",
          "name": "account",
          "type": "address"
        }
      ],
      "name": "MinterRemoved",
      "type": "event"
    },
    {
      "anonymous": false,
      "inputs": [
        {
          "indexed": false,
          "internalType": "address",
          "name": "account",
          "type": "address"
        }
      ],
      "name": "Paused",
      "type": "event"
    },
    {
      "anonymous": false,
      "inputs": [
        {
          "indexed": true,
          "internalType": "address",
          "name": "account",
          "type": "address"
        }
      ],
      "name": "PauserAdded",
      "type": "event"
    },
    {
      "anonymous": false,
      "inputs": [
        {
          "indexed": true,
          "internalType": "address",
          "name": "account",
          "type": "address"
        }
      ],
      "name": "PauserRemoved",
      "type": "event"
    },
    {
      "anonymous": false,
      "inputs": [
        {
          "indexed": true,
          "internalType": "uint256",
          "name": "tokenId",
          "type": "uint256"
        },
        {
          "indexed": true,
          "internalType": "address",
          "name": "buyer",
          "type": "address"
        },
        {
          "indexed": true,
          "internalType": "uint256",
          "name": "priceInWei",
          "type": "uint256"
        }
      ],
      "name": "Purchase",
      "type": "event"
    },
    {
      "anonymous": false,
      "inputs": [
        {
          "indexed": true,
          "internalType": "address",
          "name": "operator",
          "type": "address"
        },
        {
          "indexed": false,
          "internalType": "uint8",
          "name": "role",
          "type": "uint8"
        }
      ],
      "name": "RoleAdded",
      "type": "event"
    },
    {
      "anonymous": false,
      "inputs": [
        {
          "indexed": true,
          "internalType": "address",
          "name": "operator",
          "type": "address"
        },
        {
          "indexed": false,
          "internalType": "uint8",
          "name": "role",
          "type": "uint8"
        }
      ],
      "name": "RoleRemoved",
      "type": "event"
    },
    {
      "anonymous": false,
      "inputs": [
        {
          "indexed": true,
          "internalType": "uint256",
          "name": "tokenId",
          "type": "uint256"
        }
      ],
      "name": "TokenNoLongerForSale",
      "type": "event"
    },
    {
      "anonymous": false,
      "inputs": [
        {
          "indexed": true,
          "internalType": "uint256",
          "name": "tokenId",
          "type": "uint256"
        },
        {
          "indexed": true,
          "internalType": "uint256",
          "name": "valueInWei",
          "type": "uint256"
        },
        {
          "indexed": true,
          "internalType": "address",
          "name": "seller",
          "type": "address"
        }
      ],
      "name": "TokenOffered",
      "type": "event"
    },
    {
      "anonymous": false,
      "inputs": [
        {
          "indexed": true,
          "internalType": "address",
          "name": "from",
          "type": "address"
        },
        {
          "indexed": true,
          "internalType": "address",
          "name": "to",
          "type": "address"
        },
        {
          "indexed": true,
          "internalType": "uint256",
          "name": "tokenId",
          "type": "uint256"
        }
      ],
      "name": "Transfer",
      "type": "event"
    },
    {
      "anonymous": false,
      "inputs": [
        {
          "indexed": false,
          "internalType": "address",
          "name": "account",
          "type": "address"
        }
      ],
      "name": "Unpaused",
      "type": "event"
    },
    {
      "constant": true,
      "inputs": [],
      "name": "ROLE_CF_ARTISTS",
      "outputs": [
        {
          "internalType": "uint8",
          "name": "",
          "type": "uint8"
        }
      ],
      "payable": false,
      "stateMutability": "view",
      "type": "function"
    },
    {
      "constant": true,
      "inputs": [],
      "name": "ROLE_CF_OFFER",
      "outputs": [
        {
          "internalType": "uint8",
          "name": "",
          "type": "uint8"
        }
      ],
      "payable": false,
      "stateMutability": "view",
      "type": "function"
    },
    {
      "constant": true,
      "inputs": [],
      "name": "ROLE_CRYPTO_FACES",
      "outputs": [
        {
          "internalType": "uint8",
          "name": "",
          "type": "uint8"
        }
      ],
      "payable": false,
      "stateMutability": "view",
      "type": "function"
    },
    {
      "constant": false,
      "inputs": [
        {
          "internalType": "address",
          "name": "_operator",
          "type": "address"
        },
        {
          "internalType": "uint8",
          "name": "_role",
          "type": "uint8"
        }
      ],
      "name": "addAddressToAccessControl",
      "outputs": [],
      "payable": false,
      "stateMutability": "nonpayable",
      "type": "function"
    },
    {
      "constant": false,
      "inputs": [
        {
          "internalType": "address",
          "name": "account",
          "type": "address"
        }
      ],
      "name": "addMinter",
      "outputs": [],
      "payable": false,
      "stateMutability": "nonpayable",
      "type": "function"
    },
    {
      "constant": false,
      "inputs": [
        {
          "internalType": "address",
          "name": "account",
          "type": "address"
        }
      ],
      "name": "addPauser",
      "outputs": [],
      "payable": false,
      "stateMutability": "nonpayable",
      "type": "function"
    },
    {
      "constant": false,
      "inputs": [
        {
          "internalType": "address",
          "name": "to",
          "type": "address"
        },
        {
          "internalType": "uint256",
          "name": "tokenId",
          "type": "uint256"
        }
      ],
      "name": "approve",
      "outputs": [],
      "payable": false,
      "stateMutability": "nonpayable",
      "type": "function"
    },
    {
      "constant": true,
      "inputs": [
        {
          "internalType": "address",
          "name": "owner",
          "type": "address"
        }
      ],
      "name": "balanceOf",
      "outputs": [
        {
          "internalType": "uint256",
          "name": "",
          "type": "uint256"
        }
      ],
      "payable": false,
      "stateMutability": "view",
      "type": "function"
    },
    {
      "constant": true,
      "inputs": [],
      "name": "cryptoFacesOwnerAddress",
      "outputs": [
        {
          "internalType": "address payable",
          "name": "",
          "type": "address"
        }
      ],
      "payable": false,
      "stateMutability": "view",
      "type": "function"
    },
    {
      "constant": true,
      "inputs": [
        {
          "internalType": "uint256",
          "name": "_tokenId",
          "type": "uint256"
        }
      ],
      "name": "exists",
      "outputs": [
        {
          "internalType": "bool",
          "name": "isExist",
          "type": "bool"
        }
      ],
      "payable": false,
      "stateMutability": "view",
      "type": "function"
    },
    {
      "constant": true,
      "inputs": [
        {
          "internalType": "uint256",
          "name": "tokenId",
          "type": "uint256"
        }
      ],
      "name": "getApproved",
      "outputs": [
        {
          "internalType": "address",
          "name": "",
          "type": "address"
        }
      ],
      "payable": false,
      "stateMutability": "view",
      "type": "function"
    },
    {
      "constant": true,
      "inputs": [
        {
          "internalType": "address",
          "name": "_operator",
          "type": "address"
        },
        {
          "internalType": "uint8",
          "name": "_role",
          "type": "uint8"
        }
      ],
      "name": "hasRole",
      "outputs": [
        {
          "internalType": "bool",
          "name": "",
          "type": "bool"
        }
      ],
      "payable": false,
      "stateMutability": "view",
      "type": "function"
    },
    {
      "constant": true,
      "inputs": [
        {
          "internalType": "address",
          "name": "owner",
          "type": "address"
        },
        {
          "internalType": "address",
          "name": "operator",
          "type": "address"
        }
      ],
      "name": "isApprovedForAll",
      "outputs": [
        {
          "internalType": "bool",
          "name": "",
          "type": "bool"
        }
      ],
      "payable": false,
      "stateMutability": "view",
      "type": "function"
    },
    {
      "constant": true,
      "inputs": [
        {
          "internalType": "address",
          "name": "account",
          "type": "address"
        }
      ],
      "name": "isMinter",
      "outputs": [
        {
          "internalType": "bool",
          "name": "",
          "type": "bool"
        }
      ],
      "payable": false,
      "stateMutability": "view",
      "type": "function"
    },
    {
      "constant": true,
      "inputs": [
        {
          "internalType": "address",
          "name": "account",
          "type": "address"
        }
      ],
      "name": "isPauser",
      "outputs": [
        {
          "internalType": "bool",
          "name": "",
          "type": "bool"
        }
      ],
      "payable": false,
      "stateMutability": "view",
      "type": "function"
    },
    {
      "constant": false,
      "inputs": [
        {
          "internalType": "string",
          "name": "_tokenURI",
          "type": "string"
        }
      ],
      "name": "mint",
      "outputs": [],
      "payable": false,
      "stateMutability": "nonpayable",
      "type": "function"
    },
    {
      "constant": false,
      "inputs": [
        {
          "internalType": "address payable",
          "name": "_to",
          "type": "address"
        },
        {
          "internalType": "string",
          "name": "_tokenURI",
          "type": "string"
        }
      ],
      "name": "mintTo",
      "outputs": [],
      "payable": false,
      "stateMutability": "nonpayable",
      "type": "function"
    },
    {
      "constant": false,
      "inputs": [
        {
          "internalType": "address",
          "name": "to",
          "type": "address"
        },
        {
          "internalType": "uint256",
          "name": "tokenId",
          "type": "uint256"
        },
        {
          "internalType": "string",
          "name": "tokenURI",
          "type": "string"
        }
      ],
      "name": "mintWithTokenURI",
      "outputs": [
        {
          "internalType": "bool",
          "name": "",
          "type": "bool"
        }
      ],
      "payable": false,
      "stateMutability": "nonpayable",
      "type": "function"
    },
    {
      "constant": true,
      "inputs": [],
      "name": "name",
      "outputs": [
        {
          "internalType": "string",
          "name": "",
          "type": "string"
        }
      ],
      "payable": false,
      "stateMutability": "view",
      "type": "function"
    },
    {
      "constant": true,
      "inputs": [],
      "name": "owner",
      "outputs": [
        {
          "internalType": "address",
          "name": "",
          "type": "address"
        }
      ],
      "payable": false,
      "stateMutability": "view",
      "type": "function"
    },
    {
      "constant": true,
      "inputs": [
        {
          "internalType": "uint256",
          "name": "tokenId",
          "type": "uint256"
        }
      ],
      "name": "ownerOf",
      "outputs": [
        {
          "internalType": "address",
          "name": "",
          "type": "address"
        }
      ],
      "payable": false,
      "stateMutability": "view",
      "type": "function"
    },
    {
      "constant": false,
      "inputs": [],
      "name": "pause",
      "outputs": [],
      "payable": false,
      "stateMutability": "nonpayable",
      "type": "function"
    },
    {
      "constant": true,
      "inputs": [],
      "name": "paused",
      "outputs": [
        {
          "internalType": "bool",
          "name": "",
          "type": "bool"
        }
      ],
      "payable": false,
      "stateMutability": "view",
      "type": "function"
    },
    {
      "constant": false,
      "inputs": [
        {
          "internalType": "address",
          "name": "_operator",
          "type": "address"
        },
        {
          "internalType": "uint8",
          "name": "_role",
          "type": "uint8"
        }
      ],
      "name": "removeAddressFromAccessControl",
      "outputs": [],
      "payable": false,
      "stateMutability": "nonpayable",
      "type": "function"
    },
    {
      "constant": false,
      "inputs": [],
      "name": "renounceMinter",
      "outputs": [],
      "payable": false,
      "stateMutability": "nonpayable",
      "type": "function"
    },
    {
      "constant": false,
      "inputs": [],
      "name": "renouncePauser",
      "outputs": [],
      "payable": false,
      "stateMutability": "nonpayable",
      "type": "function"
    },
    {
      "constant": false,
      "inputs": [
        {
          "internalType": "address",
          "name": "from",
          "type": "address"
        },
        {
          "internalType": "address",
          "name": "to",
          "type": "address"
        },
        {
          "internalType": "uint256",
          "name": "tokenId",
          "type": "uint256"
        }
      ],
      "name": "safeTransferFrom",
      "outputs": [],
      "payable": false,
      "stateMutability": "nonpayable",
      "type": "function"
    },
    {
      "constant": false,
      "inputs": [
        {
          "internalType": "address",
          "name": "from",
          "type": "address"
        },
        {
          "internalType": "address",
          "name": "to",
          "type": "address"
        },
        {
          "internalType": "uint256",
          "name": "tokenId",
          "type": "uint256"
        },
        {
          "internalType": "bytes",
          "name": "_data",
          "type": "bytes"
        }
      ],
      "name": "safeTransferFrom",
      "outputs": [],
      "payable": false,
      "stateMutability": "nonpayable",
      "type": "function"
    },
    {
      "constant": false,
      "inputs": [
        {
          "internalType": "address",
          "name": "to",
          "type": "address"
        },
        {
          "internalType": "bool",
          "name": "approved",
          "type": "bool"
        }
      ],
      "name": "setApprovalForAll",
      "outputs": [],
      "payable": false,
      "stateMutability": "nonpayable",
      "type": "function"
    },
    {
      "constant": true,
      "inputs": [
        {
          "internalType": "bytes4",
          "name": "interfaceId",
          "type": "bytes4"
        }
      ],
      "name": "supportsInterface",
      "outputs": [
        {
          "internalType": "bool",
          "name": "",
          "type": "bool"
        }
      ],
      "payable": false,
      "stateMutability": "view",
      "type": "function"
    },
    {
      "constant": true,
      "inputs": [],
      "name": "symbol",
      "outputs": [
        {
          "internalType": "string",
          "name": "",
          "type": "string"
        }
      ],
      "payable": false,
      "stateMutability": "view",
      "type": "function"
    },
    {
      "constant": true,
      "inputs": [
        {
          "internalType": "uint256",
          "name": "index",
          "type": "uint256"
        }
      ],
      "name": "tokenByIndex",
      "outputs": [
        {
          "internalType": "uint256",
          "name": "",
          "type": "uint256"
        }
      ],
      "payable": false,
      "stateMutability": "view",
      "type": "function"
    },
    {
      "constant": true,
      "inputs": [
        {
          "internalType": "address",
          "name": "owner",
          "type": "address"
        },
        {
          "internalType": "uint256",
          "name": "index",
          "type": "uint256"
        }
      ],
      "name": "tokenOfOwnerByIndex",
      "outputs": [
        {
          "internalType": "uint256",
          "name": "",
          "type": "uint256"
        }
      ],
      "payable": false,
      "stateMutability": "view",
      "type": "function"
    },
    {
      "constant": true,
      "inputs": [
        {
          "internalType": "uint256",
          "name": "tokenId",
          "type": "uint256"
        }
      ],
      "name": "tokenURI",
      "outputs": [
        {
          "internalType": "string",
          "name": "",
          "type": "string"
        }
      ],
      "payable": false,
      "stateMutability": "view",
      "type": "function"
    },
    {
      "constant": true,
      "inputs": [
        {
          "internalType": "address",
          "name": "_owner",
          "type": "address"
        }
      ],
      "name": "tokensOf",
      "outputs": [
        {
          "internalType": "uint256[]",
          "name": "_tokenIds",
          "type": "uint256[]"
        }
      ],
      "payable": false,
      "stateMutability": "view",
      "type": "function"
    },
    {
      "constant": true,
      "inputs": [],
      "name": "totalPurchaseValueInWei",
      "outputs": [
        {
          "internalType": "uint256",
          "name": "",
          "type": "uint256"
        }
      ],
      "payable": false,
      "stateMutability": "view",
      "type": "function"
    },
    {
      "constant": true,
      "inputs": [],
      "name": "totalSupply",
      "outputs": [
        {
          "internalType": "uint256",
          "name": "",
          "type": "uint256"
        }
      ],
      "payable": false,
      "stateMutability": "view",
      "type": "function"
    },
    {
      "constant": false,
      "inputs": [
        {
          "internalType": "address",
          "name": "from",
          "type": "address"
        },
        {
          "internalType": "address",
          "name": "to",
          "type": "address"
        },
        {
          "internalType": "uint256",
          "name": "tokenId",
          "type": "uint256"
        }
      ],
      "name": "transferFrom",
      "outputs": [],
      "payable": false,
      "stateMutability": "nonpayable",
      "type": "function"
    },
    {
      "constant": false,
      "inputs": [],
      "name": "unpause",
      "outputs": [],
      "payable": false,
      "stateMutability": "nonpayable",
      "type": "function"
    },
    {
      "constant": false,
      "inputs": [
        {
          "internalType": "uint256",
          "name": "_tokenId",
          "type": "uint256"
        },
        {
          "internalType": "uint256",
          "name": "_tokenValueInWei",
          "type": "uint256"
        }
      ],
      "name": "offerTokenForSale",
      "outputs": [],
      "payable": false,
      "stateMutability": "nonpayable",
      "type": "function"
    },
    {
      "constant": false,
      "inputs": [
        {
          "internalType": "address",
          "name": "_to",
          "type": "address"
        },
        {
          "internalType": "uint256",
          "name": "_tokenId",
          "type": "uint256"
        },
        {
          "internalType": "uint256",
          "name": "_tokenValueInWei",
          "type": "uint256"
        }
      ],
      "name": "offerTokenForSaleTo",
      "outputs": [],
      "payable": false,
      "stateMutability": "nonpayable",
      "type": "function"
    },
    {
      "constant": false,
      "inputs": [
        {
          "internalType": "address",
          "name": "_to",
          "type": "address"
        },
        {
          "internalType": "uint256",
          "name": "_tokenId",
          "type": "uint256"
        }
      ],
      "name": "transferTokenTo",
      "outputs": [],
      "payable": false,
      "stateMutability": "nonpayable",
      "type": "function"
    },
    {
      "constant": false,
      "inputs": [
        {
          "internalType": "address",
          "name": "_to",
          "type": "address"
        },
        {
          "internalType": "uint256[]",
          "name": "_tokenIds",
          "type": "uint256[]"
        }
      ],
      "name": "transferTokensTo",
      "outputs": [],
      "payable": false,
      "stateMutability": "nonpayable",
      "type": "function"
    },
    {
      "constant": false,
      "inputs": [
        {
          "internalType": "uint256",
          "name": "_tokenId",
          "type": "uint256"
        }
      ],
      "name": "tokenNoLongerForSale",
      "outputs": [],
      "payable": false,
      "stateMutability": "nonpayable",
      "type": "function"
    }
  ],
  "bytecode": "0x60806040526040518060400160405280601c81526020017f68747470733a2f2f697066732e696e667572612e696f2f697066732f000000008152506011908051906020019062000051929190620005e5565b50620186a16012553480156200006657600080fd5b506040518060400160405280600b81526020017f43727970746f46616365730000000000000000000000000000000000000000008152506040518060400160405280600281526020017f43460000000000000000000000000000000000000000000000000000000000008152508181620000ed6301ffc9a760e01b6200024e60201b60201c565b620001056380ac58cd60e01b6200024e60201b60201c565b6200011d63780e9d6360e01b6200024e60201b60201c565b816009908051906020019062000135929190620005e5565b5080600a90805190602001906200014e929190620005e5565b5062000167635b5e139f60e01b6200024e60201b60201c565b505050506200018b6200017f6200035760201b60201c565b6200035f60201b60201c565b33600d60006101000a81548173ffffffffffffffffffffffffffffffffffffffff021916908373ffffffffffffffffffffffffffffffffffffffff160217905550620001ec620001e06200035760201b60201c565b620003c060201b60201c565b6000601060006101000a81548160ff02191690831515021790555033601060016101000a81548173ffffffffffffffffffffffffffffffffffffffff021916908373ffffffffffffffffffffffffffffffffffffffff16021790555062000694565b63ffffffff60e01b817bffffffffffffffffffffffffffffffffffffffffffffffffffffffff19161415620002eb576040517f08c379a000000000000000000000000000000000000000000000000000000000815260040180806020018281038252601c8152602001807f4552433136353a20696e76616c696420696e746572666163652069640000000081525060200191505060405180910390fd5b6001600080837bffffffffffffffffffffffffffffffffffffffffffffffffffffffff19167bffffffffffffffffffffffffffffffffffffffffffffffffffffffff1916815260200190815260200160002060006101000a81548160ff02191690831515021790555050565b600033905090565b6200037a81600c6200042160201b62003e2c1790919060201c565b8073ffffffffffffffffffffffffffffffffffffffff167f6ae172837ea30b801fbfcdd4108aa1d5bf8ff775444fd70256b44e6bf3dfc3f660405160405180910390a250565b620003db81600f6200042160201b62003e2c1790919060201c565b8073ffffffffffffffffffffffffffffffffffffffff167f6719d08c1888103bea251a4ed56406bd0c3e69723c8a1686e017e7bbe159b6f860405160405180910390a250565b6200043382826200050560201b60201c565b15620004a7576040517f08c379a000000000000000000000000000000000000000000000000000000000815260040180806020018281038252601f8152602001807f526f6c65733a206163636f756e7420616c72656164792068617320726f6c650081525060200191505060405180910390fd5b60018260000160008373ffffffffffffffffffffffffffffffffffffffff1673ffffffffffffffffffffffffffffffffffffffff16815260200190815260200160002060006101000a81548160ff0219169083151502179055505050565b60008073ffffffffffffffffffffffffffffffffffffffff168273ffffffffffffffffffffffffffffffffffffffff1614156200058e576040517f08c379a00000000000000000000000000000000000000000000000000000000081526004018080602001828103825260228152602001806200acf96022913960400191505060405180910390fd5b8260000160008373ffffffffffffffffffffffffffffffffffffffff1673ffffffffffffffffffffffffffffffffffffffff16815260200190815260200160002060009054906101000a900460ff16905092915050565b828054600181600116156101000203166002900490600052602060002090601f016020900481019282601f106200062857805160ff191683800117855562000659565b8280016001018555821562000659579182015b82811115620006585782518255916020019190600101906200063b565b5b5090506200066891906200066c565b5090565b6200069191905b808211156200068d57600081600090555060010162000673565b5090565b90565b61a65580620006a46000396000f3fe60806040523480156200001157600080fd5b5060043610620002af5760003560e01c80636ef8d66d11620001715780639cfccf3f11620000d5578063b88d4fde1162000093578063b88d4fde1462000ff7578063c87b56dd1462001102578063cfdc316514620011af578063d85d3d2714620011ea578063e985e9c514620012ab578063f717dfcd146200132a57620002af565b80639cfccf3f1462000e78578063a22cb4651462000e9e578063aa271e1a1462000ef1578063ae8337161462000f50578063b641c1501462000fab57620002af565b80638da5cb5b116200012f5780638da5cb5b1462000c9157806395a8c58d1462000cdd57806395d89b411462000d49578063975347b81462000dd1578063983b2d561462000e25578063986502751462000e6c57620002af565b80636ef8d66d1462000b8657806370a082311462000b925780638144650a1462000bed57806382dc1ec41462000c3e5780638456cb591462000c8557620002af565b80633f4ba83a11620002195780634f558e7911620001d75780634f558e7914620008c25780634f6ccce7146200090b57806350bb4e7f14620009505780635a3f26721462000a535780635c975abb1462000af15780636352211e1462000b1557620002af565b80633f4ba83a146200076c57806342842e0e14620007785780634392325814620007e957806346fbf68e146200083d5780634acfa95c146200089c57620002af565b80630bade11811620002735780630bade1181462000547578063109e3b6c146200062557806318160ddd146200065657806323b872dd14620006765780632bbd84e814620006e75780632f745c59146200070757620002af565b806275a31714620002b457806301ffc9a7146200039557806306fdde0314620003fd578063081812fc1462000485578063095ea7b314620004f6575b600080fd5b6200039360048036036040811015620002cc57600080fd5b81019080803573ffffffffffffffffffffffffffffffffffffffff169060200190929190803590602001906401000000008111156200030a57600080fd5b8201836020820111156200031d57600080fd5b803590602001918460018302840111640100000000831117156200034057600080fd5b91908080601f016020809104026020016040519081016040528093929190818152602001838380828437600081840152601f19601f82011690508083019250505050505050919291929050505062001350565b005b620003e360048036036020811015620003ad57600080fd5b8101908080357bffffffffffffffffffffffffffffffffffffffffffffffffffffffff19169060200190929190505050620016ee565b604051808215151515815260200191505060405180910390f35b6200040762001755565b6040518080602001828103825283818151815260200191508051906020019080838360005b83811015620004495780820151818401526020810190506200042c565b50505050905090810190601f168015620004775780820380516001836020036101000a031916815260200191505b509250505060405180910390f35b620004b4600480360360208110156200049d57600080fd5b8101908080359060200190929190505050620017fb565b604051808273ffffffffffffffffffffffffffffffffffffffff1673ffffffffffffffffffffffffffffffffffffffff16815260200191505060405180910390f35b62000545600480360360408110156200050e57600080fd5b81019080803573ffffffffffffffffffffffffffffffffffffffff169060200190929190803590602001909291905050506200189a565b005b62000623600480360360408110156200055f57600080fd5b81019080803573ffffffffffffffffffffffffffffffffffffffff169060200190929190803590602001906401000000008111156200059d57600080fd5b820183602082011115620005b057600080fd5b80359060200191846020830284011164010000000083111715620005d357600080fd5b919080806020026020016040519081016040528093929190818152602001838360200280828437600081840152601f19601f82011690508083019250505050505050919291929050505062001a8e565b005b62000654600480360360208110156200063d57600080fd5b810190808035906020019092919050505062001c85565b005b6200066062001ec2565b6040518082815260200191505060405180910390f35b620006e5600480360360608110156200068e57600080fd5b81019080803573ffffffffffffffffffffffffffffffffffffffff169060200190929190803573ffffffffffffffffffffffffffffffffffffffff1690602001909291908035906020019092919050505062001ecf565b005b620006f162001f4d565b6040518082815260200191505060405180910390f35b62000756600480360360408110156200071f57600080fd5b81019080803573ffffffffffffffffffffffffffffffffffffffff1690602001909291908035906020019092919050505062001f53565b6040518082815260200191505060405180910390f35b6200077662002017565b005b620007e7600480360360608110156200079057600080fd5b81019080803573ffffffffffffffffffffffffffffffffffffffff169060200190929190803573ffffffffffffffffffffffffffffffffffffffff169060200190929190803590602001909291905050506200218e565b005b6200083b600480360360408110156200080157600080fd5b81019080803573ffffffffffffffffffffffffffffffffffffffff169060200190929190803560ff169060200190929190505050620021b0565b005b62000882600480360360208110156200085557600080fd5b81019080803573ffffffffffffffffffffffffffffffffffffffff169060200190929190505050620022a5565b604051808215151515815260200191505060405180910390f35b620008a6620022c4565b604051808260ff1660ff16815260200191505060405180910390f35b620008f160048036036020811015620008da57600080fd5b8101908080359060200190929190505050620022c9565b604051808215151515815260200191505060405180910390f35b6200093a600480360360208110156200092357600080fd5b8101908080359060200190929190505050620022e0565b6040518082815260200191505060405180910390f35b62000a39600480360360608110156200096857600080fd5b81019080803573ffffffffffffffffffffffffffffffffffffffff1690602001909291908035906020019092919080359060200190640100000000811115620009b057600080fd5b820183602082011115620009c357600080fd5b80359060200191846001830284011164010000000083111715620009e657600080fd5b91908080601f016020809104026020016040519081016040528093929190818152602001838380828437600081840152601f19601f82011690508083019250505050505050919291929050505062002365565b604051808215151515815260200191505060405180910390f35b62000a986004803603602081101562000a6b57600080fd5b81019080803573ffffffffffffffffffffffffffffffffffffffff169060200190929190505050620023f5565b6040518080602001828103825283818151815260200191508051906020019060200280838360005b8381101562000add57808201518184015260208101905062000ac0565b505050509050019250505060405180910390f35b62000afb6200252a565b604051808215151515815260200191505060405180910390f35b62000b446004803603602081101562000b2d57600080fd5b810190808035906020019092919050505062002541565b604051808273ffffffffffffffffffffffffffffffffffffffff1673ffffffffffffffffffffffffffffffffffffffff16815260200191505060405180910390f35b62000b906200260b565b005b62000bd76004803603602081101562000baa57600080fd5b81019080803573ffffffffffffffffffffffffffffffffffffffff16906020019092919050505062002621565b6040518082815260200191505060405180910390f35b62000c3c6004803603604081101562000c0557600080fd5b81019080803573ffffffffffffffffffffffffffffffffffffffff16906020019092919080359060200190929190505050620026fa565b005b62000c836004803603602081101562000c5657600080fd5b81019080803573ffffffffffffffffffffffffffffffffffffffff1690602001909291905050506200281e565b005b62000c8f62002897565b005b62000c9b62002a0f565b604051808273ffffffffffffffffffffffffffffffffffffffff1673ffffffffffffffffffffffffffffffffffffffff16815260200191505060405180910390f35b62000d2f6004803603604081101562000cf557600080fd5b81019080803573ffffffffffffffffffffffffffffffffffffffff169060200190929190803560ff16906020019092919050505062002a35565b604051808215151515815260200191505060405180910390f35b62000d5362002a6c565b6040518080602001828103825283818151815260200191508051906020019080838360005b8381101562000d9557808201518184015260208101905062000d78565b50505050905090810190601f16801562000dc35780820380516001836020036101000a031916815260200191505b509250505060405180910390f35b62000e236004803603604081101562000de957600080fd5b81019080803573ffffffffffffffffffffffffffffffffffffffff169060200190929190803560ff16906020019092919050505062002b12565b005b62000e6a6004803603602081101562000e3d57600080fd5b81019080803573ffffffffffffffffffffffffffffffffffffffff16906020019092919050505062002c07565b005b62000e7662002c80565b005b62000e8262002c96565b604051808260ff1660ff16815260200191505060405180910390f35b62000eef6004803603604081101562000eb657600080fd5b81019080803573ffffffffffffffffffffffffffffffffffffffff16906020019092919080351515906020019092919050505062002c9b565b005b62000f366004803603602081101562000f0957600080fd5b81019080803573ffffffffffffffffffffffffffffffffffffffff16906020019092919050505062002e5a565b604051808215151515815260200191505060405180910390f35b62000fa96004803603606081101562000f6857600080fd5b81019080803573ffffffffffffffffffffffffffffffffffffffff169060200190929190803590602001909291908035906020019092919050505062002e79565b005b62000fb562003241565b604051808273ffffffffffffffffffffffffffffffffffffffff1673ffffffffffffffffffffffffffffffffffffffff16815260200191505060405180910390f35b62001100600480360360808110156200100f57600080fd5b81019080803573ffffffffffffffffffffffffffffffffffffffff169060200190929190803573ffffffffffffffffffffffffffffffffffffffff16906020019092919080359060200190929190803590602001906401000000008111156200107757600080fd5b8201836020820111156200108a57600080fd5b80359060200191846001830284011164010000000083111715620010ad57600080fd5b91908080601f016020809104026020016040519081016040528093929190818152602001838380828437600081840152601f19601f8201169050808301925050505050505091929192905050506200326b565b005b62001131600480360360208110156200111a57600080fd5b8101908080359060200190929190505050620032eb565b6040518080602001828103825283818151815260200191508051906020019080838360005b838110156200117357808201518184015260208101905062001156565b50505050905090810190601f168015620011a15780820380516001836020036101000a031916815260200191505b509250505060405180910390f35b620011e860048036036040811015620011c757600080fd5b81019080803590602001909291908035906020019092919050505062003406565b005b620012a9600480360360208110156200120257600080fd5b81019080803590602001906401000000008111156200122057600080fd5b8201836020820111156200123357600080fd5b803590602001918460018302840111640100000000831117156200125657600080fd5b91908080601f016020809104026020016040519081016040528093929190818152602001838380828437600081840152601f19601f820116905080830192505050505050509192919290505050620037ce565b005b6200131060048036036040811015620012c357600080fd5b81019080803573ffffffffffffffffffffffffffffffffffffffff169060200190929190803573ffffffffffffffffffffffffffffffffffffffff16906020019092919050505062003b66565b604051808215151515815260200191505060405180910390f35b6200133462003bfa565b604051808260ff1660ff16815260200191505060405180910390f35b600d60009054906101000a900473ffffffffffffffffffffffffffffffffffffffff1673ffffffffffffffffffffffffffffffffffffffff163373ffffffffffffffffffffffffffffffffffffffff161480620013b65750620013b533600162002a35565b5b80620013cb5750620013ca33600262002a35565b5b620013d557600080fd5b6014816040518082805190602001908083835b602083106200140d5780518252602082019150602081019050602083039250620013e8565b6001836020036101000a038019825116818451168082178552505050505050905001915050908152602001604051809103902060009054906101000a900460ff16156200145957600080fd5b62001468826012548362002365565b5060016014826040518082805190602001908083835b60208310620014a357805182526020820191506020810190506020830392506200147e565b6001836020036101000a038019825116818451168082178552505050505050905001915050908152602001604051809103902060006101000a81548160ff02191690831515021790555060138190806001815401808255809150509060018203906000526020600020016000909192909190915090805190602001906200152c92919062004f2f565b50506040518060a0016040528060125481526020016200154b62003bff565b73ffffffffffffffffffffffffffffffffffffffff1681526020018281526020018373ffffffffffffffffffffffffffffffffffffffff16815260200160008152506015600060125481526020019081526020016000206000820151816000015560208201518160010160006101000a81548173ffffffffffffffffffffffffffffffffffffffff021916908373ffffffffffffffffffffffffffffffffffffffff16021790555060408201518160020190805190602001906200161192919062004fb6565b5060608201518160030160006101000a81548173ffffffffffffffffffffffffffffffffffffffff021916908373ffffffffffffffffffffffffffffffffffffffff160217905550608082015181600401559050506200167e600160125462003c0790919063ffffffff16565b6012819055506012548273ffffffffffffffffffffffffffffffffffffffff16620016a862003bff565b73ffffffffffffffffffffffffffffffffffffffff167f12f50ca340461dbd90fa123c04da83c9568bcd87f603ad247bb1a3b66ef7282d60405160405180910390a45050565b6000806000837bffffffffffffffffffffffffffffffffffffffffffffffffffffffff19167bffffffffffffffffffffffffffffffffffffffffffffffffffffffff1916815260200190815260200160002060009054906101000a900460ff169050919050565b606060098054600181600116156101000203166002900480601f016020809104026020016040519081016040528092919081815260200182805460018160011615610100020316600290048015620017f15780601f10620017c557610100808354040283529160200191620017f1565b820191906000526020600020905b815481529060010190602001808311620017d357829003601f168201915b5050505050905090565b6000620018088262003c90565b6200185f576040517f08c379a000000000000000000000000000000000000000000000000000000000815260040180806020018281038252602c8152602001806200a42e602c913960400191505060405180910390fd5b6002600083815260200190815260200160002060009054906101000a900473ffffffffffffffffffffffffffffffffffffffff169050919050565b6000620018a78262002541565b90508073ffffffffffffffffffffffffffffffffffffffff168373ffffffffffffffffffffffffffffffffffffffff16141562001930576040517f08c379a00000000000000000000000000000000000000000000000000000000081526004018080602001828103825260218152602001806200a5596021913960400191505060405180910390fd5b8073ffffffffffffffffffffffffffffffffffffffff166200195162003bff565b73ffffffffffffffffffffffffffffffffffffffff16148062001985575062001984816200197e62003bff565b62003b66565b5b620019dc576040517f08c379a00000000000000000000000000000000000000000000000000000000081526004018080602001828103825260388152602001806200a3526038913960400191505060405180910390fd5b826002600084815260200190815260200160002060006101000a81548173ffffffffffffffffffffffffffffffffffffffff021916908373ffffffffffffffffffffffffffffffffffffffff160217905550818373ffffffffffffffffffffffffffffffffffffffff168273ffffffffffffffffffffffffffffffffffffffff167f8c5be1e5ebec7d5bd14f71427d1e84f3dd0314c0f7b2291e5b200ac8c7c3b92560405160405180910390a4505050565b62001a9862003bff565b8160008090505b8151811162001b2d5762001ac88383838151811062001aba57fe5b602002602001015162003d02565b62001b1f576040517f08c379a00000000000000000000000000000000000000000000000000000000081526004018080602001828103825260248152602001806200a5fd6024913960400191505060405180910390fd5b808060010191505062001a9f565b508260005b8151811162001bbf5762001b5a82828151811062001b4c57fe5b6020026020010151620022c9565b62001bb1576040517f08c379a00000000000000000000000000000000000000000000000000000000081526004018080602001828103825260268152602001806200a5d76026913960400191505060405180910390fd5b808060010191505062001b32565b5060005b8451811162001c3857601a600086838151811062001bdd57fe5b6020026020010151815260200190815260200160002060000160009054906101000a900460ff161562001c2a5762001c2985828151811062001c1b57fe5b602002602001015162001c85565b5b808060010191505062001bc3565b5060005b8451811162001c7d5762001c6f62001c5362003bff565b8787848151811062001c6157fe5b60200260200101516200218e565b808060010191505062001c3c565b505050505050565b62001c8f62003bff565b8162001c9c828262003d02565b62001cf3576040517f08c379a00000000000000000000000000000000000000000000000000000000081526004018080602001828103825260248152602001806200a5fd6024913960400191505060405180910390fd5b8262001cff81620022c9565b62001d56576040517f08c379a00000000000000000000000000000000000000000000000000000000081526004018080602001828103825260268152602001806200a5d76026913960400191505060405180910390fd5b6040518060a0016040528060001515815260200185815260200162001d7a62003bff565b73ffffffffffffffffffffffffffffffffffffffff16815260200160008152602001600073ffffffffffffffffffffffffffffffffffffffff16815250601a600086815260200190815260200160002060008201518160000160006101000a81548160ff0219169083151502179055506020820151816001015560408201518160020160006101000a81548173ffffffffffffffffffffffffffffffffffffffff021916908373ffffffffffffffffffffffffffffffffffffffff1602179055506060820151816003015560808201518160040160006101000a81548173ffffffffffffffffffffffffffffffffffffffff021916908373ffffffffffffffffffffffffffffffffffffffff160217905550905050837f3f20d733f4a881f45c40b9e9b73a69bcad87d991a549ce686bdac4ef53a416c760405160405180910390a250505050565b6000600780549050905090565b62001ee462001edd62003bff565b8262003d02565b62001f3b576040517f08c379a00000000000000000000000000000000000000000000000000000000081526004018080602001828103825260318152602001806200a57a6031913960400191505060405180910390fd5b62001f4883838362003e02565b505050565b601c5481565b600062001f608362002621565b821062001fb9576040517f08c379a000000000000000000000000000000000000000000000000000000000815260040180806020018281038252602b8152602001806200a275602b913960400191505060405180910390fd5b600560008473ffffffffffffffffffffffffffffffffffffffff1673ffffffffffffffffffffffffffffffffffffffff16815260200190815260200160002082815481106200200457fe5b9060005260206000200154905092915050565b6200202b6200202562003bff565b620022a5565b62002082576040517f08c379a00000000000000000000000000000000000000000000000000000000081526004018080602001828103825260308152602001806200a2d26030913960400191505060405180910390fd5b601060009054906101000a900460ff1662002105576040517f08c379a00000000000000000000000000000000000000000000000000000000081526004018080602001828103825260148152602001807f5061757361626c653a206e6f742070617573656400000000000000000000000081525060200191505060405180910390fd5b6000601060006101000a81548160ff0219169083151502179055507f5db9ee0a495bf2e6ff9c91a7834c1ba4fdd244a5e8aa4e537bd38aeae4b073aa6200214b62003bff565b604051808273ffffffffffffffffffffffffffffffffffffffff1673ffffffffffffffffffffffffffffffffffffffff16815260200191505060405180910390a1565b620021ab838383604051806020016040528060008152506200326b565b505050565b600d60009054906101000a900473ffffffffffffffffffffffffffffffffffffffff1673ffffffffffffffffffffffffffffffffffffffff163373ffffffffffffffffffffffffffffffffffffffff1614806200221657506200221533600162002a35565b5b6200222057600080fd5b6200224d82600e60008460ff1660ff16815260200190815260200160002062003e2c90919063ffffffff16565b8173ffffffffffffffffffffffffffffffffffffffff167f0ed8a6a6a166243876472f7a8610b62c1a76c67911642d39ff34ead38105534f82604051808260ff1660ff16815260200191505060405180910390a25050565b6000620022bd82600f62003f0a90919063ffffffff16565b9050919050565b600181565b6000620022d68262003c90565b9050809050919050565b6000620022ec62001ec2565b821062002345576040517f08c379a000000000000000000000000000000000000000000000000000000000815260040180806020018281038252602c8152602001806200a5ab602c913960400191505060405180910390fd5b600782815481106200235357fe5b90600052602060002001549050919050565b60006200237b6200237562003bff565b62002e5a565b620023d2576040517f08c379a00000000000000000000000000000000000000000000000000000000081526004018080602001828103825260308152602001806200a3dd6030913960400191505060405180910390fd5b620023de848462003fea565b620023ea838362004011565b600190509392505050565b6060600d60009054906101000a900473ffffffffffffffffffffffffffffffffffffffff1673ffffffffffffffffffffffffffffffffffffffff163373ffffffffffffffffffffffffffffffffffffffff1614806200245d57506200245c33600162002a35565b5b6200246757600080fd5b600073ffffffffffffffffffffffffffffffffffffffff168273ffffffffffffffffffffffffffffffffffffffff161415620024a257600080fd5b620024cf600d60009054906101000a900473ffffffffffffffffffffffffffffffffffffffff16620040a1565b8054806020026020016040519081016040528092919081815260200182805480156200251b57602002820191906000526020600020905b81548152602001906001019080831162002506575b50505050509050809050919050565b6000601060009054906101000a900460ff16905090565b6000806001600084815260200190815260200160002060009054906101000a900473ffffffffffffffffffffffffffffffffffffffff169050600073ffffffffffffffffffffffffffffffffffffffff168173ffffffffffffffffffffffffffffffffffffffff16141562002602576040517f08c379a00000000000000000000000000000000000000000000000000000000081526004018080602001828103825260298152602001806200a3b46029913960400191505060405180910390fd5b80915050919050565b6200261f6200261962003bff565b620040e9565b565b60008073ffffffffffffffffffffffffffffffffffffffff168273ffffffffffffffffffffffffffffffffffffffff161415620026aa576040517f08c379a000000000000000000000000000000000000000000000000000000000815260040180806020018281038252602a8152602001806200a38a602a913960400191505060405180910390fd5b620026f3600360008473ffffffffffffffffffffffffffffffffffffffff1673ffffffffffffffffffffffffffffffffffffffff16815260200190815260200160002062004145565b9050919050565b6200270462003bff565b8162002711828262003d02565b62002768576040517f08c379a00000000000000000000000000000000000000000000000000000000081526004018080602001828103825260248152602001806200a5fd6024913960400191505060405180910390fd5b826200277481620022c9565b620027cb576040517f08c379a00000000000000000000000000000000000000000000000000000000081526004018080602001828103825260268152602001806200a5d76026913960400191505060405180910390fd5b601a600085815260200190815260200160002060000160009054906101000a900460ff16156200280157620028008462001c85565b5b620028176200280f62003bff565b86866200218e565b5050505050565b620028326200282c62003bff565b620022a5565b62002889576040517f08c379a00000000000000000000000000000000000000000000000000000000081526004018080602001828103825260308152602001806200a2d26030913960400191505060405180910390fd5b620028948162004153565b50565b620028ab620028a562003bff565b620022a5565b62002902576040517f08c379a00000000000000000000000000000000000000000000000000000000081526004018080602001828103825260308152602001806200a2d26030913960400191505060405180910390fd5b601060009054906101000a900460ff161562002986576040517f08c379a00000000000000000000000000000000000000000000000000000000081526004018080602001828103825260108152602001807f5061757361626c653a207061757365640000000000000000000000000000000081525060200191505060405180910390fd5b6001601060006101000a81548160ff0219169083151502179055507f62e78cea01bee320cd4e420270b5ea74000d11b0c9f74754ebdbfc544b05a258620029cc62003bff565b604051808273ffffffffffffffffffffffffffffffffffffffff1673ffffffffffffffffffffffffffffffffffffffff16815260200191505060405180910390a1565b600d60009054906101000a900473ffffffffffffffffffffffffffffffffffffffff1681565b600062002a6483600e60008560ff1660ff16815260200190815260200160002062003f0a90919063ffffffff16565b905092915050565b6060600a8054600181600116156101000203166002900480601f01602080910402602001604051908101604052809291908181526020018280546001816001161561010002031660029004801562002b085780601f1062002adc5761010080835404028352916020019162002b08565b820191906000526020600020905b81548152906001019060200180831162002aea57829003601f168201915b5050505050905090565b600d60009054906101000a900473ffffffffffffffffffffffffffffffffffffffff1673ffffffffffffffffffffffffffffffffffffffff163373ffffffffffffffffffffffffffffffffffffffff16148062002b78575062002b7733600162002a35565b5b62002b8257600080fd5b62002baf82600e60008460ff1660ff168152602001908152602001600020620041af90919063ffffffff16565b8173ffffffffffffffffffffffffffffffffffffffff167f3824b64a1e23d936b458f4e31445c664d2bc9c14e842407917cbc100b0236a2f82604051808260ff1660ff16815260200191505060405180910390a25050565b62002c1b62002c1562003bff565b62002e5a565b62002c72576040517f08c379a00000000000000000000000000000000000000000000000000000000081526004018080602001828103825260308152602001806200a3dd6030913960400191505060405180910390fd5b62002c7d8162004270565b50565b62002c9462002c8e62003bff565b620042cc565b565b600281565b62002ca562003bff565b73ffffffffffffffffffffffffffffffffffffffff168273ffffffffffffffffffffffffffffffffffffffff16141562002d47576040517f08c379a00000000000000000000000000000000000000000000000000000000081526004018080602001828103825260198152602001807f4552433732313a20617070726f766520746f2063616c6c65720000000000000081525060200191505060405180910390fd5b806004600062002d5662003bff565b73ffffffffffffffffffffffffffffffffffffffff1673ffffffffffffffffffffffffffffffffffffffff16815260200190815260200160002060008473ffffffffffffffffffffffffffffffffffffffff1673ffffffffffffffffffffffffffffffffffffffff16815260200190815260200160002060006101000a81548160ff0219169083151502179055508173ffffffffffffffffffffffffffffffffffffffff1662002e0562003bff565b73ffffffffffffffffffffffffffffffffffffffff167f17307eab39ab6107e8899845ad3d59bd9653f200f220920489ca2b5937696c3183604051808215151515815260200191505060405180910390a35050565b600062002e7282600c62003f0a90919063ffffffff16565b9050919050565b62002e8362003bff565b8262002e90828262003d02565b62002ee7576040517f08c379a00000000000000000000000000000000000000000000000000000000081526004018080602001828103825260248152602001806200a5fd6024913960400191505060405180910390fd5b8362002ef381620022c9565b62002f4a576040517f08c379a00000000000000000000000000000000000000000000000000000000081526004018080602001828103825260268152602001806200a5d76026913960400191505060405180910390fd5b84600073ffffffffffffffffffffffffffffffffffffffff166019600083815260200190815260200160002060009054906101000a900473ffffffffffffffffffffffffffffffffffffffff1673ffffffffffffffffffffffffffffffffffffffff161462003005576040517f08c379a00000000000000000000000000000000000000000000000000000000081526004018080602001828103825260598152602001806200a4866059913960600191505060405180910390fd5b846018600088815260200190815260200160002081905550600086866040516200302f906200503d565b8083815260200182815260200192505050604051809103906000f0801580156200305d573d6000803e3d6000fd5b509050806019600089815260200190815260200160002060006101000a81548173ffffffffffffffffffffffffffffffffffffffff021916908373ffffffffffffffffffffffffffffffffffffffff1602179055506040518060a00160405280600115158152602001888152602001620030d662003bff565b73ffffffffffffffffffffffffffffffffffffffff1681526020018781526020018973ffffffffffffffffffffffffffffffffffffffff16815250601a600089815260200190815260200160002060008201518160000160006101000a81548160ff0219169083151502179055506020820151816001015560408201518160020160006101000a81548173ffffffffffffffffffffffffffffffffffffffff021916908373ffffffffffffffffffffffffffffffffffffffff1602179055506060820151816003015560808201518160040160006101000a81548173ffffffffffffffffffffffffffffffffffffffff021916908373ffffffffffffffffffffffffffffffffffffffff160217905550905050620031f362003bff565b73ffffffffffffffffffffffffffffffffffffffff1686887fe2e23cc3c22cf5ee571d706a9421200135e2dc6a08e1ead83ad0c7c7234ad26260405160405180910390a45050505050505050565b6000601060019054906101000a900473ffffffffffffffffffffffffffffffffffffffff16905090565b620032806200327962003bff565b8362003d02565b620032d7576040517f08c379a00000000000000000000000000000000000000000000000000000000081526004018080602001828103825260318152602001806200a57a6031913960400191505060405180910390fd5b620032e58484848462004328565b50505050565b6060620032f88262003c90565b6200334f576040517f08c379a000000000000000000000000000000000000000000000000000000000815260040180806020018281038252602f8152602001806200a52a602f913960400191505060405180910390fd5b600b60008381526020019081526020016000208054600181600116156101000203166002900480601f016020809104026020016040519081016040528092919081815260200182805460018160011615610100020316600290048015620033fa5780601f10620033ce57610100808354040283529160200191620033fa565b820191906000526020600020905b815481529060010190602001808311620033dc57829003601f168201915b50505050509050919050565b6200341062003bff565b826200341d828262003d02565b62003474576040517f08c379a00000000000000000000000000000000000000000000000000000000081526004018080602001828103825260248152602001806200a5fd6024913960400191505060405180910390fd5b836200348081620022c9565b620034d7576040517f08c379a00000000000000000000000000000000000000000000000000000000081526004018080602001828103825260268152602001806200a5d76026913960400191505060405180910390fd5b84600073ffffffffffffffffffffffffffffffffffffffff166019600083815260200190815260200160002060009054906101000a900473ffffffffffffffffffffffffffffffffffffffff1673ffffffffffffffffffffffffffffffffffffffff161462003592576040517f08c379a00000000000000000000000000000000000000000000000000000000081526004018080602001828103825260598152602001806200a4866059913960600191505060405180910390fd5b84601860008881526020019081526020016000208190555060008686604051620035bc906200503d565b8083815260200182815260200192505050604051809103906000f080158015620035ea573d6000803e3d6000fd5b509050806019600089815260200190815260200160002060006101000a81548173ffffffffffffffffffffffffffffffffffffffff021916908373ffffffffffffffffffffffffffffffffffffffff1602179055506040518060a001604052806001151581526020018881526020016200366362003bff565b73ffffffffffffffffffffffffffffffffffffffff168152602001878152602001600073ffffffffffffffffffffffffffffffffffffffff16815250601a600089815260200190815260200160002060008201518160000160006101000a81548160ff0219169083151502179055506020820151816001015560408201518160020160006101000a81548173ffffffffffffffffffffffffffffffffffffffff021916908373ffffffffffffffffffffffffffffffffffffffff1602179055506060820151816003015560808201518160040160006101000a81548173ffffffffffffffffffffffffffffffffffffffff021916908373ffffffffffffffffffffffffffffffffffffffff1602179055509050506200378162003bff565b73ffffffffffffffffffffffffffffffffffffffff1686887fe2e23cc3c22cf5ee571d706a9421200135e2dc6a08e1ead83ad0c7c7234ad26260405160405180910390a450505050505050565b600d60009054906101000a900473ffffffffffffffffffffffffffffffffffffffff1673ffffffffffffffffffffffffffffffffffffffff163373ffffffffffffffffffffffffffffffffffffffff1614806200383457506200383333600162002a35565b5b806200384957506200384833600262002a35565b5b6200385357600080fd5b6014816040518082805190602001908083835b602083106200388b578051825260208201915060208101905060208303925062003866565b6001836020036101000a038019825116818451168082178552505050505050905001915050908152602001604051809103902060009054906101000a900460ff1615620038d757600080fd5b620038ef620038e562003bff565b6012548362002365565b5060016014826040518082805190602001908083835b602083106200392a578051825260208201915060208101905060208303925062003905565b6001836020036101000a038019825116818451168082178552505050505050905001915050908152602001604051809103902060006101000a81548160ff0219169083151502179055506013819080600181540180825580915050906001820390600052602060002001600090919290919091509080519060200190620039b392919062004f2f565b50506040518060a001604052806012548152602001620039d262003bff565b73ffffffffffffffffffffffffffffffffffffffff168152602001828152602001620039fd62003bff565b73ffffffffffffffffffffffffffffffffffffffff16815260200160008152506015600060125481526020019081526020016000206000820151816000015560208201518160010160006101000a81548173ffffffffffffffffffffffffffffffffffffffff021916908373ffffffffffffffffffffffffffffffffffffffff160217905550604082015181600201908051906020019062003aa192919062004fb6565b5060608201518160030160006101000a81548173ffffffffffffffffffffffffffffffffffffffff021916908373ffffffffffffffffffffffffffffffffffffffff1602179055506080820151816004015590505062003b0e600160125462003c0790919063ffffffff16565b60128190555060125462003b2162003bff565b73ffffffffffffffffffffffffffffffffffffffff167f30385c845b448a36257a6a1716e6ad2e1bc2cbe333cde1e69fe849ad6511adfe60405160405180910390a350565b6000600460008473ffffffffffffffffffffffffffffffffffffffff1673ffffffffffffffffffffffffffffffffffffffff16815260200190815260200160002060008373ffffffffffffffffffffffffffffffffffffffff1673ffffffffffffffffffffffffffffffffffffffff16815260200190815260200160002060009054906101000a900460ff16905092915050565b600381565b600033905090565b60008082840190508381101562003c86576040517f08c379a000000000000000000000000000000000000000000000000000000000815260040180806020018281038252601b8152602001807f536166654d6174683a206164646974696f6e206f766572666c6f77000000000081525060200191505060405180910390fd5b8091505092915050565b6000806001600084815260200190815260200160002060009054906101000a900473ffffffffffffffffffffffffffffffffffffffff169050600073ffffffffffffffffffffffffffffffffffffffff168173ffffffffffffffffffffffffffffffffffffffff161415915050919050565b600062003d0f8262003c90565b62003d66576040517f08c379a000000000000000000000000000000000000000000000000000000000815260040180806020018281038252602c8152602001806200a326602c913960400191505060405180910390fd5b600062003d738362002541565b90508073ffffffffffffffffffffffffffffffffffffffff168473ffffffffffffffffffffffffffffffffffffffff16148062003de557508373ffffffffffffffffffffffffffffffffffffffff1662003dcd84620017fb565b73ffffffffffffffffffffffffffffffffffffffff16145b8062003df9575062003df8818562003b66565b5b91505092915050565b62003e0f838383620043a0565b62003e1b838262004607565b62003e278282620047ac565b505050565b62003e38828262003f0a565b1562003eac576040517f08c379a000000000000000000000000000000000000000000000000000000000815260040180806020018281038252601f8152602001807f526f6c65733a206163636f756e7420616c72656164792068617320726f6c650081525060200191505060405180910390fd5b60018260000160008373ffffffffffffffffffffffffffffffffffffffff1673ffffffffffffffffffffffffffffffffffffffff16815260200190815260200160002060006101000a81548160ff0219169083151502179055505050565b60008073ffffffffffffffffffffffffffffffffffffffff168273ffffffffffffffffffffffffffffffffffffffff16141562003f93576040517f08c379a00000000000000000000000000000000000000000000000000000000081526004018080602001828103825260228152602001806200a4df6022913960400191505060405180910390fd5b8260000160008373ffffffffffffffffffffffffffffffffffffffff1673ffffffffffffffffffffffffffffffffffffffff16815260200190815260200160002060009054906101000a900460ff16905092915050565b62003ff6828262004873565b620040028282620047ac565b6200400d8162004a91565b5050565b6200401c8262003c90565b62004073576040517f08c379a000000000000000000000000000000000000000000000000000000000815260040180806020018281038252602c8152602001806200a45a602c913960400191505060405180910390fd5b80600b600084815260200190815260200160002090805190602001906200409c92919062004f2f565b505050565b6000600560008373ffffffffffffffffffffffffffffffffffffffff1673ffffffffffffffffffffffffffffffffffffffff1681526020019081526020016000209050919050565b620040ff81600f620041af90919063ffffffff16565b8073ffffffffffffffffffffffffffffffffffffffff167fcd265ebaf09df2871cc7bd4133404a235ba12eff2041bb89d9c714a2621c7c7e60405160405180910390a250565b600081600001549050919050565b6200416981600f62003e2c90919063ffffffff16565b8073ffffffffffffffffffffffffffffffffffffffff167f6719d08c1888103bea251a4ed56406bd0c3e69723c8a1686e017e7bbe159b6f860405160405180910390a250565b620041bb828262003f0a565b62004212576040517f08c379a00000000000000000000000000000000000000000000000000000000081526004018080602001828103825260218152602001806200a40d6021913960400191505060405180910390fd5b60008260000160008373ffffffffffffffffffffffffffffffffffffffff1673ffffffffffffffffffffffffffffffffffffffff16815260200190815260200160002060006101000a81548160ff0219169083151502179055505050565b6200428681600c62003e2c90919063ffffffff16565b8073ffffffffffffffffffffffffffffffffffffffff167f6ae172837ea30b801fbfcdd4108aa1d5bf8ff775444fd70256b44e6bf3dfc3f660405160405180910390a250565b620042e281600c620041af90919063ffffffff16565b8073ffffffffffffffffffffffffffffffffffffffff167fe94479a9f7e1952cc78f2d6baab678adc1b772d936c6583def489e524cb6669260405160405180910390a250565b6200433584848462003e02565b620043438484848462004add565b6200439a576040517f08c379a00000000000000000000000000000000000000000000000000000000081526004018080602001828103825260328152602001806200a2a06032913960400191505060405180910390fd5b50505050565b8273ffffffffffffffffffffffffffffffffffffffff16620043c28262002541565b73ffffffffffffffffffffffffffffffffffffffff161462004430576040517f08c379a00000000000000000000000000000000000000000000000000000000081526004018080602001828103825260298152602001806200a5016029913960400191505060405180910390fd5b600073ffffffffffffffffffffffffffffffffffffffff168273ffffffffffffffffffffffffffffffffffffffff161415620044b8576040517f08c379a00000000000000000000000000000000000000000000000000000000081526004018080602001828103825260248152602001806200a3026024913960400191505060405180910390fd5b620044c38162004cd9565b6200450c600360008573ffffffffffffffffffffffffffffffffffffffff1673ffffffffffffffffffffffffffffffffffffffff16815260200190815260200160002062004d98565b62004555600360008473ffffffffffffffffffffffffffffffffffffffff1673ffffffffffffffffffffffffffffffffffffffff16815260200190815260200160002062004dbd565b816001600083815260200190815260200160002060006101000a81548173ffffffffffffffffffffffffffffffffffffffff021916908373ffffffffffffffffffffffffffffffffffffffff160217905550808273ffffffffffffffffffffffffffffffffffffffff168473ffffffffffffffffffffffffffffffffffffffff167fddf252ad1be2c89b69c2b068fc378daa952ba7f163c4a11628f55a4df523b3ef60405160405180910390a4505050565b6000620046616001600560008673ffffffffffffffffffffffffffffffffffffffff1673ffffffffffffffffffffffffffffffffffffffff1681526020019081526020016000208054905062004dd390919063ffffffff16565b905060006006600084815260200190815260200160002054905081811462004751576000600560008673ffffffffffffffffffffffffffffffffffffffff1673ffffffffffffffffffffffffffffffffffffffff1681526020019081526020016000208381548110620046d057fe5b9060005260206000200154905080600560008773ffffffffffffffffffffffffffffffffffffffff1673ffffffffffffffffffffffffffffffffffffffff16815260200190815260200160002083815481106200472957fe5b9060005260206000200181905550816006600083815260200190815260200160002081905550505b600560008573ffffffffffffffffffffffffffffffffffffffff1673ffffffffffffffffffffffffffffffffffffffff168152602001908152602001600020805480919060019003620047a591906200504b565b5050505050565b600560008373ffffffffffffffffffffffffffffffffffffffff1673ffffffffffffffffffffffffffffffffffffffff168152602001908152602001600020805490506006600083815260200190815260200160002081905550600560008373ffffffffffffffffffffffffffffffffffffffff1673ffffffffffffffffffffffffffffffffffffffff1681526020019081526020016000208190806001815401808255809150509060018203906000526020600020016000909192909190915055505050565b600073ffffffffffffffffffffffffffffffffffffffff168273ffffffffffffffffffffffffffffffffffffffff16141562004917576040517f08c379a00000000000000000000000000000000000000000000000000000000081526004018080602001828103825260208152602001807f4552433732313a206d696e7420746f20746865207a65726f206164647265737381525060200191505060405180910390fd5b620049228162003c90565b1562004996576040517f08c379a000000000000000000000000000000000000000000000000000000000815260040180806020018281038252601c8152602001807f4552433732313a20746f6b656e20616c7265616479206d696e7465640000000081525060200191505060405180910390fd5b816001600083815260200190815260200160002060006101000a81548173ffffffffffffffffffffffffffffffffffffffff021916908373ffffffffffffffffffffffffffffffffffffffff16021790555062004a31600360008473ffffffffffffffffffffffffffffffffffffffff1673ffffffffffffffffffffffffffffffffffffffff16815260200190815260200160002062004dbd565b808273ffffffffffffffffffffffffffffffffffffffff16600073ffffffffffffffffffffffffffffffffffffffff167fddf252ad1be2c89b69c2b068fc378daa952ba7f163c4a11628f55a4df523b3ef60405160405180910390a45050565b6007805490506008600083815260200190815260200160002081905550600781908060018154018082558091505090600182039060005260206000200160009091929091909150555050565b600062004b008473ffffffffffffffffffffffffffffffffffffffff1662004e1f565b62004b0f576001905062004cd1565b60008473ffffffffffffffffffffffffffffffffffffffff1663150b7a0262004b3762003bff565b8887876040518563ffffffff1660e01b8152600401808573ffffffffffffffffffffffffffffffffffffffff1673ffffffffffffffffffffffffffffffffffffffff1681526020018473ffffffffffffffffffffffffffffffffffffffff1673ffffffffffffffffffffffffffffffffffffffff16815260200183815260200180602001828103825283818151815260200191508051906020019080838360005b8381101562004bf557808201518184015260208101905062004bd8565b50505050905090810190601f16801562004c235780820380516001836020036101000a031916815260200191505b5095505050505050602060405180830381600087803b15801562004c4657600080fd5b505af115801562004c5b573d6000803e3d6000fd5b505050506040513d602081101562004c7257600080fd5b8101908080519060200190929190505050905063150b7a0260e01b7bffffffffffffffffffffffffffffffffffffffffffffffffffffffff1916817bffffffffffffffffffffffffffffffffffffffffffffffffffffffff1916149150505b949350505050565b600073ffffffffffffffffffffffffffffffffffffffff166002600083815260200190815260200160002060009054906101000a900473ffffffffffffffffffffffffffffffffffffffff1673ffffffffffffffffffffffffffffffffffffffff161462004d955760006002600083815260200190815260200160002060006101000a81548173ffffffffffffffffffffffffffffffffffffffff021916908373ffffffffffffffffffffffffffffffffffffffff1602179055505b50565b62004db26001826000015462004dd390919063ffffffff16565b816000018190555050565b6001816000016000828254019250508190555050565b600062004e1783836040518060400160405280601e81526020017f536166654d6174683a207375627472616374696f6e206f766572666c6f77000081525062004e6b565b905092915050565b60008060007fc5d2460186f7233c927e7db2dcc703c0e500b653ca82273b7bfad8045d85a47060001b9050833f91506000801b821415801562004e625750808214155b92505050919050565b600083831115829062004f1c576040517f08c379a00000000000000000000000000000000000000000000000000000000081526004018080602001828103825283818151815260200191508051906020019080838360005b8381101562004ee057808201518184015260208101905062004ec3565b50505050905090810190601f16801562004f0e5780820380516001836020036101000a031916815260200191505b509250505060405180910390fd5b5060008385039050809150509392505050565b828054600181600116156101000203166002900490600052602060002090601f016020900481019282601f1062004f7257805160ff191683800117855562004fa3565b8280016001018555821562004fa3579182015b8281111562004fa257825182559160200191906001019062004f85565b5b50905062004fb291906200507a565b5090565b828054600181600116156101000203166002900490600052602060002090601f016020900481019282601f1062004ff957805160ff19168380011785556200502a565b828001600101855582156200502a579182015b82811115620050295782518255916020019190600101906200500c565b5b5090506200503991906200507a565b5090565b6151d280620050a383390190565b81548183558181111562005075578183600052602060002091820191016200507491906200507a565b5b505050565b6200509f91905b808211156200509b57600081600090555060010162005081565b5090565b9056fe60806040526040518060400160405280601c81526020017f68747470733a2f2f697066732e696e667572612e696f2f697066732f000000008152506011908051906020019062000051929190620006f0565b50620186a1601255620000696200032f60201b60201c565b601660006101000a81548173ffffffffffffffffffffffffffffffffffffffff021916908373ffffffffffffffffffffffffffffffffffffffff160217905550348015620000b657600080fd5b50604051620051d2380380620051d283398181016040526040811015620000dc57600080fd5b8101908080519060200190929190805190602001909291905050506040518060400160405280600b81526020017f43727970746f46616365730000000000000000000000000000000000000000008152506040518060400160405280600281526020017f434600000000000000000000000000000000000000000000000000000000000081525081816200017d6301ffc9a760e01b6200035960201b60201c565b620001956380ac58cd60e01b6200035960201b60201c565b620001ad63780e9d6360e01b6200035960201b60201c565b8160099080519060200190620001c5929190620006f0565b5080600a9080519060200190620001de929190620006f0565b50620001f7635b5e139f60e01b6200035960201b60201c565b505050506200021b6200020f6200046260201b60201c565b6200046a60201b60201c565b33600d60006101000a81548173ffffffffffffffffffffffffffffffffffffffff021916908373ffffffffffffffffffffffffffffffffffffffff1602179055506200027c620002706200046260201b60201c565b620004cb60201b60201c565b6000601060006101000a81548160ff02191690831515021790555033601060016101000a81548173ffffffffffffffffffffffffffffffffffffffff021916908373ffffffffffffffffffffffffffffffffffffffff16021790555033601960006101000a81548173ffffffffffffffffffffffffffffffffffffffff021916908373ffffffffffffffffffffffffffffffffffffffff160217905550816017819055508060188190555050506200079f565b6000601060019054906101000a900473ffffffffffffffffffffffffffffffffffffffff16905090565b63ffffffff60e01b817bffffffffffffffffffffffffffffffffffffffffffffffffffffffff19161415620003f6576040517f08c379a000000000000000000000000000000000000000000000000000000000815260040180806020018281038252601c8152602001807f4552433136353a20696e76616c696420696e746572666163652069640000000081525060200191505060405180910390fd5b6001600080837bffffffffffffffffffffffffffffffffffffffffffffffffffffffff19167bffffffffffffffffffffffffffffffffffffffffffffffffffffffff1916815260200190815260200160002060006101000a81548160ff02191690831515021790555050565b600033905090565b6200048581600c6200052c60201b620033b11790919060201c565b8073ffffffffffffffffffffffffffffffffffffffff167f6ae172837ea30b801fbfcdd4108aa1d5bf8ff775444fd70256b44e6bf3dfc3f660405160405180910390a250565b620004e681600f6200052c60201b620033b11790919060201c565b8073ffffffffffffffffffffffffffffffffffffffff167f6719d08c1888103bea251a4ed56406bd0c3e69723c8a1686e017e7bbe159b6f860405160405180910390a250565b6200053e82826200061060201b60201c565b15620005b2576040517f08c379a000000000000000000000000000000000000000000000000000000000815260040180806020018281038252601f8152602001807f526f6c65733a206163636f756e7420616c72656164792068617320726f6c650081525060200191505060405180910390fd5b60018260000160008373ffffffffffffffffffffffffffffffffffffffff1673ffffffffffffffffffffffffffffffffffffffff16815260200190815260200160002060006101000a81548160ff0219169083151502179055505050565b60008073ffffffffffffffffffffffffffffffffffffffff168273ffffffffffffffffffffffffffffffffffffffff16141562000699576040517f08c379a0000000000000000000000000000000000000000000000000000000008152600401808060200182810382526022815260200180620051b06022913960400191505060405180910390fd5b8260000160008373ffffffffffffffffffffffffffffffffffffffff1673ffffffffffffffffffffffffffffffffffffffff16815260200190815260200160002060009054906101000a900460ff16905092915050565b828054600181600116156101000203166002900490600052602060002090601f016020900481019282601f106200073357805160ff191683800117855562000764565b8280016001018555821562000764579182015b828111156200076357825182559160200191906001019062000746565b5b50905062000773919062000777565b5090565b6200079c91905b80821115620007985760008160009055506001016200077e565b5090565b90565b614a0180620007af6000396000f3fe60806040526004361061025b5760003560e01c80636352211e116101445780639cfccf3f116100b6578063c19d93fb1161007a578063c19d93fb1461108f578063c87b56dd146110c8578063d69606971461117c578063d85d3d2714611186578063e985e9c51461124e578063f717dfcd146112d75761025b565b80639cfccf3f14610e2f578063a22cb46514610e60578063aa271e1a14610ebd578063b641c15014610f26578063b88d4fde14610f7d5761025b565b80638da5cb5b116101085780638da5cb5b14610c0c57806395a8c58d14610c6357806395d89b4114610cd9578063975347b814610d69578063983b2d5614610dc75780639865027514610e185761025b565b80636352211e14610aad5780636ef8d66d14610b2857806370a0823114610b3f57806382dc1ec414610ba45780638456cb5914610bf55761025b565b806335a063b4116101dd5780634acfa95c116101a15780634acfa95c146107fb5780634f558e791461082c5780634f6ccce71461087f57806350bb4e7f146108ce5780635a3f2672146109d85780635c975abb14610a7e5761025b565b806335a063b41461068b5780633f4ba83a146106a257806342842e0e146106b9578063439232581461073457806346fbf68e146107925761025b565b806317d70f7c1161022457806317d70f7c1461052057806318160ddd1461054b5780631ec7e3451461057657806323b872dd146105a15780632f745c591461061c5761025b565b806275a3171461026057806301ffc9a71461034857806306fdde03146103ba578063081812fc1461044a578063095ea7b3146104c5575b600080fd5b34801561026c57600080fd5b506103466004803603604081101561028357600080fd5b81019080803573ffffffffffffffffffffffffffffffffffffffff169060200190929190803590602001906401000000008111156102c057600080fd5b8201836020820111156102d257600080fd5b803590602001918460018302840111640100000000831117156102f457600080fd5b91908080601f016020809104026020016040519081016040528093929190818152602001838380828437600081840152601f19601f820116905080830192505050505050509192919290505050611308565b005b34801561035457600080fd5b506103a06004803603602081101561036b57600080fd5b8101908080357bffffffffffffffffffffffffffffffffffffffffffffffffffffffff1916906020019092919050505061168e565b604051808215151515815260200191505060405180910390f35b3480156103c657600080fd5b506103cf6116f5565b6040518080602001828103825283818151815260200191508051906020019080838360005b8381101561040f5780820151818401526020810190506103f4565b50505050905090810190601f16801561043c5780820380516001836020036101000a031916815260200191505b509250505060405180910390f35b34801561045657600080fd5b506104836004803603602081101561046d57600080fd5b8101908080359060200190929190505050611797565b604051808273ffffffffffffffffffffffffffffffffffffffff1673ffffffffffffffffffffffffffffffffffffffff16815260200191505060405180910390f35b3480156104d157600080fd5b5061051e600480360360408110156104e857600080fd5b81019080803573ffffffffffffffffffffffffffffffffffffffff16906020019092919080359060200190929190505050611832565b005b34801561052c57600080fd5b50610535611a19565b6040518082815260200191505060405180910390f35b34801561055757600080fd5b50610560611a1f565b6040518082815260200191505060405180910390f35b34801561058257600080fd5b5061058b611a2c565b6040518082815260200191505060405180910390f35b3480156105ad57600080fd5b5061061a600480360360608110156105c457600080fd5b81019080803573ffffffffffffffffffffffffffffffffffffffff169060200190929190803573ffffffffffffffffffffffffffffffffffffffff16906020019092919080359060200190929190505050611a32565b005b34801561062857600080fd5b506106756004803603604081101561063f57600080fd5b81019080803573ffffffffffffffffffffffffffffffffffffffff16906020019092919080359060200190929190505050611aa8565b6040518082815260200191505060405180910390f35b34801561069757600080fd5b506106a0611b67565b005b3480156106ae57600080fd5b506106b7611cc7565b005b3480156106c557600080fd5b50610732600480360360608110156106dc57600080fd5b81019080803573ffffffffffffffffffffffffffffffffffffffff169060200190929190803573ffffffffffffffffffffffffffffffffffffffff16906020019092919080359060200190929190505050611e35565b005b34801561074057600080fd5b506107906004803603604081101561075757600080fd5b81019080803573ffffffffffffffffffffffffffffffffffffffff169060200190929190803560ff169060200190929190505050611e55565b005b34801561079e57600080fd5b506107e1600480360360208110156107b557600080fd5b81019080803573ffffffffffffffffffffffffffffffffffffffff169060200190929190505050611f44565b604051808215151515815260200191505060405180910390f35b34801561080757600080fd5b50610810611f61565b604051808260ff1660ff16815260200191505060405180910390f35b34801561083857600080fd5b506108656004803603602081101561084f57600080fd5b8101908080359060200190929190505050611f66565b604051808215151515815260200191505060405180910390f35b34801561088b57600080fd5b506108b8600480360360208110156108a257600080fd5b8101908080359060200190929190505050611f7b565b6040518082815260200191505060405180910390f35b3480156108da57600080fd5b506109be600480360360608110156108f157600080fd5b81019080803573ffffffffffffffffffffffffffffffffffffffff169060200190929190803590602001909291908035906020019064010000000081111561093857600080fd5b82018360208201111561094a57600080fd5b8035906020019184600183028401116401000000008311171561096c57600080fd5b91908080601f016020809104026020016040519081016040528093929190818152602001838380828437600081840152601f19601f820116905080830192505050505050509192919290505050611ffb565b604051808215151515815260200191505060405180910390f35b3480156109e457600080fd5b50610a27600480360360208110156109fb57600080fd5b81019080803573ffffffffffffffffffffffffffffffffffffffff169060200190929190505050612081565b6040518080602001828103825283818151815260200191508051906020019060200280838360005b83811015610a6a578082015181840152602081019050610a4f565b505050509050019250505060405180910390f35b348015610a8a57600080fd5b50610a936121ad565b604051808215151515815260200191505060405180910390f35b348015610ab957600080fd5b50610ae660048036036020811015610ad057600080fd5b81019080803590602001909291905050506121c4565b604051808273ffffffffffffffffffffffffffffffffffffffff1673ffffffffffffffffffffffffffffffffffffffff16815260200191505060405180910390f35b348015610b3457600080fd5b50610b3d61228c565b005b348015610b4b57600080fd5b50610b8e60048036036020811015610b6257600080fd5b81019080803573ffffffffffffffffffffffffffffffffffffffff16906020019092919050505061229e565b6040518082815260200191505060405180910390f35b348015610bb057600080fd5b50610bf360048036036020811015610bc757600080fd5b81019080803573ffffffffffffffffffffffffffffffffffffffff169060200190929190505050612373565b005b348015610c0157600080fd5b50610c0a6123e4565b005b348015610c1857600080fd5b50610c21612553565b604051808273ffffffffffffffffffffffffffffffffffffffff1673ffffffffffffffffffffffffffffffffffffffff16815260200191505060405180910390f35b348015610c6f57600080fd5b50610cbf60048036036040811015610c8657600080fd5b81019080803573ffffffffffffffffffffffffffffffffffffffff169060200190929190803560ff169060200190929190505050612579565b604051808215151515815260200191505060405180910390f35b348015610ce557600080fd5b50610cee6125ae565b6040518080602001828103825283818151815260200191508051906020019080838360005b83811015610d2e578082015181840152602081019050610d13565b50505050905090810190601f168015610d5b5780820380516001836020036101000a031916815260200191505b509250505060405180910390f35b348015610d7557600080fd5b50610dc560048036036040811015610d8c57600080fd5b81019080803573ffffffffffffffffffffffffffffffffffffffff169060200190929190803560ff169060200190929190505050612650565b005b348015610dd357600080fd5b50610e1660048036036020811015610dea57600080fd5b81019080803573ffffffffffffffffffffffffffffffffffffffff16906020019092919050505061273f565b005b348015610e2457600080fd5b50610e2d6127b0565b005b348015610e3b57600080fd5b50610e446127c2565b604051808260ff1660ff16815260200191505060405180910390f35b348015610e6c57600080fd5b50610ebb60048036036040811015610e8357600080fd5b81019080803573ffffffffffffffffffffffffffffffffffffffff1690602001909291908035151590602001909291905050506127c7565b005b348015610ec957600080fd5b50610f0c60048036036020811015610ee057600080fd5b81019080803573ffffffffffffffffffffffffffffffffffffffff16906020019092919050505061297f565b604051808215151515815260200191505060405180910390f35b348015610f3257600080fd5b50610f3b61299c565b604051808273ffffffffffffffffffffffffffffffffffffffff1673ffffffffffffffffffffffffffffffffffffffff16815260200191505060405180910390f35b348015610f8957600080fd5b5061108d60048036036080811015610fa057600080fd5b81019080803573ffffffffffffffffffffffffffffffffffffffff169060200190929190803573ffffffffffffffffffffffffffffffffffffffff169060200190929190803590602001909291908035906020019064010000000081111561100757600080fd5b82018360208201111561101957600080fd5b8035906020019184600183028401116401000000008311171561103b57600080fd5b91908080601f016020809104026020016040519081016040528093929190818152602001838380828437600081840152601f19601f8201169050808301925050505050505091929192905050506129c6565b005b34801561109b57600080fd5b506110a4612a3e565b604051808260028111156110b457fe5b60ff16815260200191505060405180910390f35b3480156110d457600080fd5b50611101600480360360208110156110eb57600080fd5b8101908080359060200190929190505050612a51565b6040518080602001828103825283818151815260200191508051906020019080838360005b83811015611141578082015181840152602081019050611126565b50505050905090810190601f16801561116e5780820380516001836020036101000a031916815260200191505b509250505060405180910390f35b611184612b64565b005b34801561119257600080fd5b5061124c600480360360208110156111a957600080fd5b81019080803590602001906401000000008111156111c657600080fd5b8201836020820111156111d857600080fd5b803590602001918460018302840111640100000000831117156111fa57600080fd5b91908080601f016020809104026020016040519081016040528093929190818152602001838380828437600081840152601f19601f820116905080830192505050505050509192919290505050612d82565b005b34801561125a57600080fd5b506112bd6004803603604081101561127157600080fd5b81019080803573ffffffffffffffffffffffffffffffffffffffff169060200190929190803573ffffffffffffffffffffffffffffffffffffffff1690602001909291905050506130fe565b604051808215151515815260200191505060405180910390f35b3480156112e357600080fd5b506112ec613192565b604051808260ff1660ff16815260200191505060405180910390f35b600d60009054906101000a900473ffffffffffffffffffffffffffffffffffffffff1673ffffffffffffffffffffffffffffffffffffffff163373ffffffffffffffffffffffffffffffffffffffff16148061136b575061136a336001612579565b5b8061137d575061137c336002612579565b5b61138657600080fd5b6014816040518082805190602001908083835b602083106113bc5780518252602082019150602081019050602083039250611399565b6001836020036101000a038019825116818451168082178552505050505050905001915050908152602001604051809103902060009054906101000a900460ff161561140757600080fd5b6114148260125483611ffb565b5060016014826040518082805190602001908083835b6020831061144d578051825260208201915060208101905060208303925061142a565b6001836020036101000a038019825116818451168082178552505050505050905001915050908152602001604051809103902060006101000a81548160ff02191690831515021790555060138190806001815401808255809150509060018203906000526020600020016000909192909190915090805190602001906114d4929190614572565b50506040518060a0016040528060125481526020016114f1613197565b73ffffffffffffffffffffffffffffffffffffffff1681526020018281526020018373ffffffffffffffffffffffffffffffffffffffff16815260200160008152506015600060125481526020019081526020016000206000820151816000015560208201518160010160006101000a81548173ffffffffffffffffffffffffffffffffffffffff021916908373ffffffffffffffffffffffffffffffffffffffff16021790555060408201518160020190805190602001906115b59291906145f2565b5060608201518160030160006101000a81548173ffffffffffffffffffffffffffffffffffffffff021916908373ffffffffffffffffffffffffffffffffffffffff16021790555060808201518160040155905050611620600160125461319f90919063ffffffff16565b6012819055506012548273ffffffffffffffffffffffffffffffffffffffff16611648613197565b73ffffffffffffffffffffffffffffffffffffffff167f12f50ca340461dbd90fa123c04da83c9568bcd87f603ad247bb1a3b66ef7282d60405160405180910390a45050565b6000806000837bffffffffffffffffffffffffffffffffffffffffffffffffffffffff19167bffffffffffffffffffffffffffffffffffffffffffffffffffffffff1916815260200190815260200160002060009054906101000a900460ff169050919050565b606060098054600181600116156101000203166002900480601f01602080910402602001604051908101604052809291908181526020018280546001816001161561010002031660029004801561178d5780601f106117625761010080835404028352916020019161178d565b820191906000526020600020905b81548152906001019060200180831161177057829003601f168201915b5050505050905090565b60006117a282613227565b6117f7576040517f08c379a000000000000000000000000000000000000000000000000000000000815260040180806020018281038252602c81526020018061487d602c913960400191505060405180910390fd5b6002600083815260200190815260200160002060009054906101000a900473ffffffffffffffffffffffffffffffffffffffff169050919050565b600061183d826121c4565b90508073ffffffffffffffffffffffffffffffffffffffff168373ffffffffffffffffffffffffffffffffffffffff1614156118c4576040517f08c379a000000000000000000000000000000000000000000000000000000000815260040180806020018281038252602181526020018061494f6021913960400191505060405180910390fd5b8073ffffffffffffffffffffffffffffffffffffffff166118e3613197565b73ffffffffffffffffffffffffffffffffffffffff16148061191257506119118161190c613197565b6130fe565b5b611967576040517f08c379a00000000000000000000000000000000000000000000000000000000081526004018080602001828103825260388152602001806147a16038913960400191505060405180910390fd5b826002600084815260200190815260200160002060006101000a81548173ffffffffffffffffffffffffffffffffffffffff021916908373ffffffffffffffffffffffffffffffffffffffff160217905550818373ffffffffffffffffffffffffffffffffffffffff168273ffffffffffffffffffffffffffffffffffffffff167f8c5be1e5ebec7d5bd14f71427d1e84f3dd0314c0f7b2291e5b200ac8c7c3b92560405160405180910390a4505050565b60175481565b6000600780549050905090565b60185481565b611a43611a3d613197565b82613299565b611a98576040517f08c379a00000000000000000000000000000000000000000000000000000000081526004018080602001828103825260318152602001806149706031913960400191505060405180910390fd5b611aa383838361338d565b505050565b6000611ab38361229e565b8210611b0a576040517f08c379a000000000000000000000000000000000000000000000000000000000815260040180806020018281038252602b8152602001806146c4602b913960400191505060405180910390fd5b600560008473ffffffffffffffffffffffffffffffffffffffff1673ffffffffffffffffffffffffffffffffffffffff1681526020019081526020016000208281548110611b5457fe5b9060005260206000200154905092915050565b601960009054906101000a900473ffffffffffffffffffffffffffffffffffffffff1673ffffffffffffffffffffffffffffffffffffffff163373ffffffffffffffffffffffffffffffffffffffff1614611bc157600080fd5b6000806002811115611bcf57fe5b601a60149054906101000a900460ff166002811115611bea57fe5b14611bf457600080fd5b7f72c874aeff0b183a56e2b79c71b46e1aed4dee5e09862134b8821ba2fddbf8bf60405160405180910390a16002601a60146101000a81548160ff02191690836002811115611c3f57fe5b0217905550601960009054906101000a900473ffffffffffffffffffffffffffffffffffffffff1673ffffffffffffffffffffffffffffffffffffffff166108fc3073ffffffffffffffffffffffffffffffffffffffff16319081150290604051600060405180830381858888f19350505050158015611cc3573d6000803e3d6000fd5b5050565b611cd7611cd2613197565b611f44565b611d2c576040517f08c379a00000000000000000000000000000000000000000000000000000000081526004018080602001828103825260308152602001806147216030913960400191505060405180910390fd5b601060009054906101000a900460ff16611dae576040517f08c379a00000000000000000000000000000000000000000000000000000000081526004018080602001828103825260148152602001807f5061757361626c653a206e6f742070617573656400000000000000000000000081525060200191505060405180910390fd5b6000601060006101000a81548160ff0219169083151502179055507f5db9ee0a495bf2e6ff9c91a7834c1ba4fdd244a5e8aa4e537bd38aeae4b073aa611df2613197565b604051808273ffffffffffffffffffffffffffffffffffffffff1673ffffffffffffffffffffffffffffffffffffffff16815260200191505060405180910390a1565b611e50838383604051806020016040528060008152506129c6565b505050565b600d60009054906101000a900473ffffffffffffffffffffffffffffffffffffffff1673ffffffffffffffffffffffffffffffffffffffff163373ffffffffffffffffffffffffffffffffffffffff161480611eb85750611eb7336001612579565b5b611ec157600080fd5b611eec82600e60008460ff1660ff1681526020019081526020016000206133b190919063ffffffff16565b8173ffffffffffffffffffffffffffffffffffffffff167f0ed8a6a6a166243876472f7a8610b62c1a76c67911642d39ff34ead38105534f82604051808260ff1660ff16815260200191505060405180910390a25050565b6000611f5a82600f61348c90919063ffffffff16565b9050919050565b600181565b6000611f7182613227565b9050809050919050565b6000611f85611a1f565b8210611fdc576040517f08c379a000000000000000000000000000000000000000000000000000000000815260040180806020018281038252602c8152602001806149a1602c913960400191505060405180910390fd5b60078281548110611fe957fe5b90600052602060002001549050919050565b600061200d612008613197565b61297f565b612062576040517f08c379a000000000000000000000000000000000000000000000000000000000815260040180806020018281038252603081526020018061482c6030913960400191505060405180910390fd5b61206c848461356a565b612076838361358b565b600190509392505050565b6060600d60009054906101000a900473ffffffffffffffffffffffffffffffffffffffff1673ffffffffffffffffffffffffffffffffffffffff163373ffffffffffffffffffffffffffffffffffffffff1614806120e657506120e5336001612579565b5b6120ef57600080fd5b600073ffffffffffffffffffffffffffffffffffffffff168273ffffffffffffffffffffffffffffffffffffffff16141561212957600080fd5b612154600d60009054906101000a900473ffffffffffffffffffffffffffffffffffffffff16613615565b80548060200260200160405190810160405280929190818152602001828054801561219e57602002820191906000526020600020905b81548152602001906001019080831161218a575b50505050509050809050919050565b6000601060009054906101000a900460ff16905090565b6000806001600084815260200190815260200160002060009054906101000a900473ffffffffffffffffffffffffffffffffffffffff169050600073ffffffffffffffffffffffffffffffffffffffff168173ffffffffffffffffffffffffffffffffffffffff161415612283576040517f08c379a00000000000000000000000000000000000000000000000000000000081526004018080602001828103825260298152602001806148036029913960400191505060405180910390fd5b80915050919050565b61229c612297613197565b61365d565b565b60008073ffffffffffffffffffffffffffffffffffffffff168273ffffffffffffffffffffffffffffffffffffffff161415612325576040517f08c379a000000000000000000000000000000000000000000000000000000000815260040180806020018281038252602a8152602001806147d9602a913960400191505060405180910390fd5b61236c600360008473ffffffffffffffffffffffffffffffffffffffff1673ffffffffffffffffffffffffffffffffffffffff1681526020019081526020016000206136b7565b9050919050565b61238361237e613197565b611f44565b6123d8576040517f08c379a00000000000000000000000000000000000000000000000000000000081526004018080602001828103825260308152602001806147216030913960400191505060405180910390fd5b6123e1816136c5565b50565b6123f46123ef613197565b611f44565b612449576040517f08c379a00000000000000000000000000000000000000000000000000000000081526004018080602001828103825260308152602001806147216030913960400191505060405180910390fd5b601060009054906101000a900460ff16156124cc576040517f08c379a00000000000000000000000000000000000000000000000000000000081526004018080602001828103825260108152602001807f5061757361626c653a207061757365640000000000000000000000000000000081525060200191505060405180910390fd5b6001601060006101000a81548160ff0219169083151502179055507f62e78cea01bee320cd4e420270b5ea74000d11b0c9f74754ebdbfc544b05a258612510613197565b604051808273ffffffffffffffffffffffffffffffffffffffff1673ffffffffffffffffffffffffffffffffffffffff16815260200191505060405180910390a1565b600d60009054906101000a900473ffffffffffffffffffffffffffffffffffffffff1681565b60006125a683600e60008560ff1660ff16815260200190815260200160002061348c90919063ffffffff16565b905092915050565b6060600a8054600181600116156101000203166002900480601f0160208091040260200160405190810160405280929190818152602001828054600181600116156101000203166002900480156126465780601f1061261b57610100808354040283529160200191612646565b820191906000526020600020905b81548152906001019060200180831161262957829003601f168201915b5050505050905090565b600d60009054906101000a900473ffffffffffffffffffffffffffffffffffffffff1673ffffffffffffffffffffffffffffffffffffffff163373ffffffffffffffffffffffffffffffffffffffff1614806126b357506126b2336001612579565b5b6126bc57600080fd5b6126e782600e60008460ff1660ff16815260200190815260200160002061371f90919063ffffffff16565b8173ffffffffffffffffffffffffffffffffffffffff167f3824b64a1e23d936b458f4e31445c664d2bc9c14e842407917cbc100b0236a2f82604051808260ff1660ff16815260200191505060405180910390a25050565b61274f61274a613197565b61297f565b6127a4576040517f08c379a000000000000000000000000000000000000000000000000000000000815260040180806020018281038252603081526020018061482c6030913960400191505060405180910390fd5b6127ad816137dc565b50565b6127c06127bb613197565b613836565b565b600281565b6127cf613197565b73ffffffffffffffffffffffffffffffffffffffff168273ffffffffffffffffffffffffffffffffffffffff161415612870576040517f08c379a00000000000000000000000000000000000000000000000000000000081526004018080602001828103825260198152602001807f4552433732313a20617070726f766520746f2063616c6c65720000000000000081525060200191505060405180910390fd5b806004600061287d613197565b73ffffffffffffffffffffffffffffffffffffffff1673ffffffffffffffffffffffffffffffffffffffff16815260200190815260200160002060008473ffffffffffffffffffffffffffffffffffffffff1673ffffffffffffffffffffffffffffffffffffffff16815260200190815260200160002060006101000a81548160ff0219169083151502179055508173ffffffffffffffffffffffffffffffffffffffff1661292a613197565b73ffffffffffffffffffffffffffffffffffffffff167f17307eab39ab6107e8899845ad3d59bd9653f200f220920489ca2b5937696c3183604051808215151515815260200191505060405180910390a35050565b600061299582600c61348c90919063ffffffff16565b9050919050565b6000601060019054906101000a900473ffffffffffffffffffffffffffffffffffffffff16905090565b6129d76129d1613197565b83613299565b612a2c576040517f08c379a00000000000000000000000000000000000000000000000000000000081526004018080602001828103825260318152602001806149706031913960400191505060405180910390fd5b612a3884848484613890565b50505050565b601a60149054906101000a900460ff1681565b6060612a5c82613227565b612ab1576040517f08c379a000000000000000000000000000000000000000000000000000000000815260040180806020018281038252602f815260200180614920602f913960400191505060405180910390fd5b600b60008381526020019081526020016000208054600181600116156101000203166002900480601f016020809104026020016040519081016040528092919081815260200182805460018160011615610100020316600290048015612b585780601f10612b2d57610100808354040283529160200191612b58565b820191906000526020600020905b815481529060010190602001808311612b3b57829003601f168201915b50505050509050919050565b6000806002811115612b7257fe5b601a60149054906101000a900460ff166002811115612b8d57fe5b14612b9757600080fd5b60185434101580612ba757600080fd5b612baf613197565b601a60006101000a81548173ffffffffffffffffffffffffffffffffffffffff021916908373ffffffffffffffffffffffffffffffffffffffff16021790555060003490506000612c0a600a8361390290919063ffffffff16565b90506000612c21828461394c90919063ffffffff16565b9050601660009054906101000a900473ffffffffffffffffffffffffffffffffffffffff1673ffffffffffffffffffffffffffffffffffffffff166108fc839081150290604051600060405180830381858888f19350505050158015612c8b573d6000803e3d6000fd5b50601960009054906101000a900473ffffffffffffffffffffffffffffffffffffffff1673ffffffffffffffffffffffffffffffffffffffff166108fc829081150290604051600060405180830381858888f19350505050158015612cf4573d6000803e3d6000fd5b50612d2b601960009054906101000a900473ffffffffffffffffffffffffffffffffffffffff16612d23613197565b60175461338d565b6002601a60146101000a81548160ff02191690836002811115612d4a57fe5b02179055507fd5d55c8a68912e9a110618df8d5e2e83b8d83211c57a8ddd1203df92885dc88160405160405180910390a15050505050565b600d60009054906101000a900473ffffffffffffffffffffffffffffffffffffffff1673ffffffffffffffffffffffffffffffffffffffff163373ffffffffffffffffffffffffffffffffffffffff161480612de55750612de4336001612579565b5b80612df75750612df6336002612579565b5b612e0057600080fd5b6014816040518082805190602001908083835b60208310612e365780518252602082019150602081019050602083039250612e13565b6001836020036101000a038019825116818451168082178552505050505050905001915050908152602001604051809103902060009054906101000a900460ff1615612e8157600080fd5b612e95612e8c613197565b60125483611ffb565b5060016014826040518082805190602001908083835b60208310612ece5780518252602082019150602081019050602083039250612eab565b6001836020036101000a038019825116818451168082178552505050505050905001915050908152602001604051809103902060006101000a81548160ff0219169083151502179055506013819080600181540180825580915050906001820390600052602060002001600090919290919091509080519060200190612f55929190614572565b50506040518060a001604052806012548152602001612f72613197565b73ffffffffffffffffffffffffffffffffffffffff168152602001828152602001612f9b613197565b73ffffffffffffffffffffffffffffffffffffffff16815260200160008152506015600060125481526020019081526020016000206000820151816000015560208201518160010160006101000a81548173ffffffffffffffffffffffffffffffffffffffff021916908373ffffffffffffffffffffffffffffffffffffffff160217905550604082015181600201908051906020019061303d9291906145f2565b5060608201518160030160006101000a81548173ffffffffffffffffffffffffffffffffffffffff021916908373ffffffffffffffffffffffffffffffffffffffff160217905550608082015181600401559050506130a8600160125461319f90919063ffffffff16565b6012819055506012546130b9613197565b73ffffffffffffffffffffffffffffffffffffffff167f30385c845b448a36257a6a1716e6ad2e1bc2cbe333cde1e69fe849ad6511adfe60405160405180910390a350565b6000600460008473ffffffffffffffffffffffffffffffffffffffff1673ffffffffffffffffffffffffffffffffffffffff16815260200190815260200160002060008373ffffffffffffffffffffffffffffffffffffffff1673ffffffffffffffffffffffffffffffffffffffff16815260200190815260200160002060009054906101000a900460ff16905092915050565b600381565b600033905090565b60008082840190508381101561321d576040517f08c379a000000000000000000000000000000000000000000000000000000000815260040180806020018281038252601b8152602001807f536166654d6174683a206164646974696f6e206f766572666c6f77000000000081525060200191505060405180910390fd5b8091505092915050565b6000806001600084815260200190815260200160002060009054906101000a900473ffffffffffffffffffffffffffffffffffffffff169050600073ffffffffffffffffffffffffffffffffffffffff168173ffffffffffffffffffffffffffffffffffffffff161415915050919050565b60006132a482613227565b6132f9576040517f08c379a000000000000000000000000000000000000000000000000000000000815260040180806020018281038252602c815260200180614775602c913960400191505060405180910390fd5b6000613304836121c4565b90508073ffffffffffffffffffffffffffffffffffffffff168473ffffffffffffffffffffffffffffffffffffffff16148061337357508373ffffffffffffffffffffffffffffffffffffffff1661335b84611797565b73ffffffffffffffffffffffffffffffffffffffff16145b80613384575061338381856130fe565b5b91505092915050565b613398838383613996565b6133a28382613bf1565b6133ac8282613d8f565b505050565b6133bb828261348c565b1561342e576040517f08c379a000000000000000000000000000000000000000000000000000000000815260040180806020018281038252601f8152602001807f526f6c65733a206163636f756e7420616c72656164792068617320726f6c650081525060200191505060405180910390fd5b60018260000160008373ffffffffffffffffffffffffffffffffffffffff1673ffffffffffffffffffffffffffffffffffffffff16815260200190815260200160002060006101000a81548160ff0219169083151502179055505050565b60008073ffffffffffffffffffffffffffffffffffffffff168273ffffffffffffffffffffffffffffffffffffffff161415613513576040517f08c379a00000000000000000000000000000000000000000000000000000000081526004018080602001828103825260228152602001806148d56022913960400191505060405180910390fd5b8260000160008373ffffffffffffffffffffffffffffffffffffffff1673ffffffffffffffffffffffffffffffffffffffff16815260200190815260200160002060009054906101000a900460ff16905092915050565b6135748282613e56565b61357e8282613d8f565b6135878161406e565b5050565b61359482613227565b6135e9576040517f08c379a000000000000000000000000000000000000000000000000000000000815260040180806020018281038252602c8152602001806148a9602c913960400191505060405180910390fd5b80600b60008481526020019081526020016000209080519060200190613610929190614572565b505050565b6000600560008373ffffffffffffffffffffffffffffffffffffffff1673ffffffffffffffffffffffffffffffffffffffff1681526020019081526020016000209050919050565b61367181600f61371f90919063ffffffff16565b8073ffffffffffffffffffffffffffffffffffffffff167fcd265ebaf09df2871cc7bd4133404a235ba12eff2041bb89d9c714a2621c7c7e60405160405180910390a250565b600081600001549050919050565b6136d981600f6133b190919063ffffffff16565b8073ffffffffffffffffffffffffffffffffffffffff167f6719d08c1888103bea251a4ed56406bd0c3e69723c8a1686e017e7bbe159b6f860405160405180910390a250565b613729828261348c565b61377e576040517f08c379a000000000000000000000000000000000000000000000000000000000815260040180806020018281038252602181526020018061485c6021913960400191505060405180910390fd5b60008260000160008373ffffffffffffffffffffffffffffffffffffffff1673ffffffffffffffffffffffffffffffffffffffff16815260200190815260200160002060006101000a81548160ff0219169083151502179055505050565b6137f081600c6133b190919063ffffffff16565b8073ffffffffffffffffffffffffffffffffffffffff167f6ae172837ea30b801fbfcdd4108aa1d5bf8ff775444fd70256b44e6bf3dfc3f660405160405180910390a250565b61384a81600c61371f90919063ffffffff16565b8073ffffffffffffffffffffffffffffffffffffffff167fe94479a9f7e1952cc78f2d6baab678adc1b772d936c6583def489e524cb6669260405160405180910390a250565b61389b84848461338d565b6138a7848484846140ba565b6138fc576040517f08c379a00000000000000000000000000000000000000000000000000000000081526004018080602001828103825260328152602001806146ef6032913960400191505060405180910390fd5b50505050565b600061394483836040518060400160405280601a81526020017f536166654d6174683a206469766973696f6e206279207a65726f0000000000008152506142aa565b905092915050565b600061398e83836040518060400160405280601e81526020017f536166654d6174683a207375627472616374696f6e206f766572666c6f770000815250614370565b905092915050565b8273ffffffffffffffffffffffffffffffffffffffff166139b6826121c4565b73ffffffffffffffffffffffffffffffffffffffff1614613a22576040517f08c379a00000000000000000000000000000000000000000000000000000000081526004018080602001828103825260298152602001806148f76029913960400191505060405180910390fd5b600073ffffffffffffffffffffffffffffffffffffffff168273ffffffffffffffffffffffffffffffffffffffff161415613aa8576040517f08c379a00000000000000000000000000000000000000000000000000000000081526004018080602001828103825260248152602001806147516024913960400191505060405180910390fd5b613ab181614430565b613af8600360008573ffffffffffffffffffffffffffffffffffffffff1673ffffffffffffffffffffffffffffffffffffffff1681526020019081526020016000206144ee565b613b3f600360008473ffffffffffffffffffffffffffffffffffffffff1673ffffffffffffffffffffffffffffffffffffffff168152602001908152602001600020614511565b816001600083815260200190815260200160002060006101000a81548173ffffffffffffffffffffffffffffffffffffffff021916908373ffffffffffffffffffffffffffffffffffffffff160217905550808273ffffffffffffffffffffffffffffffffffffffff168473ffffffffffffffffffffffffffffffffffffffff167fddf252ad1be2c89b69c2b068fc378daa952ba7f163c4a11628f55a4df523b3ef60405160405180910390a4505050565b6000613c496001600560008673ffffffffffffffffffffffffffffffffffffffff1673ffffffffffffffffffffffffffffffffffffffff1681526020019081526020016000208054905061394c90919063ffffffff16565b9050600060066000848152602001908152602001600020549050818114613d36576000600560008673ffffffffffffffffffffffffffffffffffffffff1673ffffffffffffffffffffffffffffffffffffffff1681526020019081526020016000208381548110613cb657fe5b9060005260206000200154905080600560008773ffffffffffffffffffffffffffffffffffffffff1673ffffffffffffffffffffffffffffffffffffffff1681526020019081526020016000208381548110613d0e57fe5b9060005260206000200181905550816006600083815260200190815260200160002081905550505b600560008573ffffffffffffffffffffffffffffffffffffffff1673ffffffffffffffffffffffffffffffffffffffff168152602001908152602001600020805480919060019003613d889190614672565b5050505050565b600560008373ffffffffffffffffffffffffffffffffffffffff1673ffffffffffffffffffffffffffffffffffffffff168152602001908152602001600020805490506006600083815260200190815260200160002081905550600560008373ffffffffffffffffffffffffffffffffffffffff1673ffffffffffffffffffffffffffffffffffffffff1681526020019081526020016000208190806001815401808255809150509060018203906000526020600020016000909192909190915055505050565b600073ffffffffffffffffffffffffffffffffffffffff168273ffffffffffffffffffffffffffffffffffffffff161415613ef9576040517f08c379a00000000000000000000000000000000000000000000000000000000081526004018080602001828103825260208152602001807f4552433732313a206d696e7420746f20746865207a65726f206164647265737381525060200191505060405180910390fd5b613f0281613227565b15613f75576040517f08c379a000000000000000000000000000000000000000000000000000000000815260040180806020018281038252601c8152602001807f4552433732313a20746f6b656e20616c7265616479206d696e7465640000000081525060200191505060405180910390fd5b816001600083815260200190815260200160002060006101000a81548173ffffffffffffffffffffffffffffffffffffffff021916908373ffffffffffffffffffffffffffffffffffffffff16021790555061400e600360008473ffffffffffffffffffffffffffffffffffffffff1673ffffffffffffffffffffffffffffffffffffffff168152602001908152602001600020614511565b808273ffffffffffffffffffffffffffffffffffffffff16600073ffffffffffffffffffffffffffffffffffffffff167fddf252ad1be2c89b69c2b068fc378daa952ba7f163c4a11628f55a4df523b3ef60405160405180910390a45050565b6007805490506008600083815260200190815260200160002081905550600781908060018154018082558091505090600182039060005260206000200160009091929091909150555050565b60006140db8473ffffffffffffffffffffffffffffffffffffffff16614527565b6140e857600190506142a2565b60008473ffffffffffffffffffffffffffffffffffffffff1663150b7a0261410e613197565b8887876040518563ffffffff1660e01b8152600401808573ffffffffffffffffffffffffffffffffffffffff1673ffffffffffffffffffffffffffffffffffffffff1681526020018473ffffffffffffffffffffffffffffffffffffffff1673ffffffffffffffffffffffffffffffffffffffff16815260200183815260200180602001828103825283818151815260200191508051906020019080838360005b838110156141ca5780820151818401526020810190506141af565b50505050905090810190601f1680156141f75780820380516001836020036101000a031916815260200191505b5095505050505050602060405180830381600087803b15801561421957600080fd5b505af115801561422d573d6000803e3d6000fd5b505050506040513d602081101561424357600080fd5b8101908080519060200190929190505050905063150b7a0260e01b7bffffffffffffffffffffffffffffffffffffffffffffffffffffffff1916817bffffffffffffffffffffffffffffffffffffffffffffffffffffffff1916149150505b949350505050565b60008083118290614356576040517f08c379a00000000000000000000000000000000000000000000000000000000081526004018080602001828103825283818151815260200191508051906020019080838360005b8381101561431b578082015181840152602081019050614300565b50505050905090810190601f1680156143485780820380516001836020036101000a031916815260200191505b509250505060405180910390fd5b50600083858161436257fe5b049050809150509392505050565b600083831115829061441d576040517f08c379a00000000000000000000000000000000000000000000000000000000081526004018080602001828103825283818151815260200191508051906020019080838360005b838110156143e25780820151818401526020810190506143c7565b50505050905090810190601f16801561440f5780820380516001836020036101000a031916815260200191505b509250505060405180910390fd5b5060008385039050809150509392505050565b600073ffffffffffffffffffffffffffffffffffffffff166002600083815260200190815260200160002060009054906101000a900473ffffffffffffffffffffffffffffffffffffffff1673ffffffffffffffffffffffffffffffffffffffff16146144eb5760006002600083815260200190815260200160002060006101000a81548173ffffffffffffffffffffffffffffffffffffffff021916908373ffffffffffffffffffffffffffffffffffffffff1602179055505b50565b6145066001826000015461394c90919063ffffffff16565b816000018190555050565b6001816000016000828254019250508190555050565b60008060007fc5d2460186f7233c927e7db2dcc703c0e500b653ca82273b7bfad8045d85a47060001b9050833f91506000801b82141580156145695750808214155b92505050919050565b828054600181600116156101000203166002900490600052602060002090601f016020900481019282601f106145b357805160ff19168380011785556145e1565b828001600101855582156145e1579182015b828111156145e05782518255916020019190600101906145c5565b5b5090506145ee919061469e565b5090565b828054600181600116156101000203166002900490600052602060002090601f016020900481019282601f1061463357805160ff1916838001178555614661565b82800160010185558215614661579182015b82811115614660578251825591602001919060010190614645565b5b50905061466e919061469e565b5090565b81548183558181111561469957818360005260206000209182019101614698919061469e565b5b505050565b6146c091905b808211156146bc5760008160009055506001016146a4565b5090565b9056fe455243373231456e756d657261626c653a206f776e657220696e646578206f7574206f6620626f756e64734552433732313a207472616e7366657220746f206e6f6e20455243373231526563656976657220696d706c656d656e746572506175736572526f6c653a2063616c6c657220646f6573206e6f742068617665207468652050617573657220726f6c654552433732313a207472616e7366657220746f20746865207a65726f20616464726573734552433732313a206f70657261746f7220717565727920666f72206e6f6e6578697374656e7420746f6b656e4552433732313a20617070726f76652063616c6c6572206973206e6f74206f776e6572206e6f7220617070726f76656420666f7220616c6c4552433732313a2062616c616e636520717565727920666f7220746865207a65726f20616464726573734552433732313a206f776e657220717565727920666f72206e6f6e6578697374656e7420746f6b656e4d696e746572526f6c653a2063616c6c657220646f6573206e6f74206861766520746865204d696e74657220726f6c65526f6c65733a206163636f756e7420646f6573206e6f74206861766520726f6c654552433732313a20617070726f76656420717565727920666f72206e6f6e6578697374656e7420746f6b656e4552433732314d657461646174613a2055524920736574206f66206e6f6e6578697374656e7420746f6b656e526f6c65733a206163636f756e7420697320746865207a65726f20616464726573734552433732313a207472616e73666572206f6620746f6b656e2074686174206973206e6f74206f776e4552433732314d657461646174613a2055524920717565727920666f72206e6f6e6578697374656e7420746f6b656e4552433732313a20617070726f76616c20746f2063757272656e74206f776e65724552433732313a207472616e736665722063616c6c6572206973206e6f74206f776e6572206e6f7220617070726f766564455243373231456e756d657261626c653a20676c6f62616c20696e646578206f7574206f6620626f756e6473a265627a7a72315820504421cd534c5cec25da23d1615bafd7cd8b9abf68b5fbc06cef7cf749a1d8f464736f6c634300050c0032526f6c65733a206163636f756e7420697320746865207a65726f2061646472657373455243373231456e756d657261626c653a206f776e657220696e646578206f7574206f6620626f756e64734552433732313a207472616e7366657220746f206e6f6e20455243373231526563656976657220696d706c656d656e746572506175736572526f6c653a2063616c6c657220646f6573206e6f742068617665207468652050617573657220726f6c654552433732313a207472616e7366657220746f20746865207a65726f20616464726573734552433732313a206f70657261746f7220717565727920666f72206e6f6e6578697374656e7420746f6b656e4552433732313a20617070726f76652063616c6c6572206973206e6f74206f776e6572206e6f7220617070726f76656420666f7220616c6c4552433732313a2062616c616e636520717565727920666f7220746865207a65726f20616464726573734552433732313a206f776e657220717565727920666f72206e6f6e6578697374656e7420746f6b656e4d696e746572526f6c653a2063616c6c657220646f6573206e6f74206861766520746865204d696e74657220726f6c65526f6c65733a206163636f756e7420646f6573206e6f74206861766520726f6c654552433732313a20617070726f76656420717565727920666f72206e6f6e6578697374656e7420746f6b656e4552433732314d657461646174613a2055524920736574206f66206e6f6e6578697374656e7420746f6b656e43463a205468697320746f6b656e20697320696e20616e2061637469766520457363726f772c20506c656173652066697273742064656163746976617465207468652061637469766520457363726f7720636f6e7472616374526f6c65733a206163636f756e7420697320746865207a65726f20616464726573734552433732313a207472616e73666572206f6620746f6b656e2074686174206973206e6f74206f776e4552433732314d657461646174613a2055524920717565727920666f72206e6f6e6578697374656e7420746f6b656e4552433732313a20617070726f76616c20746f2063757272656e74206f776e65724552433732313a207472616e736665722063616c6c6572206973206e6f74206f776e6572206e6f7220617070726f766564455243373231456e756d657261626c653a20676c6f62616c20696e646578206f7574206f6620626f756e647343463a20546f6b656e204944206e6f7420666f756e642c206e6f74206d696e7465642079657443463a2043616c6c6572206973206e6f74204f776e6572206e6f7220417070726f766564a265627a7a72315820796a81f2412bc2f002a1f2a3b0db3885c4c4893fe7bfe0cf342e03bf99cc130264736f6c634300050c0032526f6c65733a206163636f756e7420697320746865207a65726f2061646472657373",
  "source": "pragma solidity ^0.5.12;\n\n// CryptoFaces\nimport \"./CryptoFaces.sol\";\n\n// Escrow\nimport \"./Escrow.sol\";\n\ncontract CryptoFacesMarketPlace is CryptoFaces {\n\n    /**************\n     * Properties *\n     **************/\n\n    // Escrow Contracts\n    address[] offerEscrowContracts;\n    address[] bidEscrowContract;\n\n    // Map tokenId with it's recent Price\n    mapping(uint256 => uint256) private tokenIdToValueInWei;\n\n    // Map tokenId to Escrow Address\n    mapping(uint256 => address) private tokenIdToEscrowAddress;\n\n    // For single token offering\n    struct Offer {\n        bool isForSale;\n        uint256 tokenId;\n        address seller;\n        uint256 valueInWei;\n        address onlySellTo;     // specify to sell only to a specific person\n    }\n\n    // For bundle of tokens offering\n    struct BundleOffer {\n        bool areForSale;\n        uint256[] tokenIds;\n        address seller;\n        uint256 valueInWei;\n        address onlySellTo;     // specify to sell only to a specific person\n    }\n\n    struct Bid {\n        bool hasBid;\n        uint punkIndex;\n        address bidder;\n        uint value;\n    }\n\n    // Mapping TokenId to Offer\n    mapping(uint256 => Offer) tokensOfferedForSale;\n\n    // Mapping TokenId to Bid\n    mapping(uint256 => Bid) tokensBid;\n\n    // Total wei been processed through the contract\n    uint256 public totalPurchaseValueInWei;\n\n    /**********\n     * Events *\n     **********/\n\n    // Emitted on offerTokenForSale, and offerTokenForSaleTo\n    event TokenOffered(\n        uint256 indexed tokenId,\n        uint256 indexed valueInWei,\n        address indexed seller\n    );\n\n    // Emitted on offerBundleOfTokensForSale\n    event BundleOffered(\n        uint256[] indexed tokenId,\n        uint256 indexed valueInWei,\n        address indexed seller\n    );\n\n    // Emitted on cancel token offering\n    event TokenNoLongerForSale(\n        uint256 indexed tokenId\n    );\n\n    // Emitted on purchases from within this contract\n    event Purchase(\n        uint256 indexed tokenId,\n        address indexed buyer,\n        uint256 indexed priceInWei\n    );\n\n    /*************\n     * Modifiers *\n     *************/\n    modifier onlyForOwnerOrApproved(address _caller, uint256 _tokenId) {\n        require(super._isApprovedOrOwner(_caller, _tokenId), \"CF: Caller is not Owner nor Approved\");\n        _;\n    }\n\n    modifier onlyForOwnerOrApprovedToBundleTokens(address _caller, uint256[] memory _tokenIds) {\n        for(uint i = 0; i <= _tokenIds.length; i++) {\n            require(super._isApprovedOrOwner(_caller, _tokenIds[i]), \"CF: Caller is not Owner nor Approved\");\n        }\n        _;\n    }\n\n    modifier onlyIfTokenIdExists(uint256 _tokenId) {\n        require(exists(_tokenId), \"CF: Token ID not found, not minted yet\");\n        _;\n    }\n\n    modifier onlyIfBundleOfTokenIdsExists(uint256[] memory _tokenIds) {\n        for(uint i; i <= _tokenIds.length; i++) {\n            require(exists(_tokenIds[i]), \"CF: Token ID not found, not minted yet\");\n        }\n        _;\n    }\n\n    modifier notInActiveEscrow(uint256 _tokenId) {\n        require(tokenIdToEscrowAddress[_tokenId] == address(0), \"CF: This token is in an active Escrow, Please first deactivate the active Escrow contract\");\n        _;\n    }\n\n    /***************\n     * Constructor *\n     ***************/\n    constructor() public { }\n\n    /**\n     * @dev Public function for sale tokens with specified price\n     * Reverts if the caller is not owner nor approved\n     * Reverts if the token not exits before, on other words not minted yet\n     * Reverts if the token is already on an active Escrow contract\n     * @param _tokenId Token ID\n     * @param _tokenValueInWei Value assigned from the owner\n     */\n    function offerTokenForSale(uint256 _tokenId, uint256 _tokenValueInWei) public\n    onlyForOwnerOrApproved(_msgSender(), _tokenId)\n    onlyIfTokenIdExists(_tokenId)\n    notInActiveEscrow(_tokenId) {\n        // Map tokenId with it's Value\n        tokenIdToValueInWei[_tokenId] = _tokenValueInWei;\n        Escrow tokenEscrowContract = new Escrow(_tokenId, _tokenValueInWei);\n\n        // Map tokenId to it's Escrow contract address\n        tokenIdToEscrowAddress[_tokenId] = address(tokenEscrowContract);\n        // Map tokenId to it's Offer\n        tokensOfferedForSale[_tokenId] = Offer(true, _tokenId, _msgSender(), _tokenValueInWei, address(0));\n\n        // Emit TokenOffered event\n        emit TokenOffered(_tokenId, _tokenValueInWei, _msgSender());\n    }\n\n    /**\n     * @dev Public function for sale tokens with specified price to specific address\n     * Reverts if the caller is not owner nor approved\n     * Reverts if the token not exits before, on other words not minted yet\n     * Reverts if the token is already on an active Escrow contract\n     * @param _to address\n     * @param _tokenId Token ID\n     * @param _tokenValueInWei Value assigned from the owner\n     */\n    function offerTokenForSaleTo(address _to, uint256 _tokenId, uint256 _tokenValueInWei) public\n    onlyForOwnerOrApproved(_msgSender(), _tokenId)\n    onlyIfTokenIdExists(_tokenId)\n    notInActiveEscrow(_tokenId) {\n        // Map tokenId with it's Value\n        tokenIdToValueInWei[_tokenId] = _tokenValueInWei;\n        Escrow tokenEscrowContract = new Escrow(_tokenId, _tokenValueInWei);\n\n        // Map tokenId to it's Escrow contract address\n        tokenIdToEscrowAddress[_tokenId] = address(tokenEscrowContract);\n        // Map tokenId to it's Offer\n        tokensOfferedForSale[_tokenId] = Offer(true, _tokenId, _msgSender(), _tokenValueInWei, _to);\n\n        // Emit TokenOffered event\n        emit TokenOffered(_tokenId, _tokenValueInWei, _msgSender());\n    }\n\n    /**\n     * @dev Public function for offer a bundle of tokens for sale\n     * Reverts if the caller is not owner nor approved\n     * Reverts if the token not exits before, on other words not minted yet\n     * Reverts if the token is already on an active Escrow contract\n     * @param _tokenIds Token ID\n     * @param _offerValueInWei Value assigned from the owner\n     */\n    /*function offerBundleOfTokensForSale(uint256[] memory _tokenIds, uint256 _offerValueInWei) public\n    onlyForOwnerOrApprovedToBundleTokens(_msgSender(), _tokenIds)\n    onlyIfBundleOfTokenIdsExists(_tokenIds) {\n        // Remove any offers on the chosen bundle of tokens\n        for(uint i; i <= _tokenIds.length; i++) {\n            if(tokensOfferedForSale[_tokenIds[i]].isForSale) {\n                tokenNoLongerForSale(_tokenIds[i]);\n            }\n        }\n\n\n        // Map tokenId with it's Value\n        tokenIdToValueInWei[_tokenId] = _tokenValueInWei;\n        address tokenEscrowContract = new Escrow(_tokenId, _tokenValueInWei);\n\n        // Map tokenId to it's Escrow contract address\n        tokenIdToEscrowAddress[_tokenId] = tokenEscrowContract;\n        // Map tokenId to it's Offer\n        tokensOfferedForSale[_tokenId] = Offer(true, _tokenId, _msgSender(), _tokenValueInWei, _to);\n\n        // Emit TokenOffered event\n        emit TokenOffered(_tokenId, _tokenValueInWei, _msgSender());\n    }*/\n\n    // TODO: check if token is in active Escrow\n    /**\n     * @dev Public function transfer token to another address without any payments as a gift\n     * Reverts if the caller is not owner nor approved\n     * Reverts if the token not exits before, on other words not minted yet\n     * Reverts if the token is already on an active Escrow contract\n     * @param _to Receiver Address\n     * @param _tokenId Token ID\n     */\n    function transferTokenTo(address _to, uint256 _tokenId) public\n    onlyForOwnerOrApproved(_msgSender(), _tokenId)\n    onlyIfTokenIdExists(_tokenId) {\n        // Check if the token is on offer, cancel the offer\n        if(tokensOfferedForSale[_tokenId].isForSale) {\n            tokenNoLongerForSale(_tokenId);\n        }\n\n        // Transfer Ownership of the token to _to address\n        safeTransferFrom(_msgSender(), _to, _tokenId);\n\n        // TODO: check for the Bid\n    }\n\n    /**\n    * @dev Public function transfer tokens to another address without any payments as a gift\n    * Reverts if the caller is not owner nor approved\n    * Reverts if the token not exits before, on other words not minted yet\n    * Reverts if the token is already on an active Escrow contract\n    * @param _to Receiver Address\n    * @param _tokenIds Token ID\n    */\n    function transferTokensTo(address _to, uint256[] memory _tokenIds) public\n    onlyForOwnerOrApprovedToBundleTokens(_msgSender(), _tokenIds)\n    onlyIfBundleOfTokenIdsExists(_tokenIds) {\n        // Check if the tokens are on offer, cancel the offer\n        for(uint i; i <= _tokenIds.length; i++) {\n            if(tokensOfferedForSale[_tokenIds[i]].isForSale) {\n                tokenNoLongerForSale(_tokenIds[i]);\n            }\n        }\n\n        // Transfer the Ownership of the tokens to _to address\n        for(uint x; x<= _tokenIds.length; x++) {\n            safeTransferFrom(_msgSender(), _to, _tokenIds[x]);\n        }\n    }\n\n    /**\n    * @dev Public function for removing any offers on any token\n    * Reverts if the caller is not owner nor approved\n    * Reverts if the token not exits before, on other words not minted yet\n    * @param _tokenId Token ID\n    */\n    function tokenNoLongerForSale(uint256 _tokenId) public\n    onlyForOwnerOrApproved(_msgSender(), _tokenId)\n    onlyIfTokenIdExists(_tokenId) {\n        // Deactivate the offer sale\n        tokensOfferedForSale[_tokenId] = Offer(false, _tokenId, _msgSender(), 0, address(0));\n\n        // TODO: Burn the offer contract\n\n        // Emit Token no longer for sale event\n        emit TokenNoLongerForSale(_tokenId);\n    }\n\n\n\n\n    /*function enterBidForToken(uint256 _tokenId) public\n    onlyIfTokenIdExists(_tokenId) {\n        require(msg.value != 0, 'CF: Current address has no sufficient value');\n    }*/\n\n\n\n\n\n\n\n\n\n    // TODO: Test purchase\n    /**\n     * @dev Public entry point for purchasing a Token\n     * @dev Reverts if payment not provided in full\n     * @dev Reverts if token is sold out\n     * @dev Reverts if token is not active or available\n     */\n    /*function purchase(uint256 _tokenId) public payable\n    whenNotPaused {\n        return purchaseTo(msg.sender, _tokenId);\n    }*/\n\n    // TODO: Test purchaseTo\n    /**\n     * @dev Public entry point for purchasing an edition on behalf of someone else\n     * @dev Reverts if edition is invalid\n     * @dev Reverts if payment not provided in full\n     * @dev Reverts if edition is sold out\n     * @dev Reverts if edition is not active or available\n     */\n/*\n    function purchaseTo(address _to, uint256 _tokenId) public payable\n    whenNotPaused {\n\n        // Get an instance of TokenDetails\n        TokenDetails storage _tokenDetails = tokenIdToTokenDetails[_tokenId];\n        require(msg.value >= _tokenDetails.priceInWei, \"Value must be greater than price of edition\");\n\n        // Splice funds and handle commissions\n        _handleTransfer(_to, _tokenId, _tokenDetails.priceInWei, _tokenDetails.currentOwner);\n\n        // Broadcast purchase\n        emit Purchase(_tokenId, _to, msg.value);\n    }\n\n    function _handleTransfer(address _to, uint256 _tokenId, uint256 _priceInWei, address payable _currentOwner) internal {\n\n        // Extract the artists commission and send it\n        uint256 artistPayment = _priceInWei.div(100);\n        if (artistPayment > 0) {\n            _currentOwner.transfer(artistPayment);\n        }\n\n        // Transfer the ownership of the token to the buyer\n        safeTransferFrom(_currentOwner, _to, _tokenId);\n\n        // Record wei sale value\n        totalPurchaseValueInWei = totalPurchaseValueInWei.add(msg.value);\n    }\n*/\n}\n",
  "sourcePath": "/home/iskander/Projects/cryptofaces/contracts/CryptoFacesMarketPlace.sol",
  "compiler": {
    "name": "solc",
    "version": "0.5.12+commit.7709ece9.Emscripten.clang"
  },
  "schemaVersion": "3.0.20",
  "updatedAt": "2020-02-04T14:30:07.123Z",
  "devdoc": {
    "methods": {
      "approve(address,uint256)": {
        "details": "Approves another address to transfer the given token ID The zero address indicates there is no approved address. There can only be one approved address per token at a given time. Can only be called by the token owner or an approved operator.",
        "params": {
          "to": "address to be approved for the given token ID",
          "tokenId": "uint256 ID of the token to be approved"
        }
      },
      "balanceOf(address)": {
        "details": "Gets the balance of the specified address.",
        "params": {
          "owner": "address to query the balance of"
        },
        "return": "uint256 representing the amount owned by the passed address"
      },
      "cryptoFacesOwnerAddress()": {
        "details": "Gets the address of CryptoFaces Owner",
        "return": "address"
      },
      "exists(uint256)": {
        "details": "Returns whether the specified token exists.",
        "params": {
          "_tokenId": "uint256 ID of the token to query the existence of"
        },
        "return": "bool whether the token exists"
      },
      "getApproved(uint256)": {
        "details": "Gets the approved address for a token ID, or zero if no address set Reverts if the token ID does not exist.",
        "params": {
          "tokenId": "uint256 ID of the token to query the approval of"
        },
        "return": "address currently approved for the given token ID"
      },
      "isApprovedForAll(address,address)": {
        "details": "Tells whether an operator is approved by a given owner.",
        "params": {
          "operator": "operator address which you want to query the approval of",
          "owner": "owner address which you want to query the approval of"
        },
        "return": "bool whether the given operator is approved by the given owner"
      },
      "mint(string)": {
        "details": "Public function to mint a new token to the creator (caller), Mint is for general minting not for submitting any pricePrivate (CF Artists only)Payment not needed for this method Reverts if the given token ID already exists, and if the face already exists",
        "params": {
          "_tokenURI": "The Face Hash the will be minted with the token"
        }
      },
      "mintTo(address,string)": {
        "details": "Internal function to mint a new token to specific addressPrivate (CF Artists only)Payment not needed for this method Reverts if the given token ID already exists, and if the face already exists",
        "params": {
          "_to": "The account address of the received address",
          "_tokenURI": "The Face Hash the will be minted with the token"
        }
      },
      "mintWithTokenURI(address,uint256,string)": {
        "details": "Function to mint tokens.",
        "params": {
          "to": "The address that will receive the minted tokens.",
          "tokenId": "The token id to mint.",
          "tokenURI": "The token URI of the minted token."
        },
        "return": "A boolean that indicates if the operation was successful."
      },
      "name()": {
        "details": "Gets the token name.",
        "return": "string representing the token name"
      },
      "offerTokenForSale(uint256,uint256)": {
        "details": "Public function for sale tokens with specified price Reverts if the caller is not owner nor approved Reverts if the token not exits before, on other words not minted yet Reverts if the token is already on an active Escrow contract",
        "params": {
          "_tokenId": "Token ID",
          "_tokenValueInWei": "Value assigned from the owner"
        }
      },
      "offerTokenForSaleTo(address,uint256,uint256)": {
        "details": "Public function for sale tokens with specified price to specific address Reverts if the caller is not owner nor approved Reverts if the token not exits before, on other words not minted yet Reverts if the token is already on an active Escrow contract",
        "params": {
          "_to": "address",
          "_tokenId": "Token ID",
          "_tokenValueInWei": "Value assigned from the owner"
        }
      },
      "ownerOf(uint256)": {
        "details": "Gets the owner of the specified token ID.",
        "params": {
          "tokenId": "uint256 ID of the token to query the owner of"
        },
        "return": "address currently marked as the owner of the given token ID"
      },
      "pause()": {
        "details": "Called by a pauser to pause, triggers stopped state."
      },
      "paused()": {
        "details": "Returns true if the contract is paused, and false otherwise."
      },
      "safeTransferFrom(address,address,uint256)": {
        "details": "Safely transfers the ownership of a given token ID to another address If the target address is a contract, it must implement {IERC721Receiver-onERC721Received}, which is called upon a safe transfer, and return the magic value `bytes4(keccak256(\"onERC721Received(address,address,uint256,bytes)\"))`; otherwise, the transfer is reverted. Requires the msg.sender to be the owner, approved, or operator",
        "params": {
          "from": "current owner of the token",
          "to": "address to receive the ownership of the given token ID",
          "tokenId": "uint256 ID of the token to be transferred"
        }
      },
      "safeTransferFrom(address,address,uint256,bytes)": {
        "details": "Safely transfers the ownership of a given token ID to another address If the target address is a contract, it must implement {IERC721Receiver-onERC721Received}, which is called upon a safe transfer, and return the magic value `bytes4(keccak256(\"onERC721Received(address,address,uint256,bytes)\"))`; otherwise, the transfer is reverted. Requires the _msgSender() to be the owner, approved, or operator",
        "params": {
          "_data": "bytes data to send along with a safe transfer check",
          "from": "current owner of the token",
          "to": "address to receive the ownership of the given token ID",
          "tokenId": "uint256 ID of the token to be transferred"
        }
      },
      "setApprovalForAll(address,bool)": {
        "details": "Sets or unsets the approval of a given operator An operator is allowed to transfer all tokens of the sender on their behalf.",
        "params": {
          "approved": "representing the status of the approval to be set",
          "to": "operator address to set the approval"
        }
      },
      "supportsInterface(bytes4)": {
        "details": "See {IERC165-supportsInterface}.     * Time complexity O(1), guaranteed to always use less than 30 000 gas."
      },
      "symbol()": {
        "details": "Gets the token symbol.",
        "return": "string representing the token symbol"
      },
      "tokenByIndex(uint256)": {
        "details": "Gets the token ID at a given index of all the tokens in this contract Reverts if the index is greater or equal to the total number of tokens.",
        "params": {
          "index": "uint256 representing the index to be accessed of the tokens list"
        },
        "return": "uint256 token ID at the given index of the tokens list"
      },
      "tokenNoLongerForSale(uint256)": {
        "details": "Public function for removing any offers on any token Reverts if the caller is not owner nor approved Reverts if the token not exits before, on other words not minted yet",
        "params": {
          "_tokenId": "Token ID"
        }
      },
      "tokenOfOwnerByIndex(address,uint256)": {
        "details": "Gets the token ID at a given index of the tokens list of the requested owner.",
        "params": {
          "index": "uint256 representing the index to be accessed of the requested tokens list",
          "owner": "address owning the tokens list to be accessed"
        },
        "return": "uint256 token ID at the given index of the tokens list owned by the requested address"
      },
      "tokenURI(uint256)": {
        "details": "Returns an URI for a given token ID. Throws if the token ID does not exist. May return an empty string.",
        "params": {
          "tokenId": "uint256 ID of the token to query"
        }
      },
      "tokensOf(address)": {
        "details": "Gets the list of token IDs of the requested owner, inherited from ERC721 Enumerable",
        "params": {
          "_owner": "address owning the tokens"
        },
        "return": "uint256[] List of token IDs owned by the requested address"
      },
      "totalSupply()": {
        "details": "Gets the total amount of tokens stored by the contract.",
        "return": "uint256 representing the total amount of tokens"
      },
      "transferFrom(address,address,uint256)": {
        "details": "Transfers the ownership of a given token ID to another address. Usage of this method is discouraged, use {safeTransferFrom} whenever possible. Requires the msg.sender to be the owner, approved, or operator.",
        "params": {
          "from": "current owner of the token",
          "to": "address to receive the ownership of the given token ID",
          "tokenId": "uint256 ID of the token to be transferred"
        }
      },
      "transferTokenTo(address,uint256)": {
        "details": "Public function transfer token to another address without any payments as a gift Reverts if the caller is not owner nor approved Reverts if the token not exits before, on other words not minted yet Reverts if the token is already on an active Escrow contract",
        "params": {
          "_to": "Receiver Address",
          "_tokenId": "Token ID"
        }
      },
      "transferTokensTo(address,uint256[])": {
        "details": "Public function transfer tokens to another address without any payments as a gift Reverts if the caller is not owner nor approved Reverts if the token not exits before, on other words not minted yet Reverts if the token is already on an active Escrow contract",
        "params": {
          "_to": "Receiver Address",
          "_tokenIds": "Token ID"
        }
      },
      "unpause()": {
        "details": "Called by a pauser to unpause, returns to normal state."
      }
    }
  },
  "userdoc": {
    "methods": {
      "addAddressToAccessControl(address,uint8)": {
        "notice": "/////////////////////////////////"
      },
      "constructor": "************* Constructor ***************"
    }
  }
}