{
  "contractName": "EscrowBundle",
  "abi": [
    {
      "inputs": [
        {
          "internalType": "uint256[]",
          "name": "_tokenIds",
          "type": "uint256[]"
        },
        {
          "internalType": "uint256",
          "name": "_bundleValue",
          "type": "uint256"
        }
      ],
      "payable": false,
      "stateMutability": "nonpayable",
      "type": "constructor"
    },
    {
      "anonymous": false,
      "inputs": [],
      "name": "Aborted",
      "type": "event"
    },
    {
      "anonymous": false,
      "inputs": [],
      "name": "ItemReceived",
      "type": "event"
    },
    {
      "anonymous": false,
      "inputs": [],
      "name": "PurchaseConfirmed",
      "type": "event"
    },
    {
      "constant": true,
      "inputs": [],
      "name": "bundleValue",
      "outputs": [
        {
          "internalType": "uint256",
          "name": "",
          "type": "uint256"
        }
      ],
      "payable": false,
      "stateMutability": "view",
      "type": "function"
    },
    {
      "constant": true,
      "inputs": [],
      "name": "state",
      "outputs": [
        {
          "internalType": "enum EscrowBundle.State",
          "name": "",
          "type": "uint8"
        }
      ],
      "payable": false,
      "stateMutability": "view",
      "type": "function"
    },
    {
      "constant": true,
      "inputs": [
        {
          "internalType": "uint256",
          "name": "",
          "type": "uint256"
        }
      ],
      "name": "tokenIds",
      "outputs": [
        {
          "internalType": "uint256",
          "name": "",
          "type": "uint256"
        }
      ],
      "payable": false,
      "stateMutability": "view",
      "type": "function"
    },
    {
      "constant": false,
      "inputs": [],
      "name": "abort",
      "outputs": [],
      "payable": false,
      "stateMutability": "nonpayable",
      "type": "function"
    },
    {
      "constant": false,
      "inputs": [],
      "name": "confirmPurchase",
      "outputs": [],
      "payable": true,
      "stateMutability": "payable",
      "type": "function"
    },
    {
      "constant": false,
      "inputs": [],
      "name": "confirmReceived",
      "outputs": [],
      "payable": false,
      "stateMutability": "nonpayable",
      "type": "function"
    }
  ],
  "bytecode": "0x608060405234801561001057600080fd5b506040516107753803806107758339818101604052604081101561003357600080fd5b810190808051604051939291908464010000000082111561005357600080fd5b8382019150602082018581111561006957600080fd5b825186602082028301116401000000008211171561008657600080fd5b8083526020830192505050908051906020019060200280838360005b838110156100bd5780820151818401526020810190506100a2565b505050509050016040526020018051906020019092919050505033600260006101000a81548173ffffffffffffffffffffffffffffffffffffffff021916908373ffffffffffffffffffffffffffffffffffffffff160217905550816000908051906020019061012e92919061013d565b508060018190555050506101af565b828054828255906000526020600020908101928215610179579160200282015b8281111561017857825182559160200191906001019061015d565b5b509050610186919061018a565b5090565b6101ac91905b808211156101a8576000816000905550600101610190565b5090565b90565b6105b7806101be6000396000f3fe6080604052600436106100555760003560e01c806335a063b41461005a57806370fc0e4a1461007157806373fac6f01461009c578063c19d93fb146100b3578063d58778d6146100ec578063d69606971461013b575b600080fd5b34801561006657600080fd5b5061006f610145565b005b34801561007d57600080fd5b506100866102a5565b6040518082815260200191505060405180910390f35b3480156100a857600080fd5b506100b16102ab565b005b3480156100bf57600080fd5b506100c8610476565b604051808260028111156100d857fe5b60ff16815260200191505060405180910390f35b3480156100f857600080fd5b506101256004803603602081101561010f57600080fd5b8101908080359060200190929190505050610489565b6040518082815260200191505060405180910390f35b6101436104aa565b005b600260009054906101000a900473ffffffffffffffffffffffffffffffffffffffff1673ffffffffffffffffffffffffffffffffffffffff163373ffffffffffffffffffffffffffffffffffffffff161461019f57600080fd5b60008060028111156101ad57fe5b600360149054906101000a900460ff1660028111156101c857fe5b146101d257600080fd5b7f72c874aeff0b183a56e2b79c71b46e1aed4dee5e09862134b8821ba2fddbf8bf60405160405180910390a16002600360146101000a81548160ff0219169083600281111561021d57fe5b0217905550600260009054906101000a900473ffffffffffffffffffffffffffffffffffffffff1673ffffffffffffffffffffffffffffffffffffffff166108fc3073ffffffffffffffffffffffffffffffffffffffff16319081150290604051600060405180830381858888f193505050501580156102a1573d6000803e3d6000fd5b5050565b60015481565b600360009054906101000a900473ffffffffffffffffffffffffffffffffffffffff1673ffffffffffffffffffffffffffffffffffffffff163373ffffffffffffffffffffffffffffffffffffffff161461030557600080fd5b600180600281111561031357fe5b600360149054906101000a900460ff16600281111561032e57fe5b1461033857600080fd5b7fe89152acd703c9d8c7d28829d443260b411454d45394e7995815140c8cbcbcf760405160405180910390a16002600360146101000a81548160ff0219169083600281111561038357fe5b0217905550600360009054906101000a900473ffffffffffffffffffffffffffffffffffffffff1673ffffffffffffffffffffffffffffffffffffffff166108fc6001549081150290604051600060405180830381858888f193505050501580156103f2573d6000803e3d6000fd5b50600260009054906101000a900473ffffffffffffffffffffffffffffffffffffffff1673ffffffffffffffffffffffffffffffffffffffff166108fc3073ffffffffffffffffffffffffffffffffffffffff16319081150290604051600060405180830381858888f19350505050158015610472573d6000803e3d6000fd5b5050565b600360149054906101000a900460ff1681565b6000818154811061049657fe5b906000526020600020016000915090505481565b60008060028111156104b857fe5b600360149054906101000a900460ff1660028111156104d357fe5b146104dd57600080fd5b600154341015806104ed57600080fd5b7fd5d55c8a68912e9a110618df8d5e2e83b8d83211c57a8ddd1203df92885dc88160405160405180910390a133600360006101000a81548173ffffffffffffffffffffffffffffffffffffffff021916908373ffffffffffffffffffffffffffffffffffffffff1602179055506001600360146101000a81548160ff0219169083600281111561057957fe5b0217905550505056fea265627a7a72315820175c86d0cdbac0cdc859be2c00ab761bbad52061479bae273a9f70729a4eb66664736f6c634300050c0032",
  "source": "pragma solidity ^0.5.12;\n\ncontract EscrowBundle {\n\n    /**************\n     * Properties *\n     **************/\n    uint256[] public tokenIds;\n    uint256 public bundleValue;\n    address payable seller;\n    address payable buyer;\n\n    enum State { Created, Locked, Inactive }\n    State public state;\n\n    /**********\n     * Events *\n     **********/\n    event Aborted();\n    event PurchaseConfirmed();\n    event ItemReceived();\n\n    /*************\n    * Modifiers *\n    *************/\n    modifier condition(bool _condition) {\n        require(_condition);\n        _;\n    }\n\n    modifier onlyBuyer() {\n        require(msg.sender == buyer);\n        _;\n    }\n\n    modifier onlySeller() {\n        require(msg.sender == seller);\n        _;\n    }\n\n    modifier inState(State _state) {\n        require(state == _state);\n        _;\n    }\n\n    /***************\n     * Constructor *\n     ***************/\n    constructor(uint256[] memory _tokenIds, uint256 _bundleValue) public {\n        seller = msg.sender;\n        tokenIds = _tokenIds;\n        bundleValue = _bundleValue;\n    }\n\n    /********************\n     * Basic Operations *\n     ********************/\n    /**\n     * @dev Public function to abort the purchase and reclaim the ether\n     * @dev Private (Seller only)\n     * @dev The contract is locked\n     * Reverts if the caller is not the seller\n     */\n    function abort() public\n    onlySeller\n    inState(State.Created) {\n        emit Aborted();\n        state = State.Inactive;\n        seller.transfer(address(this).balance);\n    }\n\n    /**\n     * @dev Public function to confirm the purchase as a buyer\n     * @dev Private (Buyer only)\n     * @dev The ether will be locked until confirmReceived\n     * Reverts if the buyer value is lower than bundle value\n     */\n    function confirmPurchase() public\n    inState(State.Created)\n    condition(msg.value >= bundleValue) payable {\n        emit PurchaseConfirmed();\n        buyer = msg.sender;\n        state = State.Locked;\n    }\n\n    /**\n     * @dev Public function to confirm that you (the buyer) received the token\n     * @dev Private (Buyer only)\n     * @dev The contract is locked\n     * Reverts if the caller is not the Buyer\n     */\n    /// Confirm that you (the buyer) received the item.\n    /// This will release the locked ether.\n    function confirmReceived() public\n    onlyBuyer\n    inState(State.Locked) {\n        emit ItemReceived();\n        // It is important to change the state first because\n        // otherwise, the contracts called using `send` below\n        // can call in again here.\n        state = State.Inactive;\n\n        // NOTE: This actually allows both the buyer and the seller to\n        // block the refund - the withdraw pattern should be used.\n\n        buyer.transfer(bundleValue);\n        seller.transfer(address(this).balance);\n    }\n}\n",
  "sourcePath": "/home/iskander/Projects/cryptofaces/contracts/EscrowBundle.sol",
  "compiler": {
    "name": "solc",
    "version": "0.5.12+commit.7709ece9.Emscripten.clang"
  },
  "schemaVersion": "3.0.20",
  "updatedAt": "2020-02-04T14:30:07.424Z",
  "devdoc": {
    "methods": {
      "abort()": {
        "details": "Public function to abort the purchase and reclaim the etherPrivate (Seller only)The contract is locked Reverts if the caller is not the seller"
      },
      "confirmPurchase()": {
        "details": "Public function to confirm the purchase as a buyerPrivate (Buyer only)The ether will be locked until confirmReceived Reverts if the buyer value is lower than bundle value"
      }
    }
  },
  "userdoc": {
    "methods": {
      "confirmReceived()": {
        "notice": "Confirm that you (the buyer) received the item. This will release the locked ether."
      },
      "constructor": "************* Constructor ***************"
    }
  }
}