{
  "contractName": "ProxyRegistry",
  "abi": [
    {
      "constant": true,
      "inputs": [
        {
          "internalType": "address",
          "name": "",
          "type": "address"
        }
      ],
      "name": "proxies",
      "outputs": [
        {
          "internalType": "contract OwnableDelegateProxy",
          "name": "",
          "type": "address"
        }
      ],
      "payable": false,
      "stateMutability": "view",
      "type": "function"
    }
  ],
  "bytecode": "0x608060405234801561001057600080fd5b50610116806100206000396000f3fe6080604052348015600f57600080fd5b506004361060285760003560e01c8063c455279114602d575b600080fd5b606c60048036036020811015604157600080fd5b81019080803573ffffffffffffffffffffffffffffffffffffffff16906020019092919050505060ae565b604051808273ffffffffffffffffffffffffffffffffffffffff1673ffffffffffffffffffffffffffffffffffffffff16815260200191505060405180910390f35b60006020528060005260406000206000915054906101000a900473ffffffffffffffffffffffffffffffffffffffff168156fea265627a7a72315820e89053d83481f56c05ce0a707a8caa41980d31c66596205922e3d02e94a6489864736f6c634300050c0032",
  "source": "pragma solidity ^0.5.0;\n\nimport 'openzeppelin-solidity/contracts/token/ERC721/ERC721Full.sol';\nimport 'openzeppelin-solidity/contracts/ownership/Ownable.sol';\nimport './Strings.sol';\n\ncontract OwnableDelegateProxy { }\n\ncontract ProxyRegistry {\n    mapping(address => OwnableDelegateProxy) public proxies;\n}\n\n/**\n * @title TradeableERC721Token\n * TradeableERC721Token - ERC721 contract that whitelists a trading address, and has minting functionality.\n */\ncontract TradeableERC721Token is ERC721Full, Ownable {\n  using Strings for string;\n\n  address proxyRegistryAddress;\n  uint256 private _currentTokenId = 0;\n\n  constructor(string memory _name, string memory _symbol) ERC721Full(_name, _symbol) public {\n   // proxyRegistryAddress = _proxyRegistryAddress;\n  }\n\n  /**\n    * @dev Mints a token to an address with a tokenURI.\n    * @param _to address of the future owner of the token\n    */\n  function mintTo(address _to) public onlyOwner {\n    uint256 newTokenId = _getNextTokenId();\n    _mint(_to, newTokenId);\n    _incrementTokenId();\n  }\n\n  /**\n    * @dev calculates the next token ID based on value of _currentTokenId \n    * @return uint256 for the next token ID\n    */\n  function _getNextTokenId() private view returns (uint256) {\n    return _currentTokenId.add(1);\n  }\n\n  /**\n    * @dev increments the value of _currentTokenId \n    */\n  function _incrementTokenId() private  {\n    _currentTokenId++;\n  }\n\n  function baseTokenURI() public view returns (string memory) {\n    return \"\";\n  }\n\n  function tokenURI(uint256 _tokenId) external view returns (string memory) {\n    return Strings.strConcat(\n        baseTokenURI(),\n        Strings.uint2str(_tokenId)\n    );\n  }\n\n  /**\n   * Override isApprovedForAll to whitelist user's OpenSea proxy accounts to enable gas-less listings.\n   */\n  function isApprovedForAll( address owner, address operator) public view returns (bool) {\n    // Whitelist OpenSea proxy contract for easy trading.\n    ProxyRegistry proxyRegistry = ProxyRegistry(proxyRegistryAddress);\n    if (address(proxyRegistry.proxies(owner)) == operator) {\n        return true;\n    }\n\n    return super.isApprovedForAll(owner, operator);\n  }\n}\n",
  "sourcePath": "/home/iskander/Projects/cryptofaces/contracts/TradeableERC721Token.sol",
  "compiler": {
    "name": "solc",
    "version": "0.5.12+commit.7709ece9.Emscripten.clang"
  },
  "schemaVersion": "3.0.20",
  "updatedAt": "2020-01-31T17:06:30.617Z",
  "devdoc": {
    "methods": {}
  },
  "userdoc": {
    "methods": {}
  }
}